:020000040800F2
:10000000F8580020B10200088D7A000881750008B8
:10001000157A00081D06000885C7000800000000CA
:100020000000000000000000000000006D7F0008DC
:10003000FB07000800000000A17A0008DD8000082E
:10004000CB020008CB020008CB020008CB0200085C
:10005000CB020008CB020008CB020008CB0200084C
:10006000CB020008CB020008CB020008CB0200083C
:10007000CB020008CB020008CB020008CB0200082C
:10008000CB020008CB020008CB020008CB0200081C
:10009000CB020008CB020008CB020008CB0200080C
:1000A000CB020008CB020008CB020008CB020008FC
:1000B000CB020008CB020008CB020008CB020008EC
:1000C000CB020008CB020008CB020008CB020008DC
:1000D000CB020008CB02000829980008CB020008D8
:1000E000CB020008CB02000800000000CB02000891
:1000F000CB020008CB020008CB020008CB020008AC
:10010000CB020008CB020008CB020008CB0200089B
:10011000CB020008CB020008CB020008CB0200088B
:10012000CB020008CB020008CB020008CB0200087B
:10013000CB020008CB020008CB020008CB0200086B
:1001400000000000000000000000000000000000AF
:10015000CB020008CB020008CB020008CB0200084B
:10016000CB020008CB020008CB020008CB0200083B
:10017000CB020008CB020008CB020008CB0200082B
:10018000CB020008CB020008CB020008CB0200081B
:10019000CB020008CB020008CB020008CB0200080B
:1001A000CB020008CB020008CB020008CB020008FB
:1001B000CB020008CB020008CB020008CB020008EB
:1001C000CB020008CB020008CB020008CB020008DB
:1001D000CB020008917A0008CB020008CB0200088D
:1001E000CB020008CB020008CB020008CB020008BB
:1001F000CB020008CB020008CB020008CB020008AB
:10020000CB020008CB020008CB020008CB0200089A
:10021000CB020008CB020008CB020008CB0200088A
:10022000CB020008CB020008CB020008000000004F
:10023000CB020008CB02000800000000CB0200083F
:10024000CB020008CB020008CB020008CB0200085A
:10025000CB020008CB020008CB020008CB0200084A
:10026000CB020008CB020008CB020008CB0200083A
:10027000CB020008CB020008CB02000800000000FF
:10028000CB020008CB020008CB02000800000000EF
:1002900000000000CB020008DFF810D000F020F9C9
:1002A00000480047B9F70008AFF30080F858002075
:1002B0000648804706480047FEE7FEE7FEE7FEE700
:1002C000FEE7FEE7FEE7FEE7FEE7FEE77D820008C9
:1002D000990200082DE9F05F0546002092469B46F2
:1002E00088460646814640241BE02846414647464C
:1002F000224600F0ADF853465A46C01A914110D339
:1003000011461846224600F094F82D1A67EB0108B2
:100310004F4622460120002100F08BF817EB000920
:100320004E41201EA4F10104DFDC484631462A4636
:100330004346BDE8F09F40EA01039B0703D009E074
:1003400008C9121F08C0042AFAD203E011F8013BC1
:1003500000F8013B521EF9D27047D2B201E000F81A
:10036000012B491EFBD270470022F6E710B5134659
:100370000A4604461946FFF7F0FF204610BD421C0E
:1003800010F8011B0029FBD1801A704710B500221C
:1003900000E0521C835C8C5CA34201D1002BF8D19D
:1003A000D8B2E1B2401A10BD30B504460020034671
:1003B00000E05B1C934203D2E05CCD5C401BF8D0B4
:1003C00030BD034611F8012B00F8012B002AF9D1AA
:1003D0001846704770B50F4D00B92868002412E028
:1003E0000A4602E09E4203D0521C1378002BF9D13A
:1003F000DAB2224305D02BB124B1002100F8011B51
:1004000004E00446401C0678002EE9D1286020460E
:1004100070BD00009C0C002070B506460CF00CFA74
:10042000046805460A220021304600F021F82C60BD
:1004300070BD202A04DB203A00FA02F10020704748
:100440009140C2F1200320FA03F319439040704712
:10045000202A04DB203A21FA02F00021704721FA19
:1004600002F3D040C2F12002914008431946704780
:100470002DE9F04791460F4680460446002614F8C1
:10048000015B2DB100F03EF80068405DC007F6D179
:100490002B2D02D02D2D18D0641E4A4639462046F9
:1004A00000F034F827B13968A14201D1C7F80080C3
:1004B00071054FF002040BD54042002803DD0CF01B
:1004C000BBF90460A007BDE8F08746F48066E4E766
:1004D0000028F8DA0CF0B0F904606FF00040F2E7A1
:1004E000064C074D06E0E06840F0010394E8070081
:1004F00098471034AC42F6D3FFF7D2FEA4DB0308D2
:10050000C4DB03080048704784DB03082DE9F05F73
:1005100082460078002715468B460AF10104B94649
:10052000302801D09DB113E014F8010B0127782881
:1005300003D0582801D045B10AE00DB1102D07D1E4
:100540000027102514F8010B02E0082500E00A2519
:100550000026B0460EE005FB080005FB06F101276A
:1005600001EB10461FFA80F8B6F5803F00D3B9467C
:1005700014F8010B294600F018F80028EBDABBF15B
:10058000000F05D00FB1641E00E05446CBF80040C8
:10059000B9F1000F06D00CF04FF902210160C81E1E
:1005A000BDE8F09F48EA0640FAE73A2800D2303822
:1005B00020F02002412A01D3A2F13700884201D362
:1005C0004FF0FF30704770B58C1810F8015B15F0D4
:1005D000070301D110F8013B2A1106D110F8012BB5
:1005E00003E010F8016B01F8016B5B1EF9D12B07DA
:1005F00005D40023521E0DD401F8013BFAE710F890
:10060000013BCB1A921C03E013F8015B01F8015B7C
:10061000521EF9D5A142D8D3002070BD00BFFEE71D
:1006200010B5044614B1012C0DD105E0012291034F
:10063000064801F091FE06E000224FF48041034895
:1006400001F08AFE00BF00BF10BD0000000C025880
:1006500010B5044614B1012C0DD106E000224FF470
:100660000041064801F078FE05E00122D10303486D
:1006700001F072FE00BF00BF10BD0000000C025868
:1006800010B50021042007F0A1F910BD1CB5012010
:10069000019007F077FB00F02BFA0122002101A85E
:1006A00000F0BCFC00B91CBD01220021684600F02E
:1006B00069FB00BFF7E7000010B5274A274928A0CB
:1006C0000DF0A7FE244800688069801E2249096851
:1006D0004989484300EE100AB8EE400BB6EE001B05
:1006E00020EE010BBCEEC00B1E4880ED000A1E2060
:1006F0000FF074F804461B481BA1026820460CF05A
:1007000053F8204607F0DAFC20460EF061FD12484F
:100710000068408911490968484300EE100AB8EEA4
:10072000400BB6EE001B20EE010BBCEEC00B1448D4
:1007300080ED000A1E200FF051F80446104811A168
:10074000026820460CF030F8204607F0B7FC20463F
:100750000EF03EFD10BD0000340C0020380C0020CF
:10076000000000003C0C00205553422020546F74C0
:10077000616C2053697A653A2009256C750A00007E
:10078000400C00205553422046726565205370612D
:1007900063653A2009256C750A00000001460022B5
:1007A00000BF05E0002301F5617040F82230521CC3
:1007B0000F2AF7D3002204E0002301F58E70835442
:1007C000521CB2F5007FF7D300200870487001205A
:1007D00088700020C1F8C40301230B7640238B717D
:1007E00000234B7681F81C33012381F81D3300234D
:1007F00081F81F3381F81E337047704772B600BF0F
:10080000FEE730B504460D4600222946204600F09A
:1008100001F830BDF0B50346012500241148407AA7
:1008200001281CDA00200F4E767A0E4FB855384654
:10083000467A001D40F82630001F467A083082555F
:100840003E46707A461C7E72044604F13000087001
:100850003A2048702F2088700020C8700025284654
:10086000F0BD0000AC4300202DE9F05F07460D46C7
:10087000164616B90120BDE8F09F3E484069A842DF
:1008800001D80020F7E73B48008BB04201DA002096
:10089000F1E732462946384800F074FA32463946C4
:1008A0003548FFF781FD08B90120E4E74FF0000A61
:1008B00032463946304800F041F908B14FF0010A9C
:1008C0002C48008B401E25EA00082A48008BB042C5
:1008D0000BD1002404E0385D27490855601C84B220
:1008E0002448008BA042F6DC10E02248028B4146EF
:1008F000214800F047FA1F48008B401E284084B270
:100900001D49081932463946FFF715FD4FF0000B17
:1009100000242AE0BAF1010F02D1404600F0B0F8FD
:100920001448028B4146144800F01CF932463946FF
:10093000284600F023F810B94FF0010B17E03246BB
:100940003946284600F01AF810B94FF0010B0EE0B6
:100950004FF0000903E009F101001FFA80F942F2AB
:1009600010708145F7DB601C84B2032CD2DB00BF22
:10097000584680E7D8300020F43000202DE9F047B9
:1009800005460E461746E81939494969884202D991
:100990000120BDE8F0870FB90020FAE7002000F041
:1009A000F3FA0020334908600321324802680068E6
:1009B000401C304B186030488154C5F3074118463D
:1009C00002680068401C18602B488154C5F3072258
:1009D000184601680068401C1860274842541846B1
:1009E00002680068401C1860234885540CF05CFBCA
:1009F0004FF0000917E04FF480501E4908600CF0DA
:100A000053FB002408E016F8011B1C48005D8142DE
:100A100000D027E0601C84B2B4F5805FF3DB09F1FD
:100A200001001FFA80F9B9EB173FE4D3C7F30B08B5
:100A3000B8F1000F11DD0F48C0F800800CF034FB56
:100A4000002408E016F8011B0C48005D814200D02C
:100A500008E0601C84B24445F4DB012000F094FA05
:100A6000002096E7012000F08FFA012091E70000B6
:100A7000D830002020000020B40F0020B41F002038
:100A800010B5044600F074FB002000F07DFA002051
:100A9000154908602021144802680068401C124B68
:100AA000186012488154C4F3074218460168006870
:100AB000401C18600D484254C4F3072218460168D0
:100AC0000068401C186009484254184601680068D4
:100AD000401C1860054844540CF0E6FA012000F070
:100AE00053FA00F06BFA10BD20000020B40F002074
:100AF00000B587B000BF0F48006840F008000D49FE
:100B000008600846006800F00800019000BF00BFC0
:100B10000120039000200490032005904FF4004032
:100B2000029002A9044801F00BFB00F0B7F907B0EE
:100B300000BD0000E04402580000025870B50346B2
:100B400000240BE013F8015BE843C5B211F8010B78
:100B5000284008B1012070BD601C84B29442F1DBD2
:100B60000020F8E72DE9F04104460E46154681487D
:100B70000068814988427DD1022D08DA284605EBBC
:100B8000D0714910A5EB410109B1BDE8F08100F039
:100B9000EFFA002000F0F8F9002078490860AD2154
:100BA000764802680068401C744B18607448815491
:100BB000C6F30741184602680068401C1860704878
:100BC0008154C6F30721184602680068401C18606B
:100BD0006B488154184602680068401C18606848D9
:100BE000865414F8011B184602680068401C1860FF
:100BF0006348815414F8011B184602680068401CC1
:100C000018605F4881540CF04FFA012000F0BCF9E5
:100C100000F0D4F9A81E85B2002728E0002000F0DB
:100C2000B3F9002055490860AD21544802680068B6
:100C3000401C524B18605248815414F8011B18464E
:100C400002680068401C18604D48815414F8011B6C
:100C5000184602680068401C1860494881540CF02E
:100C600023FA012000F090F900F0A8F97F1C05EBB1
:100C7000D57100E019E0B7EB610FCFD3002000F091
:100C800083F900203D49086004213C48026800685F
:100C9000401C3A4B18603A4881540CF005FA012088
:100CA00000F072F900F08AF962E04FF0000843E0CA
:100CB00000F05EFA002000F067F900202F4908607C
:100CC00002212E4802680068401C2C4B18602C48FA
:100CD0008154C6F30741184602680068401C18603A
:100CE00027488154C6F30721184602680068401C53
:100CF000186023488154184602680068401C186038
:100D00001F48865400270AE014F8011B1B4802689C
:100D10000068401C194B1860194881547F1CFF2F34
:100D2000F2D90CF0C1F9012000F02EF900F046F9DB
:100D300006F5807608F10108E91705EB1161B8EBBB
:100D4000212FB5D3002000F01FF900200B490860C7
:100D500004210A4802680068401C084B18600848D3
:100D600081540CF0A1F9012000F00EF900F026F9F1
:100D700000BF0AE7D83000204125BF002000002036
:100D8000B40F00202DE9F04180460C46154625B1F0
:100D900060192B494969884201D9BDE8F0810020DA
:100DA00000F0F2F800202749086003212548026876
:100DB0000068401C234B186023488154C4F307414A
:100DC000184602680068401C18601F488154C4F32C
:100DD0000722184601680068401C18601A484254EF
:100DE000184602680068401C1860174884540CF0CC
:100DF0005BF900270FE04FF48050124908600CF0B7
:100E000053F94FF4805211494046FFF794FA08F520
:100E10008058781C87B2B7EB153FECD3C5F30B06AF
:100E2000002E08DD074806600CF03EF932460749FF
:100E30004046FFF780FA012000F0A6F800BFACE7BB
:100E4000D830002020000020B40F0020B41F002064
:100E50002DE9F041002000F097F800200C490860CF
:100E60009F200C4908700420094908600CF01CF907
:100E7000094845788678C778012000F085F828046D
:100E800040EA062040EA07042046BDE8F081000061
:100E900020000020B40F0020B41F002010B5FFF781
:100EA000D7FF27490860084600682649084440B132
:100EB0002549084488B125490844D0B1012830D1DA
:100EC00023E023A11E48001DFFF77BFA4FF400101A
:100ED0001B494861401208832FE020A11848001DDB
:100EE000FFF76FFA4FF4001015494861401208836C
:100EF00023E01DA11248001DFFF763FA4FF4000024
:100F00000F494861C012088317E019A10C48001D61
:100F1000FFF757FA4FF080700949486100130883C2
:100F20000BE015A10648001DFFF74BFA4FF4001027
:100F3000034948614012088300BF00BF10BD000094
:100F4000D8300020BFDA40FF2C05FDFFFEDFD2FFC6
:100F50005353543235564630313642004D583235AF
:100F60004C313630364500005732355136340000AA
:100F70005732355131323800556E6B6E6F772046DF
:100F80006C6173680000000010B5044664B906F097
:100F9000EDFE002211464FF0805006F079FF4FF031
:100FA00000400549886105E04FF40040024988612E
:100FB00006F0E2FE10BD00000000025810B500204F
:100FC000FFF7E2FF0520124908700220114908606E
:100FD0000CF06AF80120FFF7D7FF15E00020FFF7BB
:100FE000D3FF05200A4908700020487002200949F3
:100FF00008600CF059F80120FFF7C6FF064840785A
:1010000000F0010000B900E0E8E700BF10BD0000FB
:10101000B40F002020000020B41F00202DE9F05F55
:1010200007460E4615464FF00009C846C246002442
:10103000A3464E48008BB6FBF0F100FB116A4B480B
:10104000008BA0EB0A044948008BB5FBF0F9474838
:10105000008BB5FBF0F100FB1158BAF1000F29D15C
:10106000B9F1000F08D1AAB231463846FFF7FCFBB0
:10107000002878D1BDE8F09F0EE03C48028B314655
:101080003846FFF7F1FB08B90020F3E73748008B3B
:1010900006443648008B0744B9F10000A9F1010964
:1010A000EBD11FFA88F231463846FFF7DDFB002806
:1010B00059D1DFE7B9F1000F1ED1A04514D9A8EB33
:1010C000040BA2B231463846FFF7CEFB08B9002028
:1010D000D0E7264427441FFA8BF231463846FFF703
:1010E000C3FB00283FD1C5E7AAB231463846FFF717
:1010F000BBFBB8BB0020BDE72D1B1C48008BB5FB1C
:10110000F0F91A48008BB5FBF0F100FB1158A2B2C0
:1011100031463846FFF7A8FB08B90020AAE7264465
:1011200027440EE01148028B31463846FFF79CFBFE
:1011300008B900209EE70D48008B06440B48008B41
:101140000744B9F10000A9F10109EBD1B8F1000F92
:1011500009D01FFA88F231463846FFF785FB08B9F7
:10116000002087E7FFE7012084E70000D830002057
:1011700010B50020FFF708FF00200849086006218D
:10118000064802680068401C044B186004488154FB
:101190000BF08AFF0120FFF7F7FE10BD20000020B2
:1011A000B40F002000B587B0142102A8FFF7DCF8C7
:1011B00000BF5448006840F00100524908600846EA
:1011C000006800F00100019000BF00BF00BF0846AA
:1011D000006840F0040008600846006800F0040061
:1011E000019000BF00BF00BF0846006840F0080043
:1011F00008600846006800F00800019000BF00BFCA
:10120000102002900120039000200490059002A974
:101210003D4800F095FF012210213B4801F09CF869
:1012200020200290002003900490059002A93648E7
:1012300000F086FF4FF40040029001200390002050
:101240000490059002A9314800F07AFF00224FF483
:1012500000412E4801F080F81020029001200390F8
:1012600000200490059002A9284800F069FF0022A0
:101270001021264801F070F84FF4804002900120C0
:10128000039000200490059002A9204800F058FF28
:10129000012291031D4801F05FF84FF48070029025
:1012A0000120039000200490059002A9184800F046
:1012B00047FF00224FF48071154801F04DF84FF4BC
:1012C000006002900120039000200490059002A984
:1012D0000E4800F035FF0122D1020C4801F03CF825
:1012E000202002900120039000200490059002A984
:1012F000064800F025FF01222021044801F02CF8C7
:1013000007B000BDE044025800080258000C025823
:10131000000002582DE9FC41074619480588194884
:101320000688002411E0012009213346CDE9001090
:10133000154802883146124800880CF02CFF1348EB
:101340000078304486B2601CC4B2082CEBDD002467
:1013500011E001200921CDE900100D4803882A463B
:101360000848018828460CF016FF0A4800782844EF
:1013700085B2601CC4B20C2CEBDDBDE8FC81000022
:10138000700400206E040020720400207704002006
:10139000740400207604002010B52DED028BADF60C
:1013A000582D29480078952804D10DF6582DBDEC0C
:1013B000028B10BD002429E000EE104AB8EE400A6E
:1013C000DFED220A80EE201AB7EEC10AB0EE408BA4
:1013D0000BF036FA1C48007801EE100AB8EE412BEB
:1013E0009FED1B1B02EE001B9FED1B0B31EE000B54
:1013F000BCEEC00B10EE100A0DF5A66121F814002A
:10140000601D02A921F81400601C84B214480088F1
:1014100014490988401AA042CEDC012064234FF40D
:1014200025720DF5A661009002A80CF027FF064872
:101430000078401C0449087008460078962801D1BD
:101440003220087000BFB0E7260C002000004842A0
:101450000000000000006940000000000000404063
:10146000720400207004002010B524201E4908805A
:1014700004201E4908801E4800887D381D490880C8
:101480001B48408825381C4908801A48008817499D
:101490000988401A0C2190FBF1F018490870164990
:1014A0000988114A1288881AC11700EB5171C1F3DB
:1014B000C701134A11701148007800EB40000B4936
:1014C000098801EB80000B49088010460078064926
:1014D000098801EBC00008490880002006F052F896
:1014E00001200849087010BD6E040020700400201F
:1014F00044040020720400207404002076040020BC
:10150000770400206404002010B5012000F042F9A7
:1015100010BD00002DE9FF5F07460E4615469B46AD
:10152000DDF8388000244FF009094FF0230A00202D
:101530004A494880BBF1010F04D14FF00209022053
:10154000888002E0092045498880287801285ED1FA
:101550005346782231463846CDE900980DF082FB9B
:101560000120CDE9000806EB0A0081B2534678223B
:1015700038460DF077FB19E04FF0460CACEB440C0D
:101580001FFA8CF34FF0780CACEB440C1FFA8CF282
:1015900006EB040C1FFA8CF107EB040C1FFA8CF01D
:1015A000CDE900980CF089FE601CC4B2022CE3D196
:1015B00001207022CDE90020284A02901278C2F161
:1015C0002302039202EBD27206EB620291B23A1D41
:1015D00090B2224B6A1C0CF07BFC01201F498880D2
:1015E0007022CDE900200A4602901278C2F123024F
:1015F000039202EBD27206EB6202524491B23A1DA0
:1016000090B2164B05F129020CF062FC24E0287818
:10161000E8B94623782231463846CDE900980DF0E6
:1016200021FB01207022CDE900200C4A02901278A3
:10163000C2F14602039202EBD27206EB620291B251
:101640003A1D90B2054B6A1C0CF042FC04E028786D
:10165000022801D1BDE8FF9F00BFFBE71E0C002060
:101660002DE9FE4F06460F4615469946DDF83080B7
:1016700000244FF0090A002045494880B9F1000FC5
:1016800022D02878012804D14FF0040A0420888051
:101690001FE02878022805D14FF0080A08203C49AD
:1016A000888016E02878032805D14FF00A0A0A201E
:1016B000374988800DE0287804280AD14FF0050AC0
:1016C00005203349888004E04FF0090A0920304999
:1016D000888020231A4639463046CDE900A80DF00F
:1016E000C1FA012006F12001CDE9000888B22023CB
:1016F000A42239460DF0B6FA19E04FF0200CACEBFD
:10170000440C1FFA8CF34FF0C40CACEB440C1FFAE2
:101710008CF207EB040C1FFA8CF106EB040C1FFA99
:101720008CF0CDE900A80CF0C8FD601CC4B2022CFE
:10173000E3D101201822CDE90020154A0290127849
:10174000C2F1200B0BEBDB7207EB620291B2321D90
:1017500090B20F4B6A1C0CF0BBFB01200C49888037
:101760009C22CDE900200A4602901278C2F1200B9B
:101770000BEBDB7207EB620291B206F1240290B22E
:10178000034B05F115020CF0A3FBBDE8FE8F000032
:101790001E0C00202DE9FE4F80463D4800688179EF
:1017A000012088401FFA80F93A48007808B9BDE85E
:1017B000FE8F3948007878B90120009037490190B0
:1017C000498825398BB2354909887D3988B27C2210
:1017D00000210DF047FAEAE7242530484088401EF2
:1017E000401BA0F5C070052190FBF1F006B2002E61
:1017F00000DA002601202A49888000204880012044
:101800007822CDE900200B4602901B78C3F1200A14
:101810000AEBDA73C3F34F011D4B1B681A681F4BA9
:101820001B887D3B98B21E4B0CF052FB1848006899
:10183000407920B91648006800F1080708E014480C
:1018400000684079012803D11148006800F5E2776B
:10185000002419E049FA04F101F0010304EB44010A
:1018600001EBC40C391D01EBCC020C49CDF8008012
:1018700009887B3988B22946FFF74CFE06F14600FD
:10188000284485B2601CC4B2052CE3DB00BF8EE7A0
:10189000680400206C0400206D0400204404002033
:1018A0001E0C00202DE9F041044600F061FD804649
:1018B00014B90120BDE8F08194F83500022808D061
:1018C0008020606500BF002084F8340000BF012044
:1018D000F0E7FE492068884249D0FC491831206869
:1018E000884244D0F9493031206888423FD0F749D6
:1018F0004831206888423AD0F449603120688842F3
:1019000035D0F24978312068884230D0EF499031A3
:10191000206888422BD0ED49A8312068884226D023
:10192000EB492068884222D0E94918312068884272
:101930001DD0E74930312068884218D0E449483149
:101940002068884213D0E2496031206888420ED076
:10195000DF4978312068884209D0DD49903120681C
:10196000884204D0DA49A8312068884201D1012098
:1019700000E0002068B12068006820F01E002168A7
:1019800008602068406920F080002168486125686F
:1019900006E02068006820F00E00216808602568D5
:1019A000CA492068884270D0C849183120688842E6
:1019B0006BD0C64930312068884266D0C34948316F
:1019C0002068884261D0C1496031206888425CD07B
:1019D000BE4978312068884257D0BC499031206890
:1019E000884252D0B949A831206888424DD0B849C0
:1019F0002068884249D0B64918312068884244D0CE
:101A0000B3493031206888423FD0B149483120681D
:101A100088423AD0AE4960312068884235D0AC491E
:101A200078312068884230D0A949903120688842B6
:101A30002BD0A749A8312068884226D0A549206824
:101A4000884222D0A3491431206888421DD0A14980
:101A500028312068884218D09E493C31206888424D
:101A600013D09C495031206888420ED09949643186
:101A70002068884209D0974978312068884204D08C
:101A800094498C312068884201D1012000E0002077
:101A900028B1206E006820F48070216E08608B49A8
:101AA0002068884249D0894918312068884244D04A
:101AB00086493031206888423FD0844948312068C7
:101AC00088423AD0814960312068884235D07F49C8
:101AD00078312068884230D07C4990312068884233
:101AE0002BD07A49A8312068884226D078492068CE
:101AF000884222D076491831206888421DD0744926
:101B000030312068884218D07149483120688842B5
:101B100013D06F496031206888420ED06C4978310B
:101B20002068884209D06A4990312068884204D0F0
:101B30006749A8312068884206D12068006820F0F3
:101B400001002168086005E02068006820F00100BD
:101B50002168086011E000F00BFCA0EB08000528EC
:101B60000BD92020606500BF002084F8340000BF3E
:101B7000032084F8350001209CE6286800F001006D
:101B80000028E8D151492068884249D04F4918318E
:101B90002068884244D04D493031206888423FD087
:101BA0004A494831206888423AD048496031206823
:101BB000884235D0454978312068884230D0434941
:101BC0009031206888422BD04049A8312068884253
:101BD00026D03F492068884222D03D4918312068EC
:101BE00088421DD03A4930312068884218D038499F
:101BF00048312068884213D03549603120688842D6
:101C00000ED0334978312068884209D0304990316C
:101C10002068884204D02E49A8312068884201D12A
:101C2000012000E0002040B1A66D94F85C0000F0B7
:101C30001F013F208840B06007E0A76D94F85C006A
:101C400000F01F0101208840786020492068884208
:101C500076D01E4918312068884271D01B49303136
:101C6000206888426CD0194948312068884267D082
:101C7000164960312068884262D014497831206862
:101C800088425DD0114990312068884258D00F4970
:101C9000A8312068884253D00D49206888424FD02F
:101CA0000B491831206888424AD0094930312068F0
:101CB000884245D0064948312068884240D00449CE
:101CC0006031206888423BD0014905E010000240A5
:101CD00010040240085402587831206888422FD0FE
:101CE0002549206888422BD0234918312068884232
:101CF00026D022492068884222D020491431206809
:101D000088421DD01D4928312068884218D01B49BF
:101D10003C312068884213D01849503120688842ED
:101D20000ED0164964312068884209D013497831B1
:101D30002068884204D011498C312068884201D142
:101D4000012000E0002068B1D4E919104860E06E7D
:101D500040B1E06E006820F48070E16E0860D4E964
:101D60001C10486000BF002084F8340000BF012030
:101D700084F8350000209DE5A00402400854025874
:101D800070B504460CB9012070BD94F835000228E6
:101D900003D0802060650120F6E7DC492068884296
:101DA00049D0DA4918312068884244D0D7493031C7
:101DB000206888423FD0D5494831206888423AD0CF
:101DC000D24960312068884235D0D04978312068C6
:101DD000884230D0CD499031206888422BD0CB4901
:101DE000A8312068884226D0C9492068884222D07C
:101DF000C7491831206888421DD0C5493031206854
:101E0000884218D0C24948312068884213D0C0495E
:101E10006031206888420ED0BD4978312068884200
:101E200009D0BB4990312068884204D0B849A83114
:101E30002068884201D1012000E00020F0B3042096
:101E400084F83500B149206888424BD0AF49183139
:101E50002068884246D0AD4930312068884241D060
:101E6000AA494831206888423CD0A849603120689E
:101E7000884237D0A54978312068884232D0A349BA
:101E80009031206888422DD0A049A831206888422E
:101E900028D09F492068884224D09D491831206865
:101EA00088421FD09A493031206888421AD0984918
:101EB00048312068884215D0954900E020E0603123
:101EC000206888420ED0924978312068884209D033
:101ED0008F4990312068884204D08D49A83120680C
:101EE000884206D12068006820F00100216808605F
:101EF00009E12068006820F001002168086002E123
:101F00002068006820F00E00216808607F49206882
:101F1000884249D07D4918312068884244D07B49A5
:101F20003031206888423FD0784948312068884263
:101F30003AD0764960312068884235D0734978318B
:101F40002068884230D071499031206888422BD077
:101F50006E49A8312068884226D06D4920688842A1
:101F600022D06B491831206888421DD06849303131
:101F70002068884218D0664948312068884213D0CA
:101F800063496031206888420ED061497831206809
:101F9000884209D05E4990312068884204D05C496B
:101FA000A8312068884206D12068006820F001002E
:101FB0002168086005E02068006820F001002168C1
:101FC000086052492068884270D050491831206812
:101FD00088426BD04D4930312068884266D04B49E9
:101FE00048312068884261D0484960312068884281
:101FF0005CD0464978312068884257D043499031B7
:102000002068884252D04149A831206888424DD08A
:102010003F492068884249D03D49183120688842AC
:1020200044D03B493031206888423FD0384948315C
:10203000206888423AD0364960312068884235D0DD
:10204000334978312068884230D031499031206856
:1020500088422BD02E49A8312068884226D02D49AD
:102060002068884222D02B491431206888421DD034
:10207000284928312068884218D026493C312068F8
:10208000884213D023495031206888420ED021491C
:1020900064312068884209D01E497831206888421E
:1020A00004D01C498C312068884201D1012000E015
:1020B0000020D8B1206E006820F48070216E086086
:1020C000A56D94F85C0000F01F0101208840686055
:1020D000D4E919104860E06E40B1E06E006820F469
:1020E0008070E16E0860D4E91C10486000BF0020D9
:1020F00084F8340000BF012084F83500206D10B151
:102100002046216D884700203EE600001000024076
:10211000100402400854025870B5044600F028F933
:1021200006462546681C10B104480078054400BFE7
:1021300000F01EF9801BA842FAD370BD08000020F1
:10214000F8B502460023734DDEE001279F400E687C
:1021500006EA0704002C71D04E68012E08D04E68A4
:10216000022E05D04E68112E02D04E68122E13D1C9
:1021700090685F000326BE40B0435F00CE68BE405B
:1021800030439060506801269E40B0430E79C6F3FC
:1021900000169E4030435060D0685F000326BE406A
:1021A000B0435F008E68BE403043D0604E68022E60
:1021B00002D04E68122E13D1DF0802F1200656F825
:1021C00027005E07F70E0F26BE40B0435F07FF0EE5
:1021D0000E69BE403043DF0802F1200646F82700B2
:1021E00010685F000326BE40B0430E7906F0030678
:1021F0005F00BE40304310604E6806F08056B6F176
:10220000805F1BD100BF444E366846F00206424F45
:102210003E603E46366806F00206009600BF00BFEC
:102220003E4E9F0856F827009E07370F0F26BE40E8
:10223000B0433B4EB24202D100262EE063E0394E5D
:10224000B24201D1012628E0374EB24201D1022626
:1022500023E0364EB24201D103261EE0344EB24294
:1022600001D1042619E0334EB24201D1052614E013
:10227000314EB24201D106260FE0304EB24201D1BA
:1022800007260AE02E4EB24201D1082605E02D4E67
:10229000B24201D1092600E00A269F073F0FBE4047
:1022A00030431E4E9F0846F827002868A0434E681A
:1022B00006F48036B6F5803F00D120432860686878
:1022C000A0434E6806F40036B6F5003F00D1204327
:1022D00068604FF0B0463068A0434E6806F4801640
:1022E000B6F5801F00D120434FF0B04630607068D3
:1022F000A0434E6806F40016B6F5001F00D1204337
:102300004FF0B04670605B1C0E68DE40002E7FF41C
:102310001CAFF8BD80000058F4440258080400586F
:10232000000002580004025800080258000C02582D
:10233000001002580014025800180258001C0258DD
:102340000020025800240258024613690B400BB1CA
:10235000012000E0002070470AB1816101E00B0418
:102360008361704701480068000C70470010005CF2
:1023700001480068704700000000002010B50446C6
:10238000D4F8000307F0A1FE10BD10B50446D4F840
:10239000000307F0A5FE10BD10B50446206809F043
:1023A0007DFD10BD10B50446206809F07EFD10BD0E
:1023B000024601EB410000EBC10302F1380000EBE3
:1023C000830090F828007047024601EB410000EBC3
:1023D000C10302F1380000EB83008069704770B5DB
:1023E00004460D46002600BF94F8F802012801D1EA
:1023F000022070BD012084F8F80200BF2946206841
:1024000009F064FD00BF002084F8F80200BF3046E8
:10241000EFE72DE9FE4F04460D4616461F46DDE95F
:102420000D9ADDF8308000BF94F8F802012802D13F
:102430000220BDE8FE8F012084F8F80200BF0021D1
:1024400005EB450000EBC50204F1380000EB82000B
:10245000417105EB450000EBC50104F1380000F8BF
:10246000217005EB450000EBC50104F1380000EBDD
:102470008100A0F808A005EB450000EBC50104F1C0
:10248000380000EB8100457005EB450000EBC5010D
:1024900004F1380000EB810080F8079006F07F011E
:1024A00005EB450000EBC50204F1380000EB8200AB
:1024B000817006F0800080280AD1012105EB4500DB
:1024C00000EBC50204F1380000EB8200C17009E0A6
:1024D000002105EB450000EBC50204F1380000EBDC
:1024E0008200C17005EB450000EBC50104F1380026
:1024F00000EB810080F804808DE800073B463246FF
:102500002946206809F0BAFD834600BF002084F800
:10251000F80200BF58468CE770472DE9F05F04468B
:102520000D4616461F46DDE90C9BDDE90A8A05EBE0
:10253000450000EBC50104F1380000EB8100C670D6
:1025400005EB450000EBC50104F1380000EB81000C
:10255000C771B8F1000F14D1032105EB450000EB62
:10256000C50204F1380000EB8200817205EB4500E2
:1025700000EBC50104F1380000EB810080F805B0E4
:1025800009E0022105EB450000EBC50204F138002B
:1025900000EB8200817237B1012F76D0022F33D049
:1025A000032F73D173E0B8F1010F2CD106BBB9F141
:1025B000000F09D1012105EB450000EBC50204F134
:1025C000380000EB8200417705EB450000EBC501C8
:1025D00004F1380000EB8100407F50B9002105EB89
:1025E000450000EBC50204F1380000EB8200817267
:1025F00009E0022105EB450000EBC50204F13800BB
:1026000000EB820081728FE0FEB905EB450000EB24
:10261000C50104F1380000EB8100407F50B9002172
:1026200005EB450000EBC50204F1380000EB820029
:10263000817229E0022105EB450000EBC50204F19F
:10264000380000EB820081721EE005EB450000EBD4
:10265000C50104F1380000EB8100007F50B9002172
:1026600005EB450000EBC50204F1380000EB8200E9
:10267000817209E0022105EB450000EBC50204F17F
:10268000380000EB820081724EE041E04BE0FEB981
:1026900005EB450000EBC50104F1380000EB8100BB
:1026A000407F50B9002105EB450000EBC50204F165
:1026B000380000EB8200817229E0022105EB450021
:1026C00000EBC50204F1380000EB820081721EE0CD
:1026D00005EB450000EBC50104F1380000EB81007B
:1026E000007F50B9002105EB450000EBC50204F165
:1026F000380000EB8200817209E0022105EB450001
:1027000000EBC50204F1380000EB820081720BE09F
:10271000002105EB450000EBC50204F1380000EB99
:102720008200817200E000BF00BF05EB450000EBB6
:10273000C50104F1380000EB8100C0F80CA005EBE6
:10274000450000EBC50104F1380000EB8100C0F842
:102750001490002105EB450000EBC50204F13800A0
:1027600000EB820080F8281005EB450000EBC50265
:1027700004F1380000EB8200816105EB450000EBBD
:10278000C50104F1380000EB81004570002105EB24
:10279000450000EBC50204F1380000EB820080F830
:1027A0002910227C05EB450303EBC50C04F138032B
:1027B00003EB8C01206809F03BFDBDE8F09F2DE99B
:1027C000F0410446D4F800804746206809F079FBC0
:1027D00001287DD1206809F0B1FE08B9BDE8F0817B
:1027E000206809F0ABFE00F40010B0F5001F03D123
:1027F0004FF4001021684861206809F09FFE00F442
:102800008010B0F5801F03D14FF48010216848611B
:10281000206809F093FE00F08060B0F1806F03D172
:102820004FF0806021684861206809F087FE00F061
:102830000200022801D121684861206809F07EFE6B
:1028400000F00050B0F1005F0FD14FF00050216850
:102850004861D7F8400400F0010030B92046FFF786
:1028600094FD0121206809F047FE206809F066FE0A
:1028700000F08070B0F1807F02D1204604F063FD4B
:10288000206809F05BFE00F00800082805D120460A
:1028900000F0F2F8082021684861206809F04EFE37
:1028A000C0F3001070B12068806920F0100021682A
:1028B0008861204604F0A2FD2068806940F0100085
:1028C00021688861206809F039FE00F0007000E09E
:1028D00029E0B0F1007F26D1206809F0A1FC06466E
:1028E000002519E005F00F0101208840304090B12B
:1028F00007F5A06000EB4510006800F40040B0F55B
:10290000004F04D1E9B2204603F0CAFD03E0E9B26A
:10291000204604F076F96D1CA068A842E2D84FF07A
:1029200000702168486100BF58E730B58BB004469D
:1029300014B901200BB030BD256894F8F90228B90C
:10294000002084F8F802204600F02AF8032084F8DA
:10295000F902E86B00F4807008B900212161206859
:1029600009F018FA282204F110016846FDF7E3FC8B
:1029700094E80F0009F09CF90121206809F031FE6C
:10298000282204F110016846FDF7D5FC94E80F00F9
:1029900009F036FD012084F8F9020020CAE70000A2
:1029A00010B5B6B00446142131A8FDF7DDFCBC21FA
:1029B00002A8FDF7D9FC23492068884240D14FF492
:1029C000802002908000239002A800F0FFFD08B153
:1029D000FDF714FF00F0AEFB00BF1B48006840F09D
:1029E0000100194908600846006800F001000190E4
:1029F00000BF00BF4FF4C050319002203290002041
:102A0000339034900A20359031A91048FFF798FB95
:102A100000BF0D480838006840F000600A490839D6
:102A200008600846006800F00060019000BF00BF29
:102A300000221146652000F0FBFA652000F0E4FA60
:102A400036B010BD00000840E044025800000258B3
:102A500010B50446D4F8000307F00AFC10BD10B509
:102A60000446D4F8000307F007FC10BD10B5044677
:102A7000206809F098FD10BD10B50446D4F8000395
:102A800007F09FFB10BD10B5044600BF94F8F80294
:102A9000012801D1022010BD012084F8F80200BFF6
:102AA000206809F0C6F90121206809F09DF900BFEE
:102AB000002084F8F80200BF00BFECE710B5044620
:102AC00000BF94F8F802012801D1022010BD0120B6
:102AD00084F8F80200BF206809F09EFD00BF0020C6
:102AE00084F8F80200BF00BFF0E700000348006868
:102AF0000349097808440149086070470000002034
:102B00000800002010B5032000F0D0FA01F0EAFC24
:102B100010490968C1F303210F4A515C01F01F01FC
:102B200020FA01F40B48006800F00F001146085C21
:102B300000F01F0024FA00F008490860084804600B
:102B4000002000F00FF808B1012010BD00F04AFA93
:102B50000020FAE7184402589005010810000020F0
:102B60000C00002070B504461148007808B9012017
:102B700070BD0F4800784FF47A71B1FBF0F00D4949
:102B80000968B1FBF0F5284602F0EEFC08B101201F
:102B9000EEE7102C07D200222146501E00F048FA22
:102BA0000548046001E00120E2E70020E0E70000C2
:102BB000080000200C00002004000020F0B50446AE
:102BC0000D461646294600BF94F8A000012801D101
:102BD0000220F0BD012084F8A00000BF022084F88C
:102BE000A100002236E003EB830000EBC30C04F1EC
:102BF000380000EB8C000069062813D108784FF0EC
:102C0000100C0CFB022C40EA0C60B1F800C00CF474
:102C10007F4C40EA0C00D1F800C00CF47F0C40EA75
:102C20000C070EE0087840EA0260B1F800C00CF42E
:102C30007F4C40EA0C00D1F800C00CF47F0C40EA55
:102C40000C07091D206884304FF0800C0CFB03003A
:102C50000764521CB242C6D3012084F8A10000BF11
:102C6000002084F8A00000BF00BFB2E770B50446A2
:102C70000E46154600BF94F8A000012801D102209D
:102C800070BD012084F8A00000BF022084F8A100DC
:102C900005EB850101EBC50204F1380101EB82006F
:102CA00034223146FDF747FB2A463146204604F0E0
:102CB00085FC01202168486284F8A10000BF002043
:102CC00084F8A00000BF00BFDAE710B5024600BFDD
:102CD00092F8A000012801D1022010BD012082F845
:102CE000A00000BF022082F8A10010688430CB0150
:102CF000C05840F0100310688430CC01035101200B
:102D00001368586282F8A10000BF002082F8A0007A
:102D100000BF00BFE1E7000070B504460CB9012018
:102D200070BD94F8A10028B9002084F8A0002046C6
:102D300000F07EF8022084F8A1002068806920F06D
:102D4000704021688861D4E901010843E1680843C3
:102D500021690843216889690843216888612068DE
:102D600080683249084021688860A08A050420688C
:102D70008068A16929430843216888602068C06889
:102D80002A4908402168C860A08B05042068C068F3
:102D9000216A294308432168C860206800692349E3
:102DA000084021680861A08C050420680069A16AB8
:102DB0002943084321680861206840691B4908408D
:102DC00021684861A08D050420684069216B294372
:102DD00008432168486194F83500050294F83600EC
:102DE00006042068C06A00F07F402168C86246EA95
:102DF000050094F8341008432168C96A0843216823
:102E0000C8622068406B40F0060021684863206873
:102E1000806940F00100216888610020C4F8A400A6
:102E2000012084F8A10000207AE7000000F800F0FB
:102E300010B5B6B00446142131A8FDF795FABC21AF
:102E400002A8FDF791FA6049206888427ED14004CB
:102E5000029020200B9096210C9102210D910E9151
:102E600006210F9100211091010111910021129171
:102E700002A800F0ABFB08B1FDF7C0FC00BF53484F
:102E8000006840F00800514908600846006800F0FA
:102E90000800019000BF00BF00BF081F006840F09D
:102EA0000400091F08600846006800F00400019053
:102EB00000BF00BF00BF0846006840F00100086086
:102EC0000846006800F00100019000BF00BF00BF8D
:102ED0000846006840F0020008600846006800F0FC
:102EE0000200019000BF00BF00BF0846006840F02C
:102EF000100008600846006800F01000019000BF54
:102F000000BF00BF0846006840F00800086008469F
:102F1000006800F00800019000BF00BFC1203190A0
:102F2000022032900020339034900E20359031A949
:102F30002748FFF705F978203190022032900020D1
:102F4000339034900E20359031A900E039E02148CB
:102F5000FFF7F6F8032031900220329000203390E2
:102F600034900920359031A91B48FFF7E9F84FF458
:102F700078403190022032900020339034900E201F
:102F8000359031A91548FFF7DBF84FF470603190A8
:102F9000022032900020339034900E20359031A9D9
:102FA0000D48FFF7CDF84FF4816031900220329048
:102FB0000020339034900E20359031A90848FFF757
:102FC000BFF836B010BD000000100050E4440258B5
:102FD000000802580000025800040258001002586D
:102FE000000C025808B500BF0648006840F0020017
:102FF000044908600846006800F00200009000BF25
:1030000000BF08BDF44402580146084600280DDB05
:1030100000BF00BF00F01F0301229A4043099B003C
:1030200003F1E023C3F8002100BF00BF00BF7047D9
:103030002DE9F05F80460D46164609F0E1FB074694
:1030400039462A46334601F00700C0F1070ABAF1B3
:10305000040F02D94FF0040A01E0C0F1070AD1467B
:1030600000F1040ABAF1070F02D24FF0000A01E0A2
:10307000A0F1030AD4464FF0010A0AFA09FAAAF1AC
:10308000010A0AEA020A0AFA0CFA4FF0010B0BFADB
:103090000CFBABF1010B0BEA030B4AEA0B042146D4
:1030A000404609F0B5FBBDE8F09F000000BF00F00E
:1030B0000702064B19684FF6FF031940044B0B43F8
:1030C00043EA0221014B196000BF70470CED00E09C
:1030D0000000FA0570B5044615480068C0F380008A
:1030E00048B91348006800F00700A04201D0012051
:1030F00070BD0020FCE70E48006820F00700204368
:103100000B490860FFF734F9054607E0FFF730F98F
:10311000401BB0F57A7F01D90120E9E7044808385F
:103120000068C0F340300028F0D00020E0E7000045
:103130000C4802580348006840F08070014908605C
:10314000704700000C48025810B501F081F905499C
:103150000968C1F30211044A515C01F01F01C84023
:1031600010BD0000204402589005010870B50146CA
:10317000844D2D6805F00303824D2D68C5F305309D
:10318000804D2D1D2D68C5F300147E4D14352D681E
:10319000C5F3CC0515FB04F501EE105AB8EE411A43
:1031A000F0EE410A00286FD023B1012B4ED0022B44
:1031B0006BD16BE0734D283D2D68C5F340153DB3D1
:1031C000704D283D2D68C5F3C1066F4D25FA06F2F6
:1031D00001EE102AF8EE411A01EE100AB8EE411A7B
:1031E00081EE812A9FED691AC0EE811A654D103576
:1031F0002D68C5F3080501EE105AB8EE411A31EEFC
:10320000811AF7EE001A31EE211A22EE010A1CE0B3
:1032100001EE100AB8EE411ADFED5D1A81EE812A47
:103220009FED5A1AC0EE811A564D10352D68C5F320
:10323000080501EE105AB8EE411A31EE811AF7EE88
:10324000001A31EE211A22EE010A5BE001EE100AAB
:10325000B8EE411ADFED4F1A81EE812A9FED4B1A2D
:10326000C0EE811A474D10352D68C5F3080501EEF3
:10327000105AB8EE411A31EE811AF7EE001A31EE0B
:10328000211A22EE010A3DE077E01DE001EE100A6E
:10329000B8EE411A9FED402AC2EE011A9FED3B1A8B
:1032A00080EE812A374D10352D68C5F3080501EEF3
:1032B000105AB8EE411A32EE011AB7EE002A31EE7A
:1032C000021A21EE810A1DE001EE100AB8EE411A41
:1032D000DFED301A81EE812A9FED2C1AC0EE811AA3
:1032E000284D10352D68C5F3080501EE105AB8EECB
:1032F000411A31EE811AF7EE001A31EE211A22EE50
:10330000010A00BF00BF1F4D10352D68C5F34625CB
:1033100001EE105AB8EE411AF7EE001A31EE211AFA
:10332000C0EE011ABCEEE11A81ED001A154D103500
:103330002D68C5F3064501EE105AB8EE411AF7EEB6
:10334000001A31EE211AC0EE011ABCEEE11A81ED2D
:10335000011A0C4D10352D68C5F3066501EE105AA3
:10336000B8EE411AF7EE001A31EE211AC0EE011A3A
:10337000BCEEE11A81ED021A03E000250D604D60FC
:103380008D6070BD284402580090D00300000046B4
:103390000024744C0024744A0024F44B70B5014698
:1033A000844D2D6805F00303824D2D68C5F305504B
:1033B000804D2D1D2D68C5F300247E4D1C352D68D4
:1033C000C5F3CC0515FB04F501EE105AB8EE411A11
:1033D000F0EE410A00286FD023B1012B4ED0022B12
:1033E0006BD16BE0734D283D2D68C5F340153DB39F
:1033F000704D283D2D68C5F3C1066F4D25FA06F2C4
:1034000001EE102AF8EE411A01EE100AB8EE411A48
:1034100081EE812A9FED691AC0EE811A654D18353B
:103420002D68C5F3080501EE105AB8EE411A31EEC9
:10343000811AF7EE001A31EE211A22EE010A1CE081
:1034400001EE100AB8EE411ADFED5D1A81EE812A15
:103450009FED5A1AC0EE811A564D18352D68C5F3E6
:10346000080501EE105AB8EE411A31EE811AF7EE56
:10347000001A31EE211A22EE010A5BE001EE100A79
:10348000B8EE411ADFED4F1A81EE812A9FED4B1AFB
:10349000C0EE811A474D18352D68C5F3080501EEB9
:1034A000105AB8EE411A31EE811AF7EE001A31EED9
:1034B000211A22EE010A3DE077E01DE001EE100A3C
:1034C000B8EE411A9FED402AC2EE011A9FED3B1A59
:1034D00080EE812A374D18352D68C5F3080501EEB9
:1034E000105AB8EE411A32EE011AB7EE002A31EE48
:1034F000021A21EE810A1DE001EE100AB8EE411A0F
:10350000DFED301A81EE812A9FED2C1AC0EE811A70
:10351000284D18352D68C5F3080501EE105AB8EE90
:10352000411A31EE811AF7EE001A31EE211A22EE1D
:10353000010A00BF00BF1F4D18352D68C5F3462591
:1035400001EE105AB8EE411AF7EE001A31EE211AC8
:10355000C0EE011ABCEEE11A81ED001A154D1835C6
:103560002D68C5F3064501EE105AB8EE411AF7EE84
:10357000001A31EE211AC0EE011ABCEEE11A81EDFB
:10358000011A0C4D18352D68C5F3066501EE105A69
:10359000B8EE411AF7EE001A31EE211AC0EE011A08
:1035A000BCEEE11A81ED021A03E000250D604D60CA
:1035B0008D6070BD284402580090D0030000004682
:1035C0000024744C0024744A0024F44B2DE9F0418B
:1035D00004460025A846206800F00060B0F1006FA6
:1035E00030D1606E48B1B0F5801F0DD0B0F5001F2E
:1035F00010D0B0F5401F15D113E0F948006840F431
:103600000030F74908600FE00221201D04F04AFA5B
:10361000054609E0022104F1240004F0F5FA05460C
:1036200002E001E0012500BF00BF55B9EC4824309D
:10363000006820F44010616E0843E94924310860B5
:1036400000E0A846208800F48070B0F5807F2DD17E
:10365000606D05281AD2DFE800F0030A1017180081
:10366000DF48006840F40030DD49086010E00021C8
:10367000201D04F017FA05460AE0002104F1240099
:1036800004F0C2FA054603E002E001E0012500BFB4
:1036900000BF55B9D2482430006820F00700616DA2
:1036A0000843CF492431086000E0A846208800F490
:1036B0000070B0F5007F33D1A06D802817D003DCF7
:1036C00040B140281CD10CE0C02817D0B0F5807F55
:1036D00016D114E0C248006840F40030C0490860C8
:1036E00010E00021201D04F0DDF905460AE000216C
:1036F00004F1240004F088FA054603E002E001E04A
:10370000012500BF00BF55B9B5482430006820F43A
:10371000E070A16D0843B2492431086000E0A8467A
:10372000208800F48060B0F5806F38D1D4F8A40010
:10373000B0F5800F19D004DC50B1B0F5001F1DD1D9
:103740000DE0B0F5C00F17D0B0F5000F16D114E0A2
:10375000A348006840F40030A149086010E000214F
:10376000201D04F09FF905460AE0002104F1240021
:1037700004F04AFA054603E002E001E0012500BF3B
:1037800000BF5DB996482C30006820F46000D4F882
:10379000A410084392492C31086000E0A846208814
:1037A00000F40060B0F5006F38D1D4F8A800B0F193
:1037B000007F19D004DC50B1B0F1807F1DD10DE045
:1037C000B0F1407F17D0B0F1806F16D114E084487B
:1037D000006840F400308249086010E00021201D9C
:1037E00004F060F905460AE0002104F1240004F029
:1037F0000BFA054603E002E001E0012500BF00BF2F
:103800005DB977482C30006820F0E060D4F8A8104B
:10381000084373492C31086000E0A846206800F096
:103820000070B0F1007F27D1A06CA0B1102804D0A7
:10383000202809D030280FD10CE06948006840F4F6
:1038400000306749086009E00221201D04F02AF9D0
:10385000054603E002E001E0012500BF00BF55B9C5
:103860005F482030006820F03000A16C08435C49BC
:103870002031086000E0A846208800F48050B0F5B0
:10388000805F36D1E06DB0F5005F19D004DC50B137
:10389000B0F5805F1DD10DE0B0F5405F17D0B0F5F9
:1038A000804F16D114E04E48006840F400304C4977
:1038B000086010E00021201D04F0F4F805460AE03D
:1038C000002104F1240004F09FF9054603E002E022
:1038D00001E0012500BF00BF55B941482430006810
:1038E00020F4E040E16D08433D492431086000E0E8
:1038F000A846208800F40050B0F5005F34D1206E57
:10390000B0F5403F1DD007DC68B1B0F5803F0BD06B
:10391000B0F5003F18D10DE0B0F5802F12D0B0F512
:10392000A02F11D10FE011E00121201D04F0BAF801
:1039300005460BE0012104F1240004F065F9054679
:1039400004E003E002E001E0012500BF00BF55B93B
:1039500023482430006820F4E020216E08432049E9
:103960002431086000E0A846208800F48040B0F5CB
:10397000804F38D1D4F8AC00B0F1405F1DD007DCE7
:1039800068B1B0F1805F0BD0B0F1005F18D10DE0ED
:10399000B0F1804F12D0B0F1A04F11D10FE011E083
:1039A0000121201D04F07EF805460BE0012104F101
:1039B000240004F029F9054604E003E002E001E0F8
:1039C000012500BF00BF6DB905482C30006820F00C
:1039D000E040D4F8AC10084301492C31086002E003
:1039E0002C440258A846208800F40040B0F5004F4F
:1039F00026D1E06E98B1B0F1805F03D0B0F1005FE6
:103A00000ED106E0F948006840F40030F74908603C
:103A100008E00121201D04F045F8054602E001E020
:103A2000012500BF00BF55B9F0482430006820F0E0
:103A30004050E16E0843ED492431086000E0A8469B
:103A4000206800F08070B0F1807F27D1606CA0B159
:103A5000012804D0022809D003280FD10CE0E34844
:103A6000006840F40030E149086009E00221201DAF
:103A700004F018F8054603E002E001E0012500BF6C
:103A800000BF55B9D9482030006820F00300616CB0
:103A90000843D6492031086000E0A846206800F4B9
:103AA0008000B0F5800F7DD1D148006840F480706F
:103AB000CF490860FEF75CFC064606E0FEF758FCBE
:103AC000801B642801D9032505E0C948006800F47B
:103AD00080700028F2D000BF85BBC4484430006825
:103AE00000F44070B4F8B01001F44071884213D073
:103AF000BE484430006820F44077BC484430006839
:103B000040F48030B949443108600846006820F428
:103B10008030086008460760D4F8B000B0F5807FB8
:103B200015D1FEF725FC064609E0FEF721FC801BB7
:103B300041F28831884202D9032507E038E0AB48DA
:103B400044300068C0F340000028EED000BF55BBF1
:103B500000BFB4F8B00000F44070B0F5407F0ED163
:103B6000A2481C38006820F47C51A24AD4F8B00066
:103B7000104041EA10109D491C39086007E09B483D
:103B80001C38006820F47C5098491C39086097481C
:103B900044300068B4F8B010C1F30B0108439349F6
:103BA000443101E005E001E0086002E0A84600E0E1
:103BB000A846207800F0010068B3A06F182819D03B
:103BC00005DC48B1082808D0102816D10BE02028C1
:103BD00011D0282811D10FE011E00121201D03F0A0
:103BE00061FF05460BE0012104F1240004F00CF80C
:103BF000054604E003E002E001E0012500BF00BF4C
:103C000055B97A482830006820F03800A16F084381
:103C100076492831086000E0A846207800F00200CC
:103C2000022828D1606F062815D2DFE800F00304CF
:103C30000A11121311E00121201D03F033FF054684
:103C40000BE0012104F1240003F0DEFF054604E04F
:103C500003E002E001E0012500BF00BF55B9634861
:103C60002830006820F00700616F08435F49283161
:103C7000086000E0A846207800F0040004282AD15B
:103C8000D4F89000062815D2DFE800F003040A11EA
:103C9000121311E00121201D03F004FF05460BE083
:103CA000012104F1240003F0AFFF054604E003E026
:103CB00002E001E0012500BF00BF5DB94B482C3098
:103CC000006820F00700D4F89010084347492C31D1
:103CD000086000E0A846207800F02000202836D1B7
:103CE000D4F88C00B0F1405F1DD007DC68B1B0F1B2
:103CF000805F0BD0B0F1005F18D10DE0B0F1804FC4
:103D000012D0B0F1A04F11D10FE011E00021201D21
:103D100003F0C8FE05460BE0022104F1240003F085
:103D200073FF054604E003E002E001E0012500BF67
:103D300000BF5DB92D482830006820F0E040D4F87D
:103D40008C10084329492831086000E0A8462078F3
:103D500000F04000402836D1D4F89800B0F5406F0C
:103D60001DD007DC68B1B0F5806F0BD0B0F5006FE7
:103D700018D10DE0B0F5805F12D0B0F5A05F11D181
:103D80000FE011E00021201D03F08CFE05460BE042
:103D9000022104F1240003F037FF054604E003E0AC
:103DA00002E001E0012500BF00BF5DB90F482C30E3
:103DB000006820F4E050D4F8981008430B492C31E7
:103DC000086000E0A846207800F0800080283AD102
:103DD000D4F89C00B0F5C04F23D00DDC98B1B0F5FD
:103DE000005F11D0B0F5804F1ED113E02C44025873
:103DF00000480258FFFCFF0FB0F5004F12D0B0F59D
:103E0000204F11D10FE011E00021201D03F04AFEE8
:103E100005460BE0022104F1240003F0F5FE0546FF
:103E200004E003E002E001E0012500BF00BF4DB95E
:103E3000BE48006820F46040D4F89C100843BB4999
:103E4000086000E0A846207800F00800082817D194
:103E5000D4F88000B0F5805F07D1022104F124007E
:103E600003F0D2FE08B14FF00108B048001F00680F
:103E700020F44050D4F880100843AC49091F086072
:103E8000207800F01000102815D1D4F89400B0F577
:103E9000807F07D1022104F1240003F0B5FE08B1B0
:103EA0004FF00108A148006820F44070D4F8941045
:103EB00008439E490860206800F40020B0F5002FF8
:103EC00026D1D4F8A00030B1B0F5803F09D0B0F5CC
:103ED000003F0ED10CE00021201D03F0E3FD05465C
:103EE00009E0022104F1240003F08EFE054602E001
:103EF00001E0012500BF00BF4DB98C48006820F4E7
:103F00004030D4F8A01008438849086000E0A84673
:103F1000206800F48020B0F5802F2DD1D4F88400E3
:103F2000B0F5801F06D0B0F5001F0CD0B0F5401FD3
:103F300011D10FE07D482C38006840F400307B49F7
:103F40002C39086009E0012104F1240003F05CFE33
:103F5000054602E001E0012500BF00BF5DB97348DE
:103F6000001F006820F44010D4F8841008436F4903
:103F7000091F086000E0A846206800F48030B0F512
:103F8000803F24D1E06C18B1B0F5803F0FD108E03C
:103F900066482C38006840F4003064492C390860C9
:103FA00007E00221201D03F07DFD054601E001250B
:103FB00000BF00BF55B95D480C38006820F4803060
:103FC000E16C084359490C39086000E0A8462068B4
:103FD00000F00050B0F1005F07D1022104F124008D
:103FE00003F012FE08B14FF00108206800F4003021
:103FF000B0F5003F27D1E06FA0B1B0F5807F06D0CB
:10400000B0F5007F0CD0B0F5407F0CD109E04748F7
:104010002C38006840F4003044492C39086004E032
:1040200003E002E001E0012500BF00BF55B93F48B1
:10403000001F006820F44070E16F08433B49091FEE
:10404000086000E0A846206800F48010B0F5801FEA
:1040500009D136480838006820F00040216F084335
:10406000324908390860206800F08050B0F1805F64
:104070000AD12E484838006820F48040D4F8B410A3
:1040800008432A4948390860206800F40010B0F558
:10409000001F09D125480838006820F08070A16E03
:1040A0000843224908390860206800F08040B0F1D8
:1040B000804F11D100BF1D484838006820F40040EF
:1040C0001A494839086008460068D4F8B81008430F
:1040D00016494839086000BF206800F00040B0F180
:1040E000004F09D111480C38006820F04050216D74
:1040F00008430E490C390860206800F40000B0F550
:10410000000F0AD10948001F006820F44000D4F8CD
:10411000881008430549091F0860B8F1000F02D153
:104120000020BDE8F0810120FBE700005844025860
:104130002DE9F04104460D4614B90120BDE8F08197
:10414000BD48006800F00F00A8420ED2BA480068CF
:1041500020F00F002843B84908600846006800F0C6
:104160000F00A84201D00120E8E7207800F0040009
:1041700004280ED1B1492069096801F07001884214
:1041800007D9AE48006820F0700021690843AB49A8
:104190000860207800F00800082811D1A749091DFF
:1041A0006069096801F07001884209D9A348001DBF
:1041B000006820F0700061690843A049091D08608B
:1041C000207800F01000102811D19C49091DA06929
:1041D000096801F4E061884209D99848001D006827
:1041E00020F4E060A16908439449091D0860207823
:1041F00000F02000202811D190490831E0690968B9
:1042000001F07001884209D98C480830006820F01C
:104210007000E1690843894908310860207800F09E
:10422000020002280ED18549E068096801F00F01FB
:10423000884207D98148006820F00F00E1680843F0
:104240007E490860207800F00100002850D07B48AB
:10425000006820F47060A1680843784908606068CD
:10426000022807D1754818380068C0F34040F8B9F3
:10427000012063E76068032807D170481838006898
:10428000C0F34060A0B9012058E76068012807D159
:104290006A4818380068C0F3002048B901204DE78B
:1042A000664818380068C0F3800008B9012045E767
:1042B00062480838006820F00700616808435F49D9
:1042C00008390860FEF754F8064608E0FEF750F893
:1042D000801B41F28831884201D903202EE75748DC
:1042E0000838006800F038006168B0EBC10FEDD10C
:1042F000207800F0020002280ED15049E0680968D9
:1043000001F00F01884207D24C48006820F00F00EE
:10431000E1680843494908604748006800F00F0019
:10432000A8420ED94448006820F00F0028434249B3
:1043300008600846006800F00F00A84201D0012084
:10434000FCE6207800F0040004280ED13B492069E7
:10435000096801F07001884207D23848006820F0EF
:1043600070002169084335490860207800F0080092
:10437000082811D13149091D6069096801F07001EF
:10438000884209D22D48001D006820F07000616944
:1043900008432A49091D0860207800F01000102801
:1043A00011D12649091DA069096801F4E06188421C
:1043B00009D22248001D006820F4E060A16908438A
:1043C0001E49091D0860207800F02000202811D126
:1043D0001A490831E069096801F07001884209D280
:1043E00016480830006820F07000E169084313495E
:1043F0000831086000F076F810490968C1F303211C
:104400000F4A515C01F01F0120FA01F70B480068C8
:1044100000F00F001146085C00F01F0027FA00F0C2
:10442000084908600848076008480068FEF79AFBDA
:104430008046404682E600000020005218440258A0
:1044400090050108100000200C000020040000204E
:1044500010B500F047F80D490968C1F303210C4A73
:10446000515C01F01F0120FA01F40848006800F0D7
:104470000F001146085C00F01F0024FA00F0054907
:104480000860054804600846006810BD18440258DA
:1044900090050108100000200C00002000B5FFF777
:1044A000D7FF05490968C1F30211044A515C01F0C4
:1044B0001F01C84000BD00001C44025890050108BF
:1044C00000B5FFF7C5FF05490968C1F30221044A99
:1044D000515C01F01F01C84000BD00001C4402589F
:1044E00090050108F0B5824E366806F0380636B100
:1044F000082E15D0102E15D0182E7DD114E07C4E2C
:10450000103E3668C6F3401646B1794E103E366806
:10451000C6F3C107774E26FA07F000E07548E5E0DC
:104520007548E3E07548E1E0714E1836366806F0EC
:1045300003046F4E18363668C6F305116C4E1C36F0
:10454000366806F001056A4E24363668C6F3CC0696
:1045500016FB05F601EE106AB8EE410A002971D08B
:1045600024B1012C50D0022C6DD16DE0604E103E74
:104570003668C6F340163EB35D4E103E3668C6F34D
:10458000C1075C4E26FA07F301EE103AF8EE411A25
:1045900001EE101AB8EE411A81EE812A9FED581AE9
:1045A000C0EE011A524E20363668C6F3080601EEF8
:1045B000106AB8EE411A31EE811AF7EE001A31EEA8
:1045C000211A62EE010A1EE001EE101AB8EE411A3D
:1045D000DFED4C1A81EE812A9FED491AC0EE011AD7
:1045E000434E20363668C6F3080601EE106AB8EE70
:1045F000411A31EE811A00E076E0F7EE001A31EE52
:10460000211A62EE010A5BE001EE101AB8EE411ABF
:104610009FED3D2AC2EE011A9FED391A80EE012A64
:10462000334E20363668C6F3080601EE106AB8EE3F
:10463000411A32EE011AB7EE002A31EE021A61EE8B
:10464000810A3DE04EE01DE001EE101AB8EE411A7D
:10465000DFED2E1A81EE812A9FED291AC0EE011A94
:10466000234E20363668C6F3080601EE106AB8EE0F
:10467000411A31EE811AF7EE001A31EE211A62EE7C
:10468000010A1DE001EE101AB8EE411A9FED1E2A34
:10469000C2EE011A9FED1A1A80EE012A144E20363E
:1046A0003668C6F3080601EE106AB8EE411A32EE1B
:1046B000011AB7EE002A31EE021A61EE810A00BF3C
:1046C00000BF0B4E20363668C6F34626721C01EE3C
:1046D000102AB8EE411AC0EE811ABCEEE11A11EEB2
:1046E000100A00E0002001E0034800BF00BFF0BD59
:1046F000104402580090D00300093D000048E80132
:10470000000000460024744C0024744A0024F44B3A
:104710002DE9F047044614B90120BDE8F087207860
:1047200000F00100002870D0FE48006800F0380852
:10473000FC481830D0F80090B8F1100F06D0B8F14E
:10474000180F0FD109F0030002280BD1F5481038DB
:104750000068C0F3404000286AD06068002867D134
:104760000120DAE700BF6068B0F5803F08D1ED486E
:104770001038006840F48030EA49103908602EE0B3
:10478000606868B9E7481038006820F48030E5496F
:10479000103908600846006820F4802008601EE098
:1047A0006068B0F5A02F0DD1DE481038006840F4E5
:1047B0008020DC49103908600846006840F48030E9
:1047C00008600CE0D7481038006820F48030D549E4
:1047D000103908600846006820F48020086000BF97
:1047E000606898B1FDF7C4FD054606E0FDF7C0FD21
:1047F000401B642801D903208FE7CA48103800689D
:10480000C0F340400028F1D012E012E0FDF7B0FD07
:10481000054606E0FDF7ACFD401B642801D90320E6
:104820007BE7C04810380068C0F340400028F1D151
:1048300000BF207800F0020002287BD1B948006850
:1048400000F03808B7481830D0F80090B8F1000FE1
:1048500005D0B8F1180F3AD109F00300B0BBB14848
:1048600010380068C0F3800018B1E06808B9012072
:1048700053E700BFFDF776FD41F20301884219D8E6
:10488000206940280AD1A7480C38006820F47C3001
:1048900040F40030A3490C39086016E0A1480C38F8
:1048A000006820F47C30216940EA01309D490C39D0
:1048B00008600AE09B480C38006820F0FE40217C2C
:1048C00040EA016097490C39086067E0FFE7E0685B
:1048D00088B394481038006820F01900E168084354
:1048E000904910390860FDF743FD054606E0FDF7E5
:1048F0003FFD401B022801D903200EE789481038EC
:104900000068C0F380000028F1D000BFFDF72AFD49
:1049100041F2030188421BD8206940280CD181480C
:104920000C38006820F47C3040F400307D490C39AC
:10493000086018E033E017E07A480C38006820F48B
:104940007C30216940EA013076490C3908600AE080
:1049500074480C38006820F0FE40217C40EA016079
:1049600070490C39086019E06E481038006820F072
:1049700001006C4910390860FDF7FAFC054606E0B5
:10498000FDF7F6FC401B022801D90320C5E6654867
:1049900010380068C0F380000028F1D100BF2078F3
:1049A00000F0100010287CD15E48006800F0380844
:1049B0005C481830D0F80090B8F1080F06D0B8F174
:1049C000180F3DD109F00300012839D1554810389E
:1049D0000068C0F3002020B1E069802801D00120E8
:1049E0009BE600BFFDF7BEFC41F2030188421AD8E6
:1049F000206A20280AD14B480C38006820F0F84083
:104A000040F0804047490C39086018E045480C38B0
:104A1000006820F0F84094F8201040EA8160414995
:104A20000C3908600BE03F48001F006820F07C5004
:104A300094F8201040EA01603A49091F086066E0D6
:104A4000E06978B337481038006840F08000354995
:104A500010390860FDF78CFC054606E0FDF788FC80
:104A6000401B022801D9032057E62E481038006861
:104A7000C0F300200028F1D000BFFDF773FC41F225
:104A8000030188421CD8206A20280CD125480C3804
:104A9000006820F0F84040F0804022490C3908605E
:104AA0001AE035E019E01F480C38006820F0F840A3
:104AB00094F8201040EA81601A490C3908600BE034
:104AC0001848001F006820F07C5094F8201040EA3D
:104AD00001601449091F086019E012481038006885
:104AE00020F080000F4910390860FDF741FC0546B1
:104AF00006E0FDF73DFC401B022801D903200CE62F
:104B0000084810380068C0F300200028F1D100BF29
:104B1000207800F00800082834D16069D8B1014835
:104B2000643001E010440258006840F00100EF4991
:104B30000860FDF71DFC054606E0FDF719FC401B6B
:104B4000022801D90320E8E5E8480068C0F34000E6
:104B50000028F2D016E0E548006820F00100E349A3
:104B60000860FDF705FC054606E0FDF701FC401B6B
:104B7000022801D90320D0E5DC480068C0F34000DA
:104B80000028F2D1207800F02000202836D1A0693A
:104B9000D0B1D6487438006840F48050D349743995
:104BA0000860FDF7E5FB054606E0FDF7E1FB401B6D
:104BB000022801D90320B0E5CC4874380068C0F35E
:104BC00040300028F1D019E0C8487438006820F45B
:104BD0008050C64974390860FDF7CAFB054606E0F7
:104BE000FDF7C6FB401B022801D9032095E5BF480D
:104BF00074380068C0F340300028F1D1207800F00C
:104C0000040004287DD1BA48006840F48070B84997
:104C10000860FDF7ADFB054606E0FDF7A9FB401B6C
:104C2000642801D9032078E5B148006800F4807059
:104C30000028F2D000BFA068012808D1AB48001FAF
:104C4000006840F00100A949091F08602DE0A06834
:104C500068B9A648001F006820F00100A349091F99
:104C600008600846006820F0040008601DE0A068A5
:104C700005280DD19D48001F006840F004009B49A5
:104C8000091F08600846006840F0010008600CE059
:104C90009648001F006820F001009449091F086031
:104CA0000846006820F00400086000BFA068A0B1BA
:104CB000FDF75EFB054608E0FDF75AFB401B41F29D
:104CC0008831884201D9032027E58848001F006801
:104CD000C0F340000028EFD013E0FDF749FB054684
:104CE00008E0FDF745FB401B41F28831884201D9BD
:104CF000032012E57D48001F0068C0F34000002833
:104D0000EFD1606A00287DD078486438006800F0F0
:104D10003800182877D0606A022875D17348743833
:104D2000006820F08070714974390860FDF720FB3D
:104D3000054606E0FDF71CFB401B022801D90320B5
:104D4000EBE46A4874380068C0F340600028F1D191
:104D500000BFD4E90A1041EA001064494C390968DF
:104D600040F2F3329143084360494C390860208E89
:104D7000401EC0F30800616B491E4FF47E4202EAF8
:104D800041210843218F491ED20102EA0141084313
:104D90003C21095D491E120202EA016108435349A0
:104DA0004439086000BF081F006820F00100091F97
:104DB00008604E48403800684FF6F8718843A16C8F
:104DC00040EAC1004949403908604848483800680D
:104DD00020F00C00216C084344494839086008461B
:104DE000006820F00200616C0843404948390860BF
:104DF0000846006840F4803008600846006840F4C7
:104E0000003002E06FE041E025E0086008460068FD
:104E100040F4802008600846006840F00100086007
:104E200032487438006840F0807030497439086046
:104E3000FDF79EFA054606E0FDF79AFA401B0228A8
:104E400001D9032069E4294874380068C0F3406040
:104E50000028F1D047E025487438006820F08070C1
:104E6000224974390860FDF783FA054606E0FDF72C
:104E70007FFA401B022801D903204EE41B487438F6
:104E80000068C0F340600028F1D12CE017484C388E
:104E90000768164844380668606A012821D007F080
:104EA0000301A06A81421CD1C7F30511E06A884260
:104EB00017D1C6F30801206B401E814211D1606BEF
:104EC000401EC6F3462188420BD1A06B401EC6F39C
:104ED0000641884205D1E06B401EC6F30661884258
:104EE00001D0012019E4002017E4000074440258A6
:104EF0000048025810B504460CB9012010BD02202C
:104F000084F881002068006820F0010021680860B2
:104F1000204600F0C9F80020C4F8840084F881001D
:104F200000BF84F8800000BF00BFE7E770B504460B
:104F300000260CB9012070BD606A00B900BF0021D5
:104F4000A1625649206888420CD0554920688842A1
:104F500008D054492068884204D0E0680F2801D95D
:104F60000120E8E7204602F086FF05464B4920680D
:104F7000884209D04A492068884205D049492068BA
:104F8000884201D0082D0DD844492068884207D0B6
:104F900043492068884203D042492068884203D1AF
:104FA000102D01D90120C6E794F8810028B900200E
:104FB00084F88000204600F079F8022084F881000F
:104FC0002068006820F0010021680860A069B0F145
:104FD000806F11D16068B0F5800F01D1A06B28B14E
:104FE000606848B9A06BB0F1805F05D120680068A7
:104FF00040F4805021680860A16AE06908433043AA
:10500000E16B0843E168084321688860616A606B6E
:105010000843A16B0843A1690843216908436169FA
:105020000843216A084361680843E16C0843A168AA
:105030000843A16C0843A16D08432168C8606068FB
:1050400078B92068806820F4C05040F4006021687E
:1050500088602068806820F4C06040F48060216827
:1050600088602068006D20F0010021680865606894
:1050700000F48000B0F5800F07D12068C06820F0F0
:105080000040616D08432168C8600020C4F88400B6
:10509000012084F8810000204DE70000003001402D
:1050A00000380040003C00407047000010B586B05A
:1050B000044600BF2B48006840F002002949086000
:1050C0000846006800F00200009000BF00BF00BF6B
:1050D0000846006840F0020008600846006800F0DA
:1050E0000200009000BF00BF00BF0846006840F00B
:1050F000020008600846006800F00200009000BF4F
:1051000000BF00BF17481030006840F480501549B8
:10511000103108600846006800F48050009000BF1D
:1051200000BF08200190022002900020039002207E
:1051300004900520059001A90B48FDF701F8102007
:1051400001900520059001A90748FCF7F9FF802090
:1051500001900520059001A90448FCF7F1FF06B075
:1051600010BD0000E044025800040258000002583C
:105170002DE9FF4F83B004468A461F46109E00204B
:10518000029000BF94F88000012803D1022007B0EC
:10519000BDE8F08F012084F8800000BFFDF7E8F83B
:1051A00081463D46A84694F881B060680190BBF105
:1051B000010F11D00198B0F5800F04D1A06810B98B
:1051C000BBF1040F08D00220029000BF002084F839
:1051D000800000BF0298DAE7BAF1000F02D005980C
:1051E00000B147B90120029000BF002084F8800080
:1051F00000BF0298CBE794F88100042802D0052074
:1052000084F881000020C4F8840005986066A4F842
:105210006A70A4F86870C4F85CA0A4F86270A4F87E
:105220006070002020676067206840686FF30F009F
:105230003843216848602068006840F00100216818
:1052400008606068B0F5800F05D12068006840F400
:10525000007021680860E0680F284DD946E020689A
:10526000406900F0020002280ED16DB1E06D0068C7
:1052700021680862E06D001DE065B4F86200401E20
:10528000A4F86200B4F862502068406948F208014E
:10529000084080B1B8F1000F0DD02068006B616E3E
:1052A0000860606E001D6066B4F86A00401EA4F8D5
:1052B0006A00B4F86A80FDF75BF8A0EB0900B04221
:1052C00001D3701C00B98EB9204602F069FD00BF01
:1052D000002084F8800000BFD4F8840040F480707F
:1052E000C4F88400012084F8810050E7002DB6D175
:1052F000B8F1000FB3D117E1E068072874D96CE06A
:105300002068406900F00200022821D105B3012D78
:1053100010D9E06B70B1E06D006821680862E06D43
:10532000001DE065B4F86200801EA4F86200B4F8C5
:1053300062500DE0E06D008821680884E06D801CFB
:10534000E065B4F86200401EA4F86200B4F8625050
:105350002068406900F4604020B3B8F1000F21D00C
:105360002068406900F4004070B12068006B616EF5
:105370000860606E001D6066B4F86A00801EA4F8C4
:105380006A00B4F86A800DE02068008E616E0880C3
:10539000606E801C6066B4F86A00401EA4F86A0063
:1053A000B4F86A80FCF7E4FFA0EB0900B04201D337
:1053B000701C00B98EB9204602F0F2FC00BF00203C
:1053C00084F8800000BFD4F8840040F48070C4F8F2
:1053D0008400012084F88100D9E6002D90D1B8F135
:1053E000000F8DD1A0E0FFE798E02068406900F051
:1053F0000200022836D12DB3032D11D9E06B4028CD
:105400000ED9E06D006821680862E06D001DE0655E
:10541000B4F86200001FA4F86200B4F8625021E002
:10542000012D10D9E06B70B1E06D0088216808840F
:10543000E06D801CE065B4F86200801EA4F8620094
:10544000B4F862500EE0E06D0078216881F8200029
:10545000E06D401CE065B4F86200401EA4F86200F4
:10546000B4F862502068406900F4604058B3B8F165
:10547000000F38D02068406900F4004070B1206807
:10548000006B616E0860606E001D6066B4F86A00B3
:10549000001FA4F86A00B4F86A8024E0206840691C
:1054A00000F4C040B0F5005F0ED92068008E616E38
:1054B0000880606E801C6066B4F86A00801EA4F8E4
:1054C0006A00B4F86A800EE0206890F83000616EDF
:1054D0000870606E401C6066B4F86A00401EA4F854
:1054E0006A00B4F86A80FCF743FFA0EB0900B04201
:1054F00001D3701C00B98EB9204602F051FC00BFE8
:10550000002084F8800000BFD4F8840040F480704C
:10551000C4F88400012084F8810038E6002D7FF46F
:1055200064AFB8F1000FFAD14B46002208212046A3
:10553000009602F0FBFC28B1D4F8840040F0200073
:10554000C4F88400204602F02BFC00BF002084F841
:10555000800000BF012084F88100D4F8840008B1E5
:10556000012014E6029812E670B504462546681E2E
:10557000B0F1807F01D301200FE0681E4FF0E021E1
:1055800048610F214FF0FF3007F042F900204FF043
:10559000E021886107200861002070BD30B5024617
:1055A0000B4600BF92F83C00012801D1022030BD1B
:1055B000012082F83C0000BF022082F83D00106804
:1055C0004168106884681F4D1068A84203D01E4DC2
:1055D0001068A84203D121F470015868014321F0FA
:1055E00070011868014310684160164D1068A842A8
:1055F00017D01068B0F1804F13D0144D1068A84236
:105600000FD0134D1068A8420BD0124D1068A8425D
:1056100007D00D4D1068A84203D00F4D1068A84266
:1056200005D124F080049868044310688460012048
:1056300082F83D0000BF002082F83C0000BF00BFA0
:10564000B5E70000000001400004014000040040F4
:1056500000080040000C00400018004010B504464F
:105660000CB9012010BD94F83D0028B9002084F841
:105670003C00204600F02AF8022084F83D00211D5D
:10568000206802F0EBFE012084F8480000BF84F897
:105690003E0001213F200155402001554120015588
:1056A000422001554320015500BF00BF012084F86E
:1056B000440045200155462001554720015500BFB3
:1056C000012084F83D000020CCE7000008B51B4A0B
:1056D000016891420DD100BF1949096841F00201EA
:1056E000174A11601146096801F00201009100BFDC
:1056F00023E00168B1F1804F0DD100BF1049096866
:1057000041F001010E4A11601146096801F00101E2
:10571000009100BF11E00B4A016891420DD100BF1A
:105720000749096841F00801054A116011460968F6
:1057300001F00801009100BF00BF08BD0004004057
:10574000E8440258000C00402DE9F04104460D46A3
:1057500000BF94F83C00012802D10220BDE8F0818E
:10576000012084F83C0000BF022084F83D0020683E
:1057700086684048064026F47F4620688660286890
:10578000702826D00CDC00F00F01002966D1001132
:10579000072863D2DFE800F0555657584B374100D1
:1057A000B0F1101F52D009DCB0F5805F10D0B0F519
:1057B000005F1BD0B0F5801F50D146E0A0F58010EF
:1057C0002038002843D0102842D0202846D140E07D
:1057D00045E0D5E902136A68206802F0B6FE206849
:1057E000866846F077062068866038E0D5E90213BF
:1057F0006A68206802F0A9FE2068806840F4804052
:10580000216888602BE0EA686968206803F0BEF8C8
:105810005021206802F0A4FE21E0EA68696820684F
:1058200003F0C7F86021206802F09AFE17E0EA68EA
:105830006968206803F0AAF84021206802F090FE11
:105840000DE000BF00BF00BF00BF00BF00BF00BF32
:1058500000BF2968206802F083FE00E000BF00BF9F
:10586000012084F83D0000BF002084F83C0000BF08
:1058700000BF73E788FFCEFF10B586B00446142141
:1058800001A8FAF771FD3049206888421BD100BF9A
:105890002E48006840F002002C4908600846006865
:1058A00000F00200009000BF00BF20200190022005
:1058B00002900020039004900220059001A9244842
:1058C000FCF73EFC3DE02068B0F1804F1BD100BFEB
:1058D0001E48006840F001001C4908600846006846
:1058E00000F00100009000BF00BF012001900220E5
:1058F00002900020039004900120059001A9154812
:10590000FCF71EFC1DE014492068884219D100BF35
:105910000E48006840F001000C4908600846006825
:1059200000F00100009000BF00BF02200190029033
:105930000020039004900220059001A90548FCF77F
:10594000FFFB06B010BD000000040040E044025818
:105950000004025800000258000C004070B50446D4
:105960000D46164600BF94F83C00012801D10220E4
:1059700070BD012084F83C0000BF0C2E51D005DC26
:105980004EB1042E1ED0082E7AD133E0102E60D0F6
:10599000142EF9D175E02946206802F04BFE2068EC
:1059A000806940F00800216888612068806920F0E3
:1059B000040021688861206880692969084321689A
:1059C000886177E02946206802F08AFE20688069B5
:1059D00040F40060216888612068806920F480605C
:1059E0002168886120688069296940EA012021686E
:1059F00088615FE02946206802F0CCFE2068C0691B
:105A000040F008002168C8612068C06920F00400E7
:105A10002168C8612068C069296908432168C86194
:105A200048E02946206802F00DFF2068C06940F474
:105A300000602168C8612068C06920F48060216826
:105A4000C8612068C069296940EA01202168C861ED
:105A500030E02946206802F02DFF2068406D40F0BC
:105A60000800216848652068406D20F00400216826
:105A700048652068406D296908432168486519E038
:105A800017E02946206802F04BFF2068406D40F483
:105A90000060216848652068406D20F480602168BE
:105AA00048652068406D296940EA01202168486501
:105AB00000E000BF00BF00BF002084F83C0000BF32
:105AC00000BF55E710B504460CB9012010BD94F88D
:105AD0003D0028B9002084F83C00204600F029F859
