:020000040800F2
:10000000303C002079030008E9440008B1410008B1
:10001000E54400086306000877520008000000006D
:10002000000000000000000000000000B9490008C6
:10003000F306000800000000ED440008BD49000878
:100040009303000893030008930300089303000838
:100050009303000893030008930300089303000828
:100060009303000893030008930300089303000818
:100070009303000893030008930300089303000808
:1000800093030008930300089303000893030008F8
:1000900093030008930300089303000893030008E8
:1000A00093030008930300089303000893030008D8
:1000B00093030008930300089303000893030008C8
:1000C00093030008930300089303000893030008B8
:1000D00093030008930300089303000893030008A8
:1000E0009303000893030008000000009303000836
:1000F0009303000893030008930300089303000888
:100100009303000893030008930300089303000877
:100110009303000893030008930300089303000867
:100120009303000893030008930300089303000857
:100130009303000893030008930300089303000847
:1001400000000000000000000000000000000000AF
:100150009303000893030008930300089303000827
:100160009303000893030008930300089303000817
:100170009303000893030008930300089303000807
:1001800093030008930300089303000893030008F7
:1001900093030008930300089303000893030008E7
:1001A00093030008930300089303000893030008D7
:1001B00093030008930300089303000893030008C7
:1001C00093030008930300089303000893030008B7
:1001D00093030008930300089303000893030008A7
:1001E0009303000893030008930300089303000897
:1001F0009303000893030008930300089303000887
:100200009303000893030008930300089303000876
:100210009303000893030008930300089303000866
:1002200093030008930300089303000800000000F4
:1002300093030008930300080000000093030008E4
:100240009303000893030008930300089303000836
:100250009303000893030008930300089303000826
:100260009303000893030008930300089303000816
:1002700093030008930300089303000800000000A4
:100280009303000893030008930300080000000094
:10029000000000009303000800F002F800F05CF892
:1002A0000AA090E8000C82448344AAF10107DA45D1
:1002B00001D100F051F8AFF2090EBAE80F0013F0C7
:1002C000010F18BFFB1A43F00103184750880000C4
:1002D000708800000A444FF0000C10F8013B13F046
:1002E000070408BF10F8014B1D1108BF10F8015B8F
:1002F000641E05D010F8016B641E01F8016BF9D182
:1003000013F0080F1EBF10F8014BAD1C0C1B09D1D8
:100310006D1E58BF01F801CBFAD505E014F8016B4A
:1003200001F8016B6D1EF9D59142D6D370470000DC
:100330000023002400250026103A28BF78C1FBD8EE
:10034000520728BF30C148BF0B6070471FB505F08A
:10035000B5FD1FBD10B510BD00F049F91146FFF7FE
:10036000F5FF05F025FC00F067F903B4FFF7F2FF95
:1003700003BC00F06FF900000948804709480047B6
:10038000FEE7FEE7FEE7FEE7FEE7FEE7FEE7FEE745
:10039000FEE7FEE704480549054A064B70470000A2
:1003A000414B00089902000830360020303C002004
:1003B000303800203038002040EA010310B59B0798
:1003C0000FD1042A0DD310C808C9121F9C42F8D0BF
:1003D00020BA19BA884201D9012010BD4FF0FF3070
:1003E00010BD1AB1D30703D0521C07E0002010BD86
:1003F00010F8013B11F8014B1B1B07D110F8013B12
:1004000011F8014B1B1B01D1921EF1D1184610BDF2
:1004100040EA0103024630B59B0710D14FF001348A
:1004200000E008C208C91D1B9D4315EAC41FF8D08F
:1004300013F0FF0102F8011B0DD01B0AF8E711F8B9
:10044000013B002B02F8013B05D011F8013B002BCA
:1004500002F8013BF3D130BD032A40F2308010F0A6
:10046000030C00F0158011F8013BBCF1020F62444F
:1004700098BF11F801CB00F8013B38BF11F8013BE0
:10048000A2F1040298BF00F801CB38BF00F8013B8D
:1004900011F0030300F02580083AC0F0088051F8FD
:1004A000043B083A51F804CBA0E80810F5E7121D08
:1004B0005CBF51F8043B40F8043BAFF30080D20727
:1004C00024BF11F8013B11F801CB48BF11F8012BF3
:1004D00024BF00F8013B00F801CB48BF00F8012B16
:1004E000704710B5203AC0F00B80B1E81850203AA0
:1004F000A0E81850B1E81850A0E81850BFF4F5AFC4
:100500005FEA027C24BFB1E81850A0E8185044BF4D
:1005100018C918C0BDE810405FEA827C24BF51F8BA
:10052000043B40F8043B08BF7047D20728BF31F8AE
:10053000023B48BF11F8012B28BF20F8023B48BFFF
:1005400000F8012B704702F0FF0343EA032242EA5E
:10055000024200F02CB84FF0000200B5134694465A
:100560009646203922BFA0E80C50A0E80C50B1F10B
:100570002001BFF4F7AF090728BFA0E80C5048BF1F
:100580000CC05DF804EB890028BF40F8042B08BFBD
:10059000704748BF20F8022B11F0804F18BF00F8B9
:1005A000012B70477047704770474FF000020429D5
:1005B000C0F0128010F0030C3FF4CFAFCCF1040C6C
:1005C000BCF1020F18BF00F8012BA8BF20F8022BC6
:1005D000A1EB0C01FFF7C1BF5FEAC17C24BF00F8AB
:1005E000012B00F8012B48BF00F8012B704775461E
:1005F00000F02CF8AE4605006946534620F007008F
:10060000854618B020B5FFF7C5FEBDE820404FF085
:1006100000064FF000074FF000084FF0000B21F0EC
:100620000701AC46ACE8C009ACE8C009ACE8C009B9
:10063000ACE8C0098D46704710B50446AFF30080A2
:100640002046BDE81040FFF790BE0000004870470C
:10065000D035002001491820ABBEFEE7260002007D
:10066000704700BFFEE7000010B5044614B1012C2E
:100670000DD105E001229103064800F091FF06E04C
:1006800000224FF48041034800F08AFF00BF00BF02
:1006900010BD0000000C025810B5044614B1012C26
:1006A0000DD106E000224FF40041064800F078FF2B
:1006B00005E00122D103034800F072FF00BF00BF34
:1006C00010BD0000000C02581CB50120019004F080
:1006D0007FF800F057F90122002101A800F0E8FBA3
:1006E00000B91CBD01220021684600F095FA00BF48
:1006F000F7E7704772B600BFFEE700002DE9F05F34
:1007000007460D46164616B90120BDE8F09F3E4843
:100710004069A84201D80020F7E73B48008BB0426F
:1007200001DA0020F1E732462946384800F074FA31
:10073000324639463548FFF73FFE08B90120E4E765
:100740004FF0000A32463946304800F041F908B10E
:100750004FF0010A2C48008B401E25EA00082A4869
:10076000008BB0420BD1002404E0385D27490855C6
:10077000601C84B22448008BA042F6DC10E02248C2
:10078000028B4146214800F047FA1F48008B401E6B
:10079000284084B21D49081932463946FFF75CFEED
:1007A0004FF0000B00242AE0BAF1010F02D14046BD
:1007B00000F0B0F81448028B4146144800F01CF9D0
:1007C00032463946284600F023F810B94FF0010BA5
:1007D00017E032463946284600F01AF810B94FF0B3
:1007E000010B0EE04FF0000903E009F101001FFAD0
:1007F00080F942F210708145F7DB601C84B2032C53
:10080000D2DB00BF584680E7B4250020D025002069
:100810002DE9F04705460E461746E819394949695A
:10082000884202D90120BDE8F0870FB90020FAE71D
:10083000002000F0F3FA0020334908600321324819
:1008400002680068401C304B186030488154C5F382
:100850000741184602680068401C18602B48815404
:10086000C5F30722184601680068401C1860274835
:100870004254184602680068401C1860234885549A
:1008800004F020FD4FF0000917E04FF480501E499E
:10089000086004F017FD002408E016F8011B1C484E
:1008A000005D814200D027E0601C84B2B4F5805F17
:1008B000F3DB09F101001FFA80F9B9EB173FE4D32C
:1008C000C7F30B08B8F1000F11DD0F48C0F8008026
:1008D00004F0F8FC002408E016F8011B0C48005D49
:1008E000814200D008E0601C84B24445F4DB012062
:1008F00000F094FA002096E7012000F08FFA012022
:1009000091E70000B425002020000020840500208D
:100910008415002010B5044600F074FB002000F0A0
:100920007DFA0020154908602021144802680068FB
:10093000401C124B186012488154C4F307421846F9
:1009400001680068401C18600D484254C4F3072237
:10095000184601680068401C18600948425418464F
:1009600001680068401C18600548445404F0AAFC63
:10097000012000F053FA00F06BFA10BD20000020B7
:100980008405002000B587B000BF0F48006840F024
:1009900008000D4908600846006800F00800019052
:1009A00000BF00BF012003900020049003200590A9
:1009B0004FF40040029002A9044800F0EDFC00F062
:1009C000B7F907B000BD0000E0440258000002582B
:1009D00070B5034600240BE013F8015BE843C5B291
:1009E00011F8010B284008B1012070BD601C84B2D1
:1009F0009442F1DB0020F8E72DE9F04104460E4671
:100A0000154681480068814988427DD1022D08DA67
:100A1000284605EBD0714910A5EB410109B1BDE8AD
:100A2000F08100F0EFFA002000F0F8F9002078499A
:100A30000860AD21764802680068401C744B18605D
:100A400074488154C6F30741184602680068401C88
:100A5000186070488154C6F3072118460268006880
:100A6000401C18606B488154184602680068401C9E
:100A700018606848865414F8011B1846026800681C
:100A8000401C18606348815414F8011B1846026822
:100A90000068401C18605F48815404F013FC01207A
:100AA00000F0BCF900F0D4F9A81E85B2002728E0B8
:100AB000002000F0B3F9002055490860AD215448EA
:100AC00002680068401C524B18605248815414F868
:100AD000011B184602680068401C18604D4881548C
:100AE00014F8011B184602680068401C1860494849
:100AF000815404F0E7FB012000F090F900F0A8F920
:100B00007F1C05EBD57100E019E0B7EB610FCFD387
:100B1000002000F083F900203D49086004213C4892
:100B200002680068401C3A4B18603A48815404F04F
:100B3000C9FB012000F072F900F08AF962E04FF081
:100B4000000843E000F05EFA002000F067F90020A2
:100B50002F49086002212E4802680068401C2C4B77
:100B600018602C488154C6F3074118460268006893
:100B7000401C186027488154C6F3072118460268B4
:100B80000068401C186023488154184602680068B9
:100B9000401C18601F48865400270AE014F8011B07
:100BA0001B4802680068401C194B186019488154A2
:100BB0007F1CFF2FF2D904F085FB012000F02EF9F5
:100BC00000F046F906F5807608F10108E91705EB13
:100BD0001161B8EB212FB5D3002000F01FF90020E0
:100BE0000B49086004210A4802680068401C084B51
:100BF00018600848815404F065FB012000F00EF9EC
:100C000000F026F900BF0AE7B42500204125BF0007
:100C100020000020840500202DE9F04180460C468C
:100C2000154625B160192B494969884201D9BDE8AB
:100C3000F081002000F0F2F800202749086003212D
:100C4000254802680068401C234B186023488154E3
:100C5000C4F30741184602680068401C18601F482A
:100C60008154C4F30722184601680068401C1860CC
:100C70001A484254184602680068401C1860174819
:100C8000845404F01FFB00270FE04FF480501249FA
:100C9000086004F017FB4FF4805211494046FFF7FB
:100CA000DBFB08F58058781C87B2B7EB153FECD317
:100CB000C5F30B06002E08DD0748066004F002FBB2
:100CC000324607494046FFF7C7FB012000F0A6F86F
:100CD00000BFACE7B42500202000002084050020E0
:100CE000841500202DE9F041002000F097F8002045
:100CF0000C4908609F200C490870042009490860CD
:100D000004F0E0FA094845788678C778012000F0B9
:100D100085F8280440EA062040EA07042046BDE89A
:100D2000F0810000200000208405002084150020B0
:100D300010B5FFF7D7FF2749086008460068264925
:100D4000084440B12549084488B125490844D0B138
:100D5000012830D123E023A11E48001DFFF758FBD6
:100D60004FF400101B494861401208832FE020A176
:100D70001848001DFFF74CFB4FF40010154948615F
:100D80004012088323E01DA11248001DFFF740FB1D
:100D90004FF400000F494861C012088317E019A101
:100DA0000C48001DFFF734FB4FF080700949486183
:100DB000001308830BE015A10648001DFFF728FB70
:100DC0004FF40010034948614012088300BF00BF80
:100DD00010BD0000B4250020BFDA40FF2C05FDFF48
:100DE000FEDFD2FF5353543235564630313642007F
:100DF0004D5832354C31363036450000573235517A
:100E0000363400005732355131323800556E6B6E32
:100E10006F7720466C6173680000000010B50446CF
:100E200064B903F0C9FC002211464FF0805003F072
:100E300055FD4FF000400549886105E04FF4004042
:100E40000249886103F0BEFC10BD0000000002589A
:100E500010B50020FFF7E2FF0520124908700220BC
:100E60001149086004F02EFA0120FFF7D7FF15E0C2
:100E70000020FFF7D3FF05200A49087000204870C2
:100E800002200949086004F01DFA0120FFF7C6FF9F
:100E90000648407800F0010000B900E0E8E700BF34
:100EA00010BD0000840500202000002084150020D3
:100EB0002DE9F05F07460E4615464FF00009C8467B
:100EC000C2460024A3464E48008BB6FBF0F100FB5F
:100ED000116A4B48008BA0EB0A044948008BB5FB14
:100EE000F0F94748008BB5FBF0F100FB1158BAF15F
:100EF000000F29D1B9F1000F08D1AAB23146384606
:100F0000FFF7FCFB002878D1BDE8F09F0EE03C48DD
:100F1000028B31463846FFF7F1FB08B90020F3E7B2
:100F20003748008B06443648008B0744B9F100006F
:100F3000A9F10109EBD11FFA88F231463846FFF7D3
:100F4000DDFB002859D1DFE7B9F1000F1ED1A04524
:100F500014D9A8EB040BA2B231463846FFF7CEFBFA
:100F600008B90020D0E7264427441FFA8BF2314607
:100F70003846FFF7C3FB00283FD1C5E7AAB2314688
:100F80003846FFF7BBFBB8BB0020BDE72D1B1C4854
:100F9000008BB5FBF0F91A48008BB5FBF0F100FBB4
:100FA0001158A2B231463846FFF7A8FB08B9002015
:100FB000AAE7264427440EE01148028B3146384602
:100FC000FFF79CFB08B900209EE70D48008B064404
:100FD0000B48008B0744B9F10000A9F10109EBD1DE
:100FE000B8F1000F09D01FFA88F231463846FFF7F2
:100FF00085FB08B9002087E7FFE7012084E70000B0
:10100000B425002010B50020FFF708FF0020084994
:1010100008600621064802680068401C044B1860FE
:101020000448815404F04EF90120FFF7F7FE10BD8B
:10103000200000208405002000B587B0142102A8FC
:10104000FFF789FA00BF2848006840F001002649F0
:1010500008600846006800F00100019000BF00BF72
:1010600000BF0846006840F00800086008460068B5
:1010700000F00800019000BF00BF4FF40040029054
:101080000120039000200490059002A9174800F069
:1010900083F900224FF40041144800F081FA4FF424
:1010A000804002900120039000200490059002A946
:1010B0000E4800F071F9012291030C4800F070FA1B
:1010C0004FF40060029001200390002004900590EE
:1010D00002A9064800F060F90122D102034800F09D
:1010E0005FFA07B000BD0000E0440258000C02584F
:1010F0002DE9FF5F07460D4616469A46DDF8388013
:1011000000244FF0090B4FF0230900204A49488082
:10111000BAF1010F04D14FF0020B0220888002E0E7
:10112000092045498880307801285ED14B46A022AD
:1011300029463846CDE900B804F0C4FB0120CDE9CA
:10114000000805EB090081B24B46A022384604F0A6
:10115000B9FB19E04FF0460CACEB440C1FFA8CF3D2
:101160004FF0A00CACEB440C1FFA8CF205EB040C16
:101170001FFA8CF107EB040C1FFA8CF0CDE900B8D4
:1011800004F032FB601CC4B2022CE3D1012098228F
:10119000CDE90020284A02901278C2F1230203927E
:1011A00002EBD27205EB620291B23A1D90B2224B71
:1011B000721C04F0FBF801201F4988809822CDE9B9
:1011C00000200A4602901278C2F12302039202EB39
:1011D000D27205EB62024A4491B23A1D90B2164BAC
:1011E00006F1190204F0E2F824E0307810BB09207F
:1011F0004623A0222946CDE90008384604F062FBC8
:1012000000200D4948800920888001209822CDE9DE
:1012100000200A4602901278C2F14602039202EBC5
:10122000D27205EB620291B23A1D90B2024B721C6F
:1012300004F0BCF8BDE8FF9FC20200202DE9FE4F7C
:1012400006460F4615469946DDF8308000244FF0DB
:10125000090A002045494880B9F1000F22D02878BA
:10126000012804D14FF0040A042088801FE0287868
:10127000022805D14FF0080A08203C49888016E072
:101280002878032805D14FF00A0A0A2037498880B8
:101290000DE0287804280AD14FF0050A05203349CB
:1012A000888004E04FF0090A092030498880202313
:1012B0001A4639463046CDE900A804F003FB012068
:1012C00006F12001CDE9000888B22023A422394686
:1012D00004F0F8FA19E04FF0200CACEB440C1FFAC4
:1012E0008CF34FF0C40CACEB440C1FFA8CF207EB00
:1012F000040C1FFA8CF106EB040C1FFA8CF0CDE9FC
:1013000000A804F071FA601CC4B2022CE3D10120E1
:101310001822CDE90020154A02901278C2F1200B64
:101320000BEBDB7207EB620291B2321D90B20F4BF6
:101330006A1C04F03BF801200C4988809C22CDE90E
:1013400000200A4602901278C2F1200B0BEBDB72F0
:1013500007EB620291B206F1240290B2034B05F151
:101360000D0204F023F8BDE8FE8F0000C202002049
:1013700070B5044600F020F906462546681C10B1F9
:1013800004480078054400BF00F016F9801BA8420D
:10139000FAD370BD08000020F8B502460023734D53
:1013A000DEE001279F400E6806EA0704002C71D09A
:1013B0004E68012E08D04E68022E05D04E68112EC0
:1013C00002D04E68122E13D190685F000326BE40F3
:1013D000B0435F00CE68BE40304390605068012645
:1013E0009E40B0430E79C6F300169E4030435060D5
:1013F000D0685F000326BE40B0435F008E68BE40E9
:101400003043D0604E68022E02D04E68122E13D1A7
:10141000DF0802F1200656F827005E07F70E0F26B8
:10142000BE40B0435F07FF0E0E69BE403043DF0889
:1014300002F1200646F8270010685F000326BE4030
:10144000B0430E7906F003065F00BE4030431060E3
:101450004E6806F08056B6F1805F1BD100BF444E47
:10146000366846F00206424F3E603E46366806F059
:101470000206009600BF00BF3E4E9F0856F82700A8
:101480009E07370F0F26BE40B0433B4EB24202D1FB
:1014900000262EE063E0394EB24201D1012628E059
:1014A000374EB24201D1022623E0364EB24201D17C
:1014B00003261EE0344EB24201D1042619E0334E19
:1014C000B24201D1052614E0314EB24201D10626C6
:1014D0000FE0304EB24201D107260AE02E4EB24252
:1014E00001D1082605E02D4EB24201D1092600E0C7
:1014F0000A269F073F0FBE4030431E4E9F0846F806
:1015000027002868A0434E6806F48036B6F5803F71
:1015100000D1204328606868A0434E6806F4003676
:10152000B6F5003F00D1204368604FF0B046306808
:10153000A0434E6806F48016B6F5801F00D1204304
:101540004FF0B04630607068A0434E6806F4001655
:10155000B6F5001F00D120434FF0B04670605B1C11
:101560000E68DE40002E7FF41CAFF8BD80000058EE
:10157000F4440258080400580000025800040258BD
:1015800000080258000C02580010025800140258BB
:1015900000180258001C025800200258002402586B
:1015A0000AB1816101E00B04836170470148006862
:1015B000000C70470010005C014800687047000094
:1015C00000000020034800680349097808440149E5
:1015D00008607047000000200800002010B50320BC
:1015E00000F0BCFA01F040FA10490968C1F3032188
:1015F0000F4A515C01F01F0120FA01F40B4800680A
:1016000000F00F001146085C00F01F0024FA00F003
:101610000849086008480460002000F00FF808B18D
:10162000012010BD00F04AFA0020FAE718440258E1
:10163000C65E0008100000200C00002070B50446B3
:101640001148007808B9012070BD0F4800784FF4A8
:101650007A71B1FBF0F00D490968B1FBF0F528464D
:1016600002F048FA08B10120EEE7102C07D2002260
:101670002146501E00F034FA0548046001E00120C4
:10168000E2E70020E0E70000080000200C00002056
:1016900004000020F0B504460D461646294600BF5A
:1016A00094F8A000012801D10220F0BD012084F8A7
:1016B000A00000BF022084F8A100002236E003EB66
:1016C000830000EBC30C04F1380000EB8C000069D0
:1016D000062813D108784FF0100C0CFB022C40EABE
:1016E0000C60B1F800C00CF47F4C40EA0C00D1F85B
:1016F00000C00CF47F0C40EA0C070EE0087840EACA
:101700000260B1F800C00CF47F4C40EA0C00D1F844
:1017100000C00CF47F0C40EA0C07091D20688430DF
:101720004FF0800C0CFB03000764521CB242C6D37E
:10173000012084F8A10000BF002084F8A00000BFB1
:1017400000BFB2E770B504460E46154600BF94F8D8
:10175000A000012801D1022070BD012084F8A00062
:1017600000BF022084F8A10005EB850101EBC50252
:1017700004F1380101EB820034223146FEF7B1FE5C
:101780002A463146204602F015FD012021684862B4
:1017900084F8A10000BF002084F8A00000BF00BFB3
:1017A000DAE710B5024600BF92F8A000012801D187
:1017B000022010BD012082F8A00000BF022082F8A4
:1017C000A10010688430CB01C05840F010031068AD
:1017D0008430CC01035101201368586282F8A100C3
:1017E00000BF002082F8A00000BF00BFE1E70000BA
:1017F00070B504460CB9012070BD94F8A10028B959
:10180000002084F8A000204600F07EF8022084F832
:10181000A1002068806920F0704021688861D4E9C7
:1018200001010843E1680843216908432168896987
:10183000084321688861206880683249084021682F
:101840008860A08A050420688068A169294308434C
:10185000216888602068C0682A4908402168C860FB
:10186000A08B05042068C068216A294308432168C9
:10187000C860206800692349084021680861A08C7D
:10188000050420680069A16A2943084321680861AA
:10189000206840691B49084021684861A08D050403
:1018A00020684069216B294308432168486194F806
:1018B0003500050294F8360006042068C06A00F07E
:1018C0007F402168C86246EA050094F83410084356
:1018D0002168C96A08432168C8622068406B40F0EB
:1018E0000600216848632068806940F00100216893
:1018F00088610020C4F8A400012084F8A100002021
:101900007AE7000000F800F010B5B6B004461421E4
:1019100031A8FEF720FEBC2102A8FEF71CFE60499C
:10192000206888427ED14004029020200B909621AE
:101930000C9102210D910E9106210F910021109121
:10194000010111910021129102A800F04BF908B198
:10195000FEF7D0FE00BF5348006840F00800514930
:1019600008600846006800F00800019000BF00BF52
:1019700000BF081F006840F00400091F0860084607
:10198000006800F00400019000BF00BF00BF0846DF
:10199000006840F0010008600846006800F001009F
:1019A000019000BF00BF00BF0846006840F0020081
:1019B00008600846006800F00200019000BF00BF08
:1019C00000BF0846006840F0100008600846006844
:1019D00000F01000019000BF00BF00BF0846006883
:1019E00040F0080008600846006800F00800019018
:1019F00000BF00BFC1203190022032900020339000
:101A000034900E20359031A92748FFF7C5FC782087
:101A10003190022032900020339034900E20359087
:101A200031A900E039E02148FFF7B6FC03203190EE
:101A3000022032900020339034900920359031A953
:101A40001B48FFF7A9FC4FF47840319002203290F8
:101A50000020339034900E20359031A91548FFF7BF
:101A60009BFC4FF470603190022032900020339044
:101A700034900E20359031A90D48FFF78DFC4FF4BE
:101A800081603190022032900020339034900E20FB
:101A9000359031A90848FFF77FFC36B010BD000033
:101AA00000100050E4440258000802580000025898
:101AB0000004025800100258000C025808B500BF7C
:101AC0000648006840F002000449086008460068C3
:101AD00000F00200009000BF00BF08BDF4440258AF
:101AE0002DE9F05F80460D46164603F0C7FB07461A
:101AF00039462A46334601F00700C0F1070ABAF119
:101B0000040F02D94FF0040A01E0C0F1070AD146E0
:101B100000F1040ABAF1070F02D24FF0000A01E007
:101B2000A0F1030AD4464FF0010A0AFA09FAAAF111
:101B3000010A0AEA020A0AFA0CFA4FF0010B0BFA40
:101B40000CFBABF1010B0BEA030B4AEA0B04214639
:101B5000404603F09BFBBDE8F09F000000BF00F093
:101B60000702064B19684FF6FF031940044B0B435D
:101B700043EA0221014B196000BF70470CED00E001
:101B80000000FA0570B5044615480068C0F38000EF
:101B900048B91348006800F00700A04201D00120B6
:101BA00070BD0020FCE70E48006820F007002043CD
:101BB0000B490860FFF700FD054607E0FFF7FCFC56
:101BC000401BB0F57A7F01D90120E9E704480838C5
:101BD0000068C0F340300028F0D00020E0E70000AB
:101BE0000C4802582DE9F04104460025A84620681B
:101BF00000F00060B0F1006F30D1606E48B1B0F518
:101C0000801F0DD0B0F5001F10D0B0F5401F15D1CA
:101C100013E0F948006840F40030F74908600FE02D
:101C20000221201D02F064FC054609E0022104F1B6
:101C3000240002F00FFD054602E001E0012500BF8F
:101C400000BF55B9EC482430006820F44010616EA4
:101C50000843E9492431086000E0A846208800F4E0
:101C60008070B0F5807F2DD1606D05281AD2DFE835
:101C700000F0030A10171800DF48006840F4003035
:101C8000DD49086010E00021201D02F031FC05460E
:101C90000AE0002104F1240002F0DCFC054603E028
:101CA00002E001E0012500BF00BF55B9D248243051
:101CB000006820F00700616D0843CF4924310860B7
:101CC00000E0A846208800F40070B0F5007F33D112
:101CD000A06D802817D003DC40B140281CD10CE057
:101CE000C02817D0B0F5807F16D114E0C248006834
:101CF00040F40030C049086010E00021201D02F0CF
:101D0000F7FB05460AE0002104F1240002F0A2FCE2
:101D1000054603E002E001E0012500BF00BF55B920
:101D2000B5482430006820F4E070A16D0843B24942
:101D30002431086000E0A846208800F48060B0F5F7
:101D4000806F38D1D4F8A400B0F5800F19D004DC2E
:101D500050B1B0F5001F1DD10DE0B0F5C00F17D088
:101D6000B0F5000F16D114E0A348006840F400302D
:101D7000A149086010E00021201D02F0B9FB0546D2
:101D80000AE0002104F1240002F064FC054603E0AF
:101D900002E001E0012500BF00BF5DB996482C308C
:101DA000006820F46000D4F8A410084392492C3154
:101DB000086000E0A846208800F40060B0F5006FDD
:101DC00038D1D4F8A800B0F1007F19D004DC50B1AC
:101DD000B0F1807F1DD10DE0B0F1407F17D0B0F1A0
:101DE000806F16D114E08448006840F400308249C6
:101DF000086010E00021201D02F07AFB05460AE091
:101E0000002104F1240002F025FC054603E002E075
:101E100001E0012500BF00BF5DB977482C300068A4
:101E200020F0E060D4F8A810084373492C31086012
:101E300000E0A846206800F00070B0F1007F27D1D4
:101E4000A06CA0B1102804D0202809D030280FD1D0
:101E50000CE06948006840F400306749086009E018
:101E60000221201D02F044FB054603E002E001E0F0
:101E7000012500BF00BF55B95F482030006820F041
:101E80003000A16C08435C492031086000E0A8469E
:101E9000208800F48050B0F5805F36D1E06DB0F559
:101EA000005F19D004DC50B1B0F5805F1DD10DE0AA
:101EB000B0F5405F17D0B0F5804F16D114E04E4812
:101EC000006840F400304C49086010E00021201DFB
:101ED00002F00EFB05460AE0002104F1240002F0A6
:101EE000B9FB054603E002E001E0012500BF00BFA9
:101EF00055B941482430006820F4E040E16D0843C2
:101F00003D492431086000E0A846208800F40050D4
:101F1000B0F5005F34D1206EB0F5403F1DD007DC36
:101F200068B1B0F5803F0BD0B0F5003F18D10DE09F
:101F3000B0F5802F12D0B0F5A02F11D10FE011E035
:101F40000121201D02F0D4FA05460BE0012104F125
:101F5000240002F07FFB054604E003E002E001E01C
:101F6000012500BF00BF55B923482430006820F484
:101F7000E020216E084320492431086000E0A84693
:101F8000208800F48040B0F5804F38D1D4F8AC0000
:101F9000B0F1405F1DD007DC68B1B0F1805F0BD0BD
:101FA000B0F1005F18D10DE0B0F1804F12D0B0F168
:101FB000A04F11D10FE011E00121201D02F098FA8D
:101FC00005460BE0012104F1240002F043FB054625
:101FD00004E003E002E001E0012500BF00BF6DB9AD
:101FE00005482C30006820F0E040D4F8AC100843DD
:101FF00001492C31086002E02C440258A846208890
:1020000000F40040B0F5004F26D1E06E98B1B0F179
:10201000805F03D0B0F1005F0ED106E0F9480068A0
:1020200040F40030F749086008E00121201D02F06B
:102030005FFA054602E001E0012500BF00BF55B987
:10204000F0482430006820F04050E16E0843ED492C
:102050002431086000E0A846206800F08070B0F1EC
:10206000807F27D1606CA0B1012804D0022809D05C
:1020700003280FD10CE0E348006840F40030E14948
:10208000086009E00221201D02F032FA054603E053
:1020900002E001E0012500BF00BF55B9D94820305A
:1020A000006820F00300616C0843D64920310860C5
:1020B00000E0A846206800F48000B0F5800F7DD1D4
:1020C000D148006840F48070CF490860FFF774FA87
:1020D000064606E0FFF770FA801B642801D9032545
:1020E00005E0C948006800F480700028F2D000BF05
:1020F00085BBC4484430006800F44070B4F8B010A8
:1021000001F44071884213D0BE484430006820F486
:102110004077BC484430006840F48030B9494431CD
:1021200008600846006820F48030086008460760B0
:10213000D4F8B000B0F5807F15D1FFF73DFA064620
:1021400009E0FFF739FA801B41F28831884202D951
:10215000032507E038E0AB4844300068C0F3400096
:102160000028EED000BF55BB00BFB4F8B00000F4AB
:102170004070B0F5407F0ED1A2481C38006820F4B2
:102180007C51A24AD4F8B000104041EA10109D4999
:102190001C39086007E09B481C38006820F47C501C
:1021A00098491C390860974844300068B4F8B0106A
:1021B000C1F30B0108439349443101E005E001E01C
:1021C000086002E0A84600E0A846207800F0010080
:1021D00068B3A06F182819D005DC48B1082808D0CA
:1021E000102816D10BE0202811D0282811D10FE09B
:1021F00011E00121201D02F07BF905460BE00121D1
:1022000004F1240002F026FA054604E003E002E0AF
:1022100001E0012500BF00BF55B97A4828300068A9
:1022200020F03800A16F084376492831086000E0AB
:10223000A846207800F00200022828D1606F062806
:1022400015D2DFE800F003040A11121311E0012196
:10225000201D02F04DF905460BE0012104F1240098
:1022600002F0F8F9054604E003E002E001E0012590
:1022700000BF00BF55B963482830006820F0070050
:10228000616F08435F492831086000E0A846207864
:1022900000F0040004282AD1D4F89000062815D2B2
:1022A000DFE800F003040A11121311E00121201DE0
:1022B00002F01EF905460BE0012104F1240002F0B2
:1022C000C9F9054604E003E002E001E0012500BF92
:1022D00000BF5DB94B482C30006820F00700D4F8EF
:1022E0009010084347492C31086000E0A846207848
:1022F00000F02000202836D1D4F88C00B0F1405FE7
:102300001DD007DC68B1B0F1805F0BD0B0F1005F89
:1023100018D10DE0B0F1804F12D0B0F1A04F11D123
:102320000FE011E00021201D02F0E2F805460BE06D
:10233000022104F1240002F08DF9054604E003E0D7
:1023400002E001E0012500BF00BF5DB92D48283043
:10235000006820F0E040D4F88C1008432949283167
:10236000086000E0A846207800F04000402836D100
:10237000D4F89800B0F5406F1DD007DC68B1B0F517
:10238000806F0BD0B0F5006F18D10DE0B0F5805F15
:1023900012D0B0F5A05F11D10FE011E00021201D97
:1023A00002F0A6F805460BE0022104F1240002F039
:1023B00051F9054604E003E002E001E0012500BF19
:1023C00000BF5DB90F482C30006820F4E050D4F80D
:1023D000981008430B492C31086000E0A84620788B
:1023E00000F0800080283AD1D4F89C00B0F5C04FAE
:1023F00023D00DDC98B1B0F5005F11D0B0F5804F5F
:102400001ED113E02C44025800480258FFFCFF0F75
:10241000B0F5004F12D0B0F5204F11D10FE011E010
:102420000021201D02F064F805460BE0022104F1B2
:10243000240002F00FF9054604E003E002E001E0A9
:10244000012500BF00BF4DB9BE48006820F46040C0
:10245000D4F89C100843BB49086000E0A8462078E7
:1024600000F00800082817D1D4F88000B0F5805F8C
:1024700007D1022104F1240002F0ECF808B14FF07A
:102480000108B048001F006820F44050D4F88010C4
:102490000843AC49091F0860207800F0100010289C
:1024A00015D1D4F89400B0F5807F07D1022104F152
:1024B000240002F0CFF808B14FF00108A1480068ED
:1024C00020F44070D4F8941008439E4908602068B6
:1024D00000F40020B0F5002F26D1D4F8A00030B1D0
:1024E000B0F5803F09D0B0F5003F0ED10CE00021DF
:1024F000201D01F0FDFF054609E0022104F1240042
:1025000002F0A8F8054602E001E0012500BF00BF87
:102510004DB98C48006820F44030D4F8A01008432E
:102520008849086000E0A846206800F48020B0F5E3
:10253000802F2DD1D4F88400B0F5801F06D0B0F5DF
:10254000001F0CD0B0F5401F11D10FE07D482C3892
:10255000006840F400307B492C39086009E0012113
:1025600004F1240002F076F8054602E001E00125BE
:1025700000BF00BF5DB97348001F006820F4401021
:10258000D4F8841008436F49091F086000E0A8468A
:10259000206800F48030B0F5803F24D1E06C18B1A1
:1025A000B0F5803F0FD108E066482C38006840F451
:1025B000003064492C39086007E00221201D01F039
:1025C00097FF054601E0012500BF00BF55B95D48F2
:1025D0000C38006820F48030E16C084359490C390C
:1025E000086000E0A846206800F00050B0F1005FED
:1025F00007D1022104F1240002F02CF808B14FF0B9
:102600000108206800F40030B0F5003F27D1E06FEA
:10261000A0B1B0F5807F06D0B0F5007F0CD0B0F54A
:10262000407F0CD109E047482C38006840F4003066
:1026300044492C39086004E003E002E001E0012590
:1026400000BF00BF55B93F48001F006820F440702C
:10265000E16F08433B49091F086000E0A846206875
:1026600000F48010B0F5801F09D1364808380068A2
:1026700020F00040216F0843324908390860206883
:1026800000F08050B0F1805F0AD12E4848380068D1
:1026900020F48040D4F8B41008432A49483908602F
:1026A000206800F40010B0F5001F09D12548083853
:1026B000006820F08070A16E084322490839086044
:1026C000206800F08040B0F1804F11D100BF1D485C
:1026D0004838006820F400401A4948390860084624
:1026E0000068D4F8B810084316494839086000BF9C
:1026F000206800F00040B0F1004F09D111480C38BB
:10270000006820F04050216D08430E490C390860E4
:10271000206800F40000B0F5000F0AD10948001F3E
:10272000006820F44000D4F8881008430549091FC8
:102730000860B8F1000F02D10020BDE8F08101204F
:10274000FBE70000584402582DE9F04104460D46CD
:1027500014B90120BDE8F081BD48006800F00F0009
:10276000A8420ED2BA48006820F00F002843B849AA
:1027700008600846006800F00F00A84201D0012060
:10278000E8E7207800F0040004280ED1B149206960
:10279000096801F07001884207D9AE48006820F04E
:1027A000700021690843AB490860207800F00800F8
:1027B000082811D1A749091D6069096801F0700155
:1027C000884209D9A348001D006820F070006169A3
:1027D0000843A049091D0860207800F01000102867
:1027E00011D19C49091DA069096801F4E061884282
:1027F00009D99848001D006820F4E060A1690843E9
:102800009449091D0860207800F02000202811D18B
:1028100090490831E069096801F07001884209D9DE
:102820008C480830006820F07000E169084389494D
:1028300008310860207800F0020002280ED1854996
:10284000E068096801F00F01884207D981480068F3
:1028500020F00F00E16808437E490860207800F00E
:102860000100002850D07B48006820F47060A16807
:102870000843784908606068022807D1754818380D
:102880000068C0F34040F8B9012063E7606803289E
:1028900007D1704818380068C0F34060A0B9012023
:1028A00058E76068012807D16A4818380068C0F303
:1028B000002048B901204DE7664818380068C0F389
:1028C000800008B9012045E762480838006820F018
:1028D0000700616808435F4908390860FEF76CFE2D
:1028E000064608E0FEF768FE801B41F28831884208
:1028F00001D903202EE757480838006800F0380057
:102900006168B0EBC10FEDD1207800F00200022821
:102910000ED15049E068096801F00F01884207D2E2
:102920004C48006820F00F00E168084349490860FE
:102930004748006800F00F00A8420ED944480068DC
:1029400020F00F002843424908600846006800F064
:102950000F00A84201D00120FCE6207800F004001E
:1029600004280ED13B492069096801F070018842B2
:1029700007D23848006820F07000216908433549C3
:102980000860207800F00800082811D13149091D9D
:102990006069096801F07001884209D22D48001D64
:1029A000006820F07000616908432A49091D086029
:1029B000207800F01000102811D12649091DA069C7
:1029C000096801F4E061884209D22248001D0068CC
:1029D00020F4E060A16908431E49091D08602078C1
:1029E00000F02000202811D11A490831E069096857
:1029F00001F07001884209D216480830006820F0C2
:102A00007000E169084313490831086000F02CF8B0
:102A100010490968C1F303210F4A515C01F01F01FD
:102A200020FA01F70B48006800F00F001146085C1F
:102A300000F01F0027FA00F0084908600848076006
:102A400008480068FEF7FAFD8046404682E600002E
:102A50000020005218440258C65E000810000020F2
:102A60000C00002004000020F0B5824E366806F00D
:102A7000380636B1082E15D0102E15D0182E7DD15F
:102A800014E07C4E103E3668C6F3401646B1794ECF
:102A9000103E3668C6F3C107774E26FA07F000E00D
:102AA0007548E5E07548E3E07548E1E0714E183699
:102AB000366806F003046F4E18363668C6F3051103
:102AC0006C4E1C36366806F001056A4E24363668B0
:102AD000C6F3CC0616FB05F601EE106AB8EE410A05
:102AE000002971D024B1012C50D0022C6DD16DE0A1
:102AF000604E103E3668C6F340163EB35D4E103E43
:102B00003668C6F3C1075C4E26FA07F301EE103AA9
:102B1000F8EE411A01EE101AB8EE411A81EE812A40
:102B20009FED581AC0EE011A524E20363668C6F391
:102B3000080601EE106AB8EE411A31EE811AF7EE7E
:102B4000001A31EE211A62EE010A1EE001EE101A9F
:102B5000B8EE411ADFED4C1A81EE812A9FED491A39
:102B6000C0EE011A434E20363668C6F3080601EE61
:102B7000106AB8EE411A31EE811A00E076E0F7EE05
:102B8000001A31EE211A62EE010A5BE001EE101A22
:102B9000B8EE411A9FED3D2AC2EE011A9FED391A97
:102BA00080EE012A334E20363668C6F3080601EE61
:102BB000106AB8EE411A32EE011AB7EE002A31EE71
:102BC000021A61EE810A3DE04EE01DE001EE101AAE
:102BD000B8EE411ADFED2E1A81EE812A9FED291AF7
:102BE000C0EE011A234E20363668C6F3080601EE01
:102BF000106AB8EE411A31EE811AF7EE001A31EE82
:102C0000211A62EE010A1DE001EE101AB8EE411A17
:102C10009FED1E2AC2EE011A9FED1A1A80EE012ABC
:102C2000144E20363668C6F3080601EE106AB8EE78
:102C3000411A32EE011AB7EE002A31EE021A61EEA5
:102C4000810A00BF00BF0B4E20363668C6F3462609
:102C5000721C01EE102AB8EE411AC0EE811ABCEEC9
:102C6000E11A11EE100A00E0002001E0034800BF65
:102C700000BFF0BD104402580090D00300093D0091
:102C80000048E801000000460024744C0024744A07
:102C90000024F44B2DE9F047044614B90120BDE8A7
:102CA000F087207800F00100002870D0FE4800680E
:102CB00000F03808FC481830D0F80090B8F1100F38
:102CC00006D0B8F1180F0FD109F0030002280BD17C
:102CD000F54810380068C0F3404000286AD06068AA
:102CE000002867D10120DAE700BF6068B0F5803FB7
:102CF00008D1ED481038006840F48030EA491039B6
:102D000008602EE0606868B9E7481038006820F471
:102D10008030E549103908600846006820F48020BA
:102D200008601EE06068B0F5A02F0DD1DE481038B5
:102D3000006840F48020DC491039086008460068CB
:102D400040F4803008600CE0D7481038006820F468
:102D50008030D549103908600846006820F480208A
:102D6000086000BF606898B1FEF726FC054606E0E3
:102D7000FEF722FC401B642801D903208FE7CA48D4
:102D800010380068C0F340400028F1D012E012E093
:102D9000FEF712FC054606E0FEF70EFC401B642819
:102DA00001D903207BE7C04810380068C0F34040D9
:102DB0000028F1D100BF207800F0020002287BD16A
:102DC000B948006800F03808B7481830D0F80090CB
:102DD000B8F1000F05D0B8F1180F3AD109F003008F
:102DE000B0BBB14810380068C0F3800018B1E0688B
:102DF00008B9012053E700BFFEF7D8FB41F20301F9
:102E0000884219D8206940280AD1A7480C380068A0
:102E100020F47C3040F40030A3490C39086016E0FF
:102E2000A1480C38006820F47C30216940EA013068
:102E30009D490C3908600AE09B480C38006820F076
:102E4000FE40217C40EA016097490C39086067E048
:102E5000FFE7E06888B394481038006820F0190054
:102E6000E1680843904910390860FEF7A5FB054664
:102E700006E0FEF7A1FB401B022801D903200EE764
:102E8000894810380068C0F380000028F1D000BFE6
:102E9000FEF78CFB41F2030188421BD820694028D1
:102EA0000CD181480C38006820F47C3040F40030AC
:102EB0007D490C39086018E033E017E07A480C3897
:102EC000006820F47C30216940EA013076490C39F1
:102ED00008600AE074480C38006820F0FE40217C4D
:102EE00040EA016070490C39086019E06E481038FA
:102EF000006820F001006C4910390860FEF75CFBA7
:102F0000054606E0FEF758FB401B022801D90320C6
:102F1000C5E6654810380068C0F380000028F1D18C
:102F200000BF207800F0100010287CD15E480068B7
:102F300000F038085C481830D0F80090B8F1080F5D
:102F400006D0B8F1180F3DD109F00300012839D19E
:102F5000554810380068C0F3002020B1E06980288F
:102F600001D001209BE600BFFEF720FB41F20301E8
:102F700088421AD8206A20280AD14B480C380068A9
:102F800020F0F84040F0804047490C39086018E0D4
:102F900045480C38006820F0F84094F8201040EACA
:102FA000816041490C3908600BE03F48001F006810
:102FB00020F07C5094F8201040EA01603A49091F43
:102FC000086066E0E06978B337481038006840F080
:102FD0008000354910390860FEF7EEFA054606E034
:102FE000FEF7EAFA401B022801D9032057E62E48D3
:102FF00010380068C0F300200028F1D000BFFEF7B1
:10300000D5FA41F2030188421CD8206A20280CD14D
:1030100025480C38006820F0F84040F080402249F4
:103020000C3908601AE035E019E01F480C380068D8
:1030300020F0F84094F8201040EA81601A490C39D9
:1030400008600BE01848001F006820F07C5094F8DE
:10305000201040EA01601449091F086019E0124875
:103060001038006820F080000F4910390860FEF722
:10307000A3FA054606E0FEF79FFA401B022801D995
:1030800003200CE6084810380068C0F30020002830
:10309000F1D100BF207800F00800082834D1606921
:1030A000D8B10148643001E010440258006840F093
:1030B0000100EF490860FEF77FFA054606E0FEF7DB
:1030C0007BFA401B022801D90320E8E5E8480068A4
:1030D000C0F340000028F2D016E0E548006820F078
:1030E0000100E3490860FEF767FA054606E0FEF7CF
:1030F00063FA401B022801D90320D0E5DC480068B0
:10310000C0F340000028F2D1207800F020002028F1
:1031100036D1A069D0B1D6487438006840F48050E8
:10312000D34974390860FEF747FA054606E0FEF712
:1031300043FA401B022801D90320B0E5CC4874387B
:103140000068C0F340300028F1D019E0C848743856
:10315000006820F48050C64974390860FEF72CFAE4
:10316000054606E0FEF728FA401B022801D9032095
:1031700095E5BF4874380068C0F340300028F1D1AD
:10318000207800F0040004287DD1BA48006840F49B
:103190008070B8490860FEF70FFA054606E0FEF7B2
:1031A0000BFA401B642801D9032078E5B148006878
:1031B00000F480700028F2D000BFA068012808D178
:1031C000AB48001F006840F00100A949091F0860D2
:1031D0002DE0A06868B9A648001F006820F0010033
:1031E000A349091F08600846006820F00400086031
:1031F0001DE0A06805280DD19D48001F006840F023
:1032000004009B49091F08600846006840F001005F
:1032100008600CE09648001F006820F00100944907
:10322000091F08600846006820F00400086000BF1D
:10323000A068A0B1FEF7C0F9054608E0FEF7BCF9AA
:10324000401B41F28831884201D9032027E5884894
:10325000001F0068C0F340000028EFD013E0FEF725
:10326000ABF9054608E0FEF7A7F9401B41F28831AB
:10327000884201D9032012E57D48001F0068C0F391
:1032800040000028EFD1606A00287DD0784864387B
:10329000006800F03800182877D0606A022875D1DD
:1032A00073487438006820F0807071497439086080
:1032B000FEF782F9054606E0FEF77EF9401B02287C
:1032C00001D90320EBE46A4874380068C0F3406019
:1032D0000028F1D100BFD4E90A1041EA0010644986
:1032E0004C39096840F2F3329143084360494C3944
:1032F0000860208E401EC0F30800616B491E4FF429
:103300007E4202EA41210843218F491ED20102EA8E
:10331000014108433C21095D491E120202EA016194
:10332000084353494439086000BF081F006820F073
:103330000100091F08604E48403800684FF6F871D8
:103340008843A16C40EAC1004949403908604848B7
:103350004838006820F00C00216C08434449483983
:1033600008600846006820F00200616C084340498C
:10337000483908600846006840F480300860084614
:10338000006840F4003002E06FE041E025E00860B2
:103390000846006840F4802008600846006840F055
:1033A0000100086032487438006840F0807030498D
:1033B00074390860FEF700F9054606E0FEF7FCF8F0
:1033C000401B022801D9032069E4294874380068A9
:1033D000C0F340600028F1D047E025487438006809
:1033E00020F08070224974390860FEF7E5F8054640
:1033F00006E0FEF7E1F8401B022801D903204EE465
:103400001B4874380068C0F340600028F1D12CE0FC
:1034100017484C380768164844380668606A01281F
:1034200021D007F00301A06A81421CD1C7F3051126
:10343000E06A884217D1C6F30801206B401E814222
:1034400011D1606B401EC6F3462188420BD1A06BA0
:10345000401EC6F30641884205D1E06B401EC6F30C
:103460000661884201D0012019E4002017E4000021
:10347000744402580048025810B504460CB90120A3
:1034800010BD022084F881002068006820F001004F
:1034900021680860204600F0C9F80020C4F88400C4
:1034A00084F8810000BF84F8800000BF00BFE7E718
:1034B00070B5044600260CB9012070BD606A00B9E1
:1034C00000BF0021A1625649206888420CD05549AE
:1034D0002068884208D054492068884204D0E068B7
:1034E0000F2801D90120E8E7204601F0EAF9054656
:1034F0004B492068884209D04A492068884205D053
:1035000049492068884201D0082D0DD844492068D7
:10351000884207D043492068884203D04249206846
:10352000884203D1102D01D90120C6E794F881000B
:1035300028B9002084F88000204600F079F80220A5
:1035400084F881002068006820F00100216808608C
:10355000A069B0F1806F11D16068B0F5800F01D122
:10356000A06B28B1606848B9A06BB0F1805F05D14D
:103570002068006840F4805021680860A16AE06912
:1035800008433043E16B0843E168084321688860E1
:10359000616A606B0843A16B0843A1690843216914
:1035A000084361690843216A084361680843E16C84
:1035B0000843A1680843A16C0843A16D0843216832
:1035C000C860606878B92068806820F4C05040F412
:1035D0000060216888602068806820F4C06040F442
:1035E0008060216888602068006D20F001002168FB
:1035F0000865606800F48000B0F5800F07D120688E
:10360000C06820F00040616D08432168C860002058
:10361000C4F88400012084F8810000204DE70000F8
:103620000030014000380040003C0040704700007E
:1036300010B586B0044600BF2B48006840F0020079
:10364000294908600846006800F00200009000BFA9
:1036500000BF00BF0846006840F00200086008464E
:10366000006800F00200009000BF00BF00BF0846E5
:10367000006840F0020008600846006800F00200A0
:10368000009000BF00BF00BF17481030006840F432
:1036900080501549103108600846006800F48050D9
:1036A000009000BF00BF082001900220029000207F
:1036B0000390022004900520059001A90B48FDF716
:1036C0006BFE102001900520059001A90748FDF729
:1036D00063FE802001900520059001A90448FDF7B4
:1036E0005BFE06B010BD0000E04402580004025822
:1036F000000002582DE9FF4F85B004468A461F4658
:10370000129E002004902068203003902068303002
:10371000029000BF94F88000012803D1022009B074
:10372000BDE8F08F012084F8800000BFFDF744FF62
:1037300081463D46A84694F881B060680190BBF18F
:10374000010F11D00198B0F5800F04D1A06810B915
:10375000BBF1040F08D00220049000BF002084F8C1
:10376000800000BF0498DAE7BAF1000F02D0079892
:1037700000B147B90120049000BF002084F8800008
:1037800000BF0498CBE794F88100042802D00520FC
:1037900084F881000020C4F8840007986066A4F8CB
:1037A0006A70A4F86870C4F85CA0A4F86270A4F809
:1037B0006070002020676067206840686FF30F002A
:1037C0003843216848602068006840F001002168A3
:1037D00008606068B0F5800F05D12068006840F48B
:1037E000007021680860E0680F284DD946E0206825
:1037F000406900F0020002280ED16DB1E06D006852
:1038000021680862E06D001DE065B4F86200401EAA
:10381000A4F86200B4F862502068406948F20801D8
:10382000084080B1B8F1000F0DD02068006B616EC8
:103830000860606E001D6066B4F86A00401EA4F85F
:103840006A00B4F86A80FDF7B7FEA0EB0900B04249
:1038500001D3701C00B98EB9204600F0C7FF00BF2D
:10386000002084F8800000BFD4F8840040F4807009
:10387000C4F88400012084F8810050E7002DB6D1FF
:10388000B8F1000FB3D115E1E068072873D96BE0F8
:103890002068406900F00200022820D1FDB1012D0E
:1038A00010D9E06B70B1E06D006821680862E06DCE
:1038B000001DE065B4F86200801EA4F86200B4F850
:1038C00062500CE054F85C0F018803980180206876
:1038D000801C2060E088401EE080E5885C3C206819
:1038E000406900F4604020B3B8F1000F21D0206897
:1038F000406900F4004070B12068006B616E0860A0
:10390000606E001D6066B4F86A00801EA4F86A004C
:10391000B4F86A800DE00298008854F8641F0880AB
:103920002068801C2060E088401EE080B4F806809B
:10393000643CFDF741FEA0EB0900B04201D3701CCE
:1039400000B98EB9204600F051FF00BF002084F876
:10395000800000BFD4F8840040F48070C4F8840074
:10396000012084F88100DAE6002D91D1B8F1000F32
:103970008ED19FE0FFE797E02068406900F00200E9
:10398000022835D125B3032D11D9E06B40280ED97B
:10399000E06D006821680862E06D001DE065B4F824
:1039A0006200001FA4F86200B4F8625020E0012D0C
:1039B0000FD9E06B68B154F85C0F0188039801805F
:1039C0002068801C2060E088801EE080E5885C3CE8
:1039D0000EE0E06D0078216881F82000E06D401C69
:1039E000E065B4F86200401EA4F86200B4F86250CA
:1039F0002068406900F4604058B3B8F1000F38D037
:103A00002068406900F4004070B12068006B616E6E
:103A10000860606E001D6066B4F86A00001FA4F8BC
:103A20006A00B4F86A8024E02068406900F4C0406D
:103A3000B0F5005F0ED90298008854F8641F088022
:103A40002068801C2060E088801EE080B4F806803A
:103A5000643C0EE0206890F83000616E0870606E83
:103A6000401C6066B4F86A00401EA4F86A00B4F80E
:103A70006A80FDF7A1FDA0EB0900B04201D3701CE4
:103A800000B98EB9204600F0B1FE00BF002084F8D6
:103A9000800000BFD4F8840040F48070C4F8840033
:103AA000012084F881003AE6002D7FF465AFB8F17B
:103AB000000FFAD14B46002208212046009600F064
:103AC0005BFF28B1D4F8840040F02000C4F88400E3
:103AD000204600F08BFE00BF002084F8800000BF6D
:103AE000012084F88100D4F8840008B1012016E692
:103AF000049814E670B504462546681EB0F1807F30
:103B000001D301200FE0681E4FF0E02148610F2132
:103B10004FF0FF3001F0BAFB00204FF0E021886148
:103B200007200861002070BD30B502460B4600BF7B
:103B300092F83C00012801D1022030BD012082F81A
:103B40003C0000BF022082F83D0010684168106808
:103B500084681F4D1068A84203D01E4D1068A8420B
:103B600003D121F470015868014321F070011868F5
:103B7000014310684160164D1068A84217D01068C4
:103B8000B0F1804F13D0144D1068A8420FD0134DE0
:103B90001068A8420BD0124D1068A84207D00D4DF6
:103BA0001068A84203D00F4D1068A84205D124F038
:103BB00080049868044310688460012082F83D0006
:103BC00000BF002082F83C0000BF00BFB5E7000046
:103BD00000000140000401400004004000080040D3
:103BE000000C00400018004010B504460CB901203C
:103BF00010BD94F83D0028B9002084F83C00204610
:103C000000F02AF8022084F83D00211D206801F010
:103C100079F8012084F8480000BF84F83E000121B3
:103C20003F200155402001554120015542200155BA
:103C30004320015500BF00BF012084F84400452007
:103C40000155462001554720015500BF012084F849
:103C50003D000020CCE7000008B5124A01689142FF
:103C60000DD100BF1049096841F002010E4A1160F0
:103C70001146096801F00201009100BF11E00168DE
:103C8000B1F1804F0DD100BF0749096841F0010132
:103C9000054A11601146096801F00101009100BF59
:103CA00000BF08BD00040040E84402582DE9F0417F
:103CB00004460D4600BF94F83C00012802D10220C2
:103CC000BDE8F081012084F83C0000BF022084F8A8
:103CD0003D00206886684048064026F47F462068FC
:103CE00086602868702826D00CDC00F00F010029BF
:103CF00066D10011072863D2DFE800F05556575807
:103D00004B374100B0F1101F52D009DCB0F5805F95
:103D100010D0B0F5005F1BD0B0F5801F50D146E049
:103D2000A0F580102038002843D0102842D0202849
:103D300046D140E045E0D5E902136A68206801F009
:103D400058F82068866846F077062068866038E074
:103D5000D5E902136A68206801F04BF82068806892
:103D600040F48040216888602BE0EA686968206838
:103D700001F05AFA5021206801F046F821E0EA6883
:103D80006968206801F063FA6021206801F03CF85E
:103D900017E0EA686968206801F046FA4021206867
:103DA00001F032F80DE000BF00BF00BF00BF00BF50
:103DB00000BF00BF00BF2968206801F025F800E0BF
:103DC00000BF00BF012084F83D0000BF002084F840
:103DD0003C0000BF00BF73E788FFCEFF10B586B080
:103DE0000446142101A8FCF7B6FB2049206888424C
:103DF0001BD100BF1E48006840F002001C4908604B
:103E00000846006800F00200009000BF00BF2020BC
:103E1000019002200290002003900490022005905F
:103E200001A91448FDF7B8FA1EE02068B0F1804FF0
:103E30001AD100BF0E48006840F001000C4908602C
:103E40000846006800F00100009000BF00BF01209C
:103E50000190022002900020039004900120059020
:103E600001A90548FDF798FA06B010BD000400400E
:103E7000E0440258000402580000025870B504469D
:103E80000D46164600BF94F83C00012801D10220DF
:103E900070BD012084F83C0000BF0C2E51D005DC21
:103EA0004EB1042E1ED0082E7AD133E0102E60D0F1
:103EB000142EF9D175E02946206801F009F8206830
:103EC000806940F00800216888612068806920F0DE
:103ED0000400216888612068806929690843216895
:103EE000886177E02946206801F048F820688069F9
:103EF00040F40060216888612068806920F4806057
:103F00002168886120688069296940EA0120216868
:103F100088615FE02946206801F08AF82068C0695E
:103F200040F008002168C8612068C06920F00400E2
:103F30002168C8612068C069296908432168C8618F
:103F400048E02946206801F0CBF82068C06940F4B9
:103F500000602168C8612068C06920F48060216821
:103F6000C8612068C069296940EA01202168C861E8
:103F700030E02946206801F0EBF82068406D40F001
:103F80000800216848652068406D20F00400216821
:103F900048652068406D296908432168486519E033
:103FA00017E02946206801F009F92068406D40F4C7
:103FB0000060216848652068406D20F480602168B9
:103FC00048652068406D296940EA012021684865FC
:103FD00000E000BF00BF00BF002084F83C0000BF2D
:103FE00000BF55E710B504460CB9012010BD94F888
:103FF0003D0028B9002084F83C00204600F029F854
:10400000022084F83D00211D206800F07BFE012085
:1040100084F8480000BF84F83E0001213F2001558C
:1040200040200155412001554220015543200155B2
:1040300000BF00BF012084F8440045200155462000
:1040400001554720015500BF012084F83D000020A4
:10405000CCE7704770B504460D4615B994F83E009C
:1040600015E0042D02D13F20005D10E0082D02D1A3
:104070004020005D0BE00C2D02D14120005D06E0E8
:10408000102D02D14220005D01E04320005D012897
:1040900001D0012070BD1DB9022084F83E001AE055
:1040A000042D03D102213F20015514E0082D03D136
:1040B0000221402001550EE00C2D03D102214120A8
:1040C000015508E0102D03D102214220015502E0E4
:1040D00002214320015501222946206800F078FE84
:1040E0002949206888420FD02849206888420BD08F
:1040F00027492068884207D026492068884203D093
:1041000025492068884201D1012000E0002028B123
:104110002068406C40F40040216848641A492068D7
:10412000884217D02068B0F1804F13D01B49206817
:1041300088420FD01A49206888420BD0194920685C
:10414000884207D011492068884203D01649206868
:10415000884210D120688068144900EA0106062EC2
:104160000FD0B6F5803F0CD02068006840F0010009
:104170002168086005E02068006840F001002168BF
:104180000860002086E700000000014000040140B4
:10419000004001400044014000480140000400404C
:1041A00000080040000C004000180040070001001B
:1041B00000BFFEE7F0B58E880768FF68C7F30B47BE
:1041C0003E44330406688436802707FB026676681F
:1041D00006F47047066884364FF0800C0CFB0266CC
:1041E00077600E680768FF68C7F30B473E44761C8C
:1041F0001E43076884370CFB02777E608E89076850
:10420000FF68C7F30A073E443304066884368027F4
:1042100007FB0266B66806F47047066884360CFB36
:104220000266B7608E680768FF68C7F30A073E44F6
:10423000761C46EA0307066884360CFB0266B76004
:1042400006688436802707FB0266366926F0070772
:10425000066884360CFB026637610F69066884368F
:104260000CFB026637613126765C33023226765CBF
:1042700034040E7E350606688436802707FB026606
:10428000B6690027066884360CFB0266B76191F8B0
:1042900030601E43264346EA0507066884360CFB59
:1042A0000266B76106688436802707FB0266766976
:1042B00026F0FF07066884360CFB026677614F69BB
:1042C000066884360CFB02667761066884368027B0
:1042D00007FB0266F66940F20777BE43076884373A
:1042E0000CFB0277FE61D1E9077637430668843616
:1042F0000CFB0266F76106688436802707FB0266BE
:10430000B66A0027066884360CFB0266B7624F6AFD
:10431000066884360CFB0266B7620E690EB9042388
:1043200013E00E69012E01D103230EE00E69042E65
:1043300008D00E69022E05D00E69032E02D00E6938
:10434000072E01D1022300E001230668843680276E
:1043500007FB0266F66A06F0E027066884364FF02F
:10436000800C0CFB0266F762D1E90076F61B5E4317
:10437000F61D0F8D5F4346EA0747066884360CFB3F
:104380000266F76206688436802707FB0266366B92
:10439000F70AFF02066884360CFB02663763CF6AB1
:1043A000066884360CFB0266376306688436D701DC
:1043B000F65946F00107066884364FEAC21C46F8F3
:1043C0000C70F0BD08B500F01BF8B42000F028FD1B
:1043D000012001F0C7FC00BF0848006840F0100051
:1043E000064908600846006800F01000009000BF11
:1043F00000BF0121084600F085FF08BDD4440258E3
:1044000000B58DB034216846FCF7A5F83148324933
:1044100008600020486000212F488160C160016170
:104420000321416181610B21C161016240F22B31A5
:10443000416240F2EB11816240F23331C16240F2DD
:10444000F3110163002180F8341080F8351080F8F2
:104450003610FDF7CDF908B1FCF74CF900200090BB
:104460001E4800890190002002901C48408903905A
:1044700005200490FF200590002006904FF48060F6
:104480000790052008904FF01050099013480089BC
:104490000A90124840890B9000208DF830000021CE
:1044A0008DF831108DF83210002269460A48FDF768
:1044B00049F908B1FCF71EF900234FF4807208494E
:1044C0000548FDF7E7F800210348FDF76AF90DB04C
:1044D00000BD000000100050CC0200203C00002075
:1044E000D85E000800BFFEE700BFFEE7704700008F
:1044F0002DE9F04104460E4600275548006800F0BB
:104500000300032802D10120BDE8F081504828387B
:10451000006820F080604E4928390860FDF74CF8AB
:10452000054606E0FDF748F8401B022801D90320A4
:10453000EAE7474828380068C0F3C0600028F1D196
:1045400000BF4348006820F47C30216840EA013015
:104550003F490860A088401EC0F30800A168491EBA
:104560004FF47E4202EA41210843A189491ED2014B
:1045700002EA01410843217C491E120202EA01615C
:10458000084333491031086000BF3148001D0068FE
:1045900020F0C000616908432D49091D08600846E4
:1045A000006820F02000A16908432949091D08601E
:1045B0000846006820F010000860254814300068A4
:1045C0004FF6F8718843E16940EAC100204914318F
:1045D00008601F48001D006840F010001C49091DBC
:1045E00008602EB90846006840F40020086012E018
:1045F000012E08D11648001D006840F480101449AF
:10460000091D086007E01248001D006840F4001012
:104610000F49091D08600E482838006840F0806086
:104620000B4928390860FCF7C7FF054606E0FCF790
:10463000C3FF401B022801D9032065E7044828383E
:104640000068C0F3C0600028F1D038465CE7000085
:10465000284402582DE9F04104460E4600275548EB
:10466000006800F00300032802D10120BDE8F081BA
:1046700050482838006820F080504E49283908609A
:10468000FCF79AFF054606E0FCF796FF401B022860
:1046900001D90320EAE7474828380068C0F3407092
:1046A0000028F1D100BF4348006820F07C702188C9
:1046B00040EA01503F490860A088401EC0F308004E
:1046C000A168491E4FF47E4202EA41210843A189B4
:1046D000491ED20102EA01410843217C491E12020F
:1046E00002EA0161084333491831086000BF3148CC
:1046F000001D006820F44060616908432D49091DD0
:1047000008600846006820F40070A1690843294940
:10471000091D08600846006820F48070086025487C
:104720001C3000684FF6F8718843E16940EAC10027
:1047300020491C3108601F48001D006840F480704B
:104740001C49091D08602EB90846006840F4800025
:10475000086012E0012E08D11648001D006840F4E0
:1047600000001449091D086007E01248001D006898
:1047700040F080700F49091D08600E482838006815
:1047800040F080500B4928390860FCF715FF0546BA
:1047900006E0FCF711FF401B022801D9032065E762
:1047A000044828380068C0F340700028F1D038462B
:1047B0005CE7000028440258012001490870704756
:1047C00024000020002001490870704724000020C8
:1047D00010B5002004490870002211464FF0005027
:1047E00000F07CF810BD0000240000200268516930
:1047F0000268926942F0080203689A61026892694D
:1048000042F0100203689A610268126822F0010205
:1048100003681A600268126940F26F339A430368B2
:104820001A610268926822F4404203689A6090F824
:104830008120042A0ED001F020025AB1D0F8842041
:1048400042F08002C0F884200268926942F020029F
:1048500003689A6190F88120032A0ED001F040028B
:104860005AB1D0F8842042F00402C0F884200268D3
:10487000926942F0400203689A6101F400725AB1F1
:10488000D0F8842042F00102C0F8842002689269C6
:1048900042F4007203689A6101F480725AB1D0F850
:1048A000842042F00802C0F884200268926942F431
:1048B000807203689A610022A0F86220A0F86A2042
:1048C000704710B501460124C86B04EB5013C8684B
:1048D000421CD01DC20802FB03F010BD70B5064695
:1048E0000C4615461F480068B04208D11E480068B3
:1048F000A04204D11D480068A84200D170BD1948EB
:10490000066019480460194805601948194908608B
:104910000846C66100218160446105610721C160CC
:1049200000210162416281620721C16209040163C1
:104930004FF0806181610021C16341634FF000410C
:104940004165480A0B4948600846FEF795FD08B1E5
:10495000FBF7D0FE0748FEF7ABFD08B1FBF7CAFE38
:1049600000BFCBE714000020180000201C0000202E
:10497000003001400C0400202DE9F04106460C46B1
:1049800017469846069D0BE0FCF716FEA0EB0800C4
:10499000A84201D3681C00B915B90320BDE8F08115
:1049A000306840692040A04201D1012000E0002091
:1049B000B842E9D00020F1E77047000010B5FCF7DD
:1049C00001FE0448007800B910BD00F005F800BFF2
:1049D000FAE700003800002010B51B48006840B11D
:1049E00019480068401E1849086010B9012017498D
:1049F0000870002408E004EB4401154A02EB810032
:104A000000F020F9601CC4B2042CF4DB11480068EB
:104A1000401C10490860084600686FF00041884259
:104A200002D100200B49086001F0CBF80A48007859
:104A3000401CC0B2084908700A2803DB0020087037
:104A400001F0BEF810BD00002C0000203000002056
:104A500084250020340000203900002000B59DB0DE
:104A60004C210AA8FBF777FD202102A8FBF773FD74
:104A70000220FDF787F800BF002001902D48006854
:104A800040F440402B4908600846006800F440406C
:104A900001902948006840F0010027490860084655
:104AA000006800F00100019000BF00BF00BF214876
:104AB000006800F40050B0F5005FF8D11F480068AE
:104AC00020F00300801C1D49086001200A900004AA
:104AD0000B9002201390022114910421159178214A
:104AE00016910221179105211891022119910C218B
:104AF0001A9100211B911C910AA8FEF7CBF808B16E
:104B0000FBF7F8FD3F200290032003900020049063
:104B10000820059040200690079000010890402052
:104B20000990042102A8FDF70FFE08B1FBF7E2FD92
:104B30001DB000BD184802582C04005828440258E3
:104B40003648006840F47000344908603448006812
:104B500000F00F00072806D23148006820F00F004F
:104B6000C01D2F4908602F48006840F001002D4902
:104B7000086000202B49103108602A4800682A4943
:104B80000840284908602648006800F00F00072800
:104B900006D92348006820F00F00C01D2049086096
:104BA0000020204918310860091D0860091D0860AF
:104BB0001E481C49283108601D48091D08601D4811
:104BC000091D08600020091D08601A48091D0860B9
:104BD0000020091D08601748091D08600020091DF4
:104BE00008601048006820F480200E49086000200A
:104BF0000C4960310860104800686FF30F00B0F195
:104C0000005F02D201200D49086043F2D2000C4936
:104C100008604803014980390860704788ED00E06A
:104C200000200052004402587FEDF6EA0002020222
:104C30000000FF01800201010010005C08810051AA
:104C400000400052416851B14168491E416031B98C
:104C5000012141700178012901D1816841607047CB
:104C600070B5002016E0002100EB4002204B03EB62
:104C70008202516000EB400203EB8202916000EB84
:104C8000400203EB8202517000EB400203F8221055
:104C9000411CC8B20428E6DB164909684FF47A7350
:104CA000B1FBF3F2511EB1F1807F00D31BE0511E26
:104CB0004FF0E023596159170F23002904DB1C072B
:104CC000250E0D4C655406E01C07260E0B4C01F01A
:104CD0000F052D1F665500BF00214FF0E02399619D
:104CE0000721196100BF0121054A117070BD000044
:104CF000842500200C00002000E400E018ED00E016
:104D00003800002010B50268294B98420ED0B0F14F
:104D1000804F0BD0274B984208D0274B984205D0A4
:104D2000264B984202D0264B984203D122F07002C3
:104D30004B681A431E4B984217D0B0F1804F14D0E5
:104D40001C4B984211D01C4B98420ED01B4B9842E2
:104D50000BD01B4B984208D01A4B984205D01A4BE7
:104D6000984202D0194B984203D122F44072CB688A
:104D70001A4322F080034C6943EA040202608B6804
:104D8000C3620B6883620A4B98420BD00C4B98426B
:104D900008D00C4B984205D00B4B984202D00B4BDD
:104DA000984201D10B6903630123436110BD0000E8
:104DB000000001400004004000080040000C0040DA
:104DC000000401400040014000440140004801400F
:104DD00030B501F01F05012404FA05F3046A9C4371
:104DE0000462046A01F01F0502FA05F52C4304620F
:104DF00030BD30B50C46816821F47F4142EA03257D
:104E000025432943816030BD0A468168034B194020
:104E100042F0070319438160704700008FFFCFFF06
:104E200010B58EB0044600200A900B900C900D90A7
:104E30000790089009901C216846FBF78CFB2248DC
:104E400022490860EF204860002120488160FF214E
:104E5000C1600021016180218161FEF7C5FE08B1BA
:104E6000FBF748FC4FF480500A900AA91748FEF758
:104E70001DFF08B1FBF73EFC1448FFF7B3F808B17B
:104E8000FBF738FC00200790099007A90F48FEF7B0
:104E90004BFE08B1FBF72EFC60200090019400202F
:104EA00002900490042269460848FEF7E7FF08B123
:104EB000FBF720FC0548FEF791FF04210348FFF7AC
:104EC000C9F80EB010BD000000040040C00300206F
:104ED00030B5056A25F001050562026A43688469F8
:104EE000204D2C4024F003040D682C4322F00202D4
:104EF0008D682A431C4DA84200D10FE01B4DA842EB
:104F000000D10BE01A4DA84200D107E0194DA8428C
:104F100000D103E0184DA84206D100BF22F00802DC
:104F2000CD682A4322F004020F4DA8420BD00F4D4A
:104F3000A84208D00E4DA84205D00E4DA84202D07E
:104F40000D4DA84207D123F4807323F400734D69FB
:104F50002B438D692B43436084614D684563026236
:104F600030BD00008FFFFEFF000001400004014043
:104F700000400140004401400048014030B5056A4E
:104F800025F010050562026A43688469224D2C40B1
:104F900024F440740D6844EA052422F020028D6850
:104FA00042EA05121D4DA84200D10FE01C4DA84257
:104FB00000D10BE01B4DA84200D100BF1A4DA84202
:104FC00000D100BF194DA84207D106E022F08002AF
:104FD000CD6842EA051222F04002104DA8420BD0E3
:104FE0000F4DA84208D00F4DA84205D00E4DA84243
:104FF00002D00E4DA84209D123F4806323F400634C
:105000004D6943EA85038D6943EA85034360846102
:105010004D688563026230BDFF8FFFFE00000140D6
:1050200000040140004001400044014000480140AC
:1050300030B5056A25F480750562026A4368C46963
:1050400024F0700424F003040D682C4322F4007251
:105050008D6842EA05221D4DA84200D10FE01C4D8B
:10506000A84200D10BE01B4DA84200D100BF1A4D51
:10507000A84200D100BF194DA84207D106E022F492
:105080000062CD6842EA052222F480620F4DA842F8
:105090000BD00F4DA84208D00E4DA84205D00E4DA2
:1050A000A84202D00D4DA84209D123F4805323F425
:1050B00000534D6943EA05138D6943EA05134360C4
:1050C000C4614D68C563026230BD0000000001404C
:1050D00000040140004001400044014000480140FC
:1050E00030B5056A25F480550562036A4468C269D3
:1050F00022F4E04222F440720D6842EA052223F4D1
:1051000000538D6843EA05330C4DA8420BD00C4D7B
:10511000A84208D00B4DA84205D00B4DA84202D0A2
:105120000A4DA84204D124F480444D6944EA851410
:105130004460C2614D680564036230BD00000140F7
:10514000000401400040014000440140004801408B
:1051500030B5056A25F480350562046A4268436DFE
:1051600023F070030D682B4324F400340D8944EAC6
:1051700005440D4DA8420BD00C4DA84208D00C4D53
:10518000A84205D00B4DA84202D00B4DA84204D135
:1051900022F480324D6942EA0522426043654D683F
:1051A0008565046230BD000000000140000401403C
:1051B00000400140004401400048014030B5056A0C
:1051C00025F480150562036A4468426D22F4E042CA
:1051D0000D6842EA052223F400130D8943EA0553C2
:1051E0000C4DA8420BD00C4DA84208D00B4DA84244
:1051F00005D00B4DA84202D00A4DA84204D124F498
:1052000000344D6944EA8524446042654D68C565B3
:10521000036230BD00000140000401400040014035
:10522000004401400048014030B50B461446026A74
:10523000056A25F001050562816921F0F00141EA66
:10524000041122F00A021A438161026230BD30B5B6
:105250000B461446056A25F0100505628169026A4D
:1052600021F4704141EA043122F0A00242EA031223
:105270008161026230BD00BFFEE7000002480068A5
:10528000C0F30220704700000CED00E010B50028CC
:1052900004DB0A07130E054A135406E00A07140E2E
:1052A000034A00F00F031B1FD45410BD00E400E0BC
:1052B00018ED00E010B50020FBF7EEF90120FBF738
:1052C000D3F910BD08B50A480068B0F5805F00D971
:1052D00008BD084800900648008883B2064A07497E
:1052E0000748FEF707FA08B1FBF704FA00BFEFE73B
:1052F0002000002040420F0084150020840500207B
:105300000C0400207CB505460C46012C10D1264823
:10531000007918B124480079012809D1224ECDE93D
:10532000005473893289F189B08900F0CBFA39E0F1
:10533000012C11D11C480079022803D01A480079A9
:10534000032809D1184ECDE9005433897289F189B7
:10535000B08900F0B7FA25E0022C10D1124800798C
:1053600018B111480079012809D10F4ECDE9005438
:10537000F38AB28A718B308B00F0A4FA12E0022C0F
:1053800010D109480079022803D007480079032882
:1053900008D1054ECDE90054B38AF28A718B308B67
:1053A00000F090FA7CBD00003C0000202DE9FF4F8A
:1053B000ADB0074616461C46DDF8E8804FF0000BFE
:1053C00000200890049003902078202826D006DC46
:1053D0000C280BD0102811D018282AD116E021282B
:1053E00024D0222823D0232823D121E00C20089088
:1053F000834601200490022003901AE010200890B8
:105400008346012004900220039012E018200890A7
:10541000834602200490032003900AE02020089095
:105420008346022004900420039002E000BF00BFE6
:1054300000BF00BF2146304600F05AFB05464FF042
:105440000009A84510DD3B98022804D1A8EB05000F
:105450001FFA80F908E03B98012805D1A8EB050068
:1054600000EBD071C1F34F09B9F1000F10DD2046F8
:1054700000F0FCFA012102902079CDE900014A46B2
:105480003846029B2E9900F01DFA07EB090087B2FF
:10549000A84512DD204600F0E9FA012102902079AA
:1054A000CDE90001A8EB0501A1EB09018AB2791948
:1054B00088B2029B2E9900F005FA66E030782C90B5
:1054C0002C9880280DDA21780BAA2C9800F088FB04
:1054D00058460BEBD071C1F347010A91049805902F
:1054E00010E0701C064600782B902B9800B94FE016
:1054F00022780BABDDE92B1000F0D4FBCDF828B0FF
:10550000039805902E9806900020099033E00797A5
:105510004FF0000A24E005990998484300EBDA00AF
:105520000BA9085C0AF0070280211141084030B144
:10553000A2783C9BDDE9061000F01AFC0AE0A08886
:1055400049F69911884205D022793C9BDDE9061085
:1055500000F00EFC0798401C80B207900AF1010A87
:105560000A988245D7D30698401C80B206900998C5
:10557000401C80B20990DDE908108842C7DBE18851
:105580000A980844384487B2761C3078002895D1B0
:1055900000BF31B0BDE8F08FF8B5074602242748B8
:1055A00001780120884085B225480088A0F2153096
:1055B000032190FBF1F006B20120009020484088C2
:1055C000233881B2C5F340031C4A521C2046FBF726
:1055D00035FE06F1C400204484B201200090184832
:1055E0004088233881B2C5F38003144A1A3220461A
:1055F000FBF724FE06F1C400204484B20120009091
:105600000F484088233881B2C5F3C0030B4A3332B8
:105610002046FBF713FE06F1C400204484B20120AB
:10562000009007484088233881B2C5F30013034A2D
:105630004C322046FBF702FEF8BD00005C02002061
:105640003C0000202DE9F0430546884616461F46DB
:10565000DDF81C90002408E0291988B24B463A4630
:10566000414600F085FB601C84B2B442F4DBBDE827
:10567000F08300002DE9FE43064656480068817914
:10568000012088401FFA80F85348007888B901202B
:105690000721CDE9001051494988491E8BB24F4975
:1056A0000988A53988B2A022002100F00BF9BDE8D5
:1056B000FE834B48007800B9F9E724244748408826
:1056C000401E001BA0F5C070052190FBF1F007B251
:1056D000002F00DA002707204249888000204880F8
:1056E0000120A022CDE900200B4602901B78C3F1D7
:1056F000200909EBD973C3F34F01364B1B681A68B5
:10570000364B1B88A53B98B2364BFFF74FFE31480E
:1057100000684079012803D12E480068C51D08E0C3
:105720002C4800684079022803D12A48006800F11B
:10573000FD052A4900960988A33988B2C8F34003B9
:105740006A1C2146FBF7D4FC07F14600204484B2D2
:10575000224900960988A33988B2C8F3800305F16D
:1057600032022146FBF7C4FC07F14600204484B214
:105770001A4900960988A33988B2C8F3C00305F115
:1057800063022146FBF7B4FC07F14600204484B2D3
:10579000124900960988A33988B2C8F3001305F1AD
:1057A00094022146FBF7A4FC07F14600204484B292
:1057B0000A4900960988A33988B2C8F3401305F155
:1057C000C5022146FBF794FC00200549087000BF84
:1057D0006DE7000060000020640000203C00002015
:1057E0005D000020C20200202DE9F84306460F4666
:1057F00090461D46DDE908944B4642463946304600
:105800000094FFF71FFF06EB0801491E88B24B46C4
:105810002A463946009400F012F87819401E81B2E9
:105820004B46424630460094FFF70CFF4B462A4653
:1058300039463046009400F002F8BDE8F8832DE9BF
:10584000F04380460D4616461F46DDF81C900024A6
:1058500008E0281981B24B463A46404600F088FAE3
:10586000601C84B2B442F4DBBDE8F0833EB504466C
:1058700009204FF4A3734FF4F3723821CDE90004EB
:10588000084600F01FF800204FF4A3734FF4F372A2
:105890003221CDE90004084600F014F80020074941
:1058A00088800120488000210091044B04A2CDE9AA
:1058B000011032210846FFF779FD3EBDC2020020EB
:1058C000313233002DE9F04FDDE9098748EA082934
:1058D000844600EBDC7A4FEA6A0AA0EB4A0ABAF186
:1058E000010F07D100F1010C1FFA8CF0A2F1010C9D
:1058F0001FFA8CF2944602EBDC7A4FEA6A0AA2EBBA
:105900004A0ABAF1010F03D1A2F1010C1FFA8CF27D
:10591000DFF850C19CF804C0BCF1000F48D0DFF89C
:1059200044C19CF804C0BCF1010F14D1DFF834C1AC
:10593000BCF800C0ACEB000CACEB020C1FFA8CF016
:10594000DFF820C1BCF802C0ACEB010CACEB030CDF
:105950001FFA8CF12CE0DFF80CC19CF804C0BCF1FC
:10596000020F0FD10C46DFF8FCC0BCF802C0ACEB54
:10597000000CACEB020C1FFA8CF1204614461A46C0
:10598000234615E0DFF8DCC09CF804C0BCF1030F2F
:105990000ED10C460146DFF8CCC0BCF800C0ACEB21
:1059A000040CACEB030C1FFA8CF014461A46234689
:1059B000012F14D1DFF8ACA0BAF808A0AAEB020CB2
:1059C0000CEBDC7ACAF34F05DFF898C0BCF808C0CE
:1059D0000CFB01FC0CF1105C0CEB000611E0022F3B
:1059E0000FD1DFF880A0BAF814A0AAEB020C0CEBE0
:1059F000DC7ACAF34F05DFF86CC0BCF814C001FBB9
:105A00000C064FF4403CDFF860A0CAF800C0D44652
:105A1000CCF83890CCF83C60CCF840504FF0020CF9
:105A2000CAF834C0944602EBDC7A4FEA6A0A43EAC9
:105A30000A4ADFF834B0CBF844A0DC46DCF800C0FA
:105A40004CF0010CDA46CAF800C000BFDFF818C0FD
:105A5000DCF800C00CF0010CBCF1000FF6D1BDE881
:105A6000F08F00003C000020001000520146102082
:105A70000A78202A16D006DC0C2A0BD0102A0BD06C
:105A8000182A12D10CE0212A07D0222A07D0232A73
:105A90000BD108E00C2008E000BF102005E000BF9B
:105AA000182002E000BF202000BF00BF7047014661
:105AB00010200A78202A16D006DC0C2A0BD0102AD7
:105AC0000BD0182A12D10CE0212A07D0222A07D0A5
:105AD000232A0BD108E00C2008E000BF102005E0CD
