:020000040800F2
:1000000000070020C500000835190008EF17000898
:1000100000000000000000000000000000000000E0
:100020000000000000000000000000003B19000874
:1000300000000000000000003919000885250008B4
:10004000D700000800000000D7000008D700000813
:10005000D7000008D7000008D7000008D700000824
:1000600000000000D7000008D7000008D7000008F3
:10007000D7000008D7000008D700000800000000E3
:10008000D70000080000000000000000D7000008B2
:1000900000000000D7000008D7000008D7000008C3
:1000A00000000000D700000800000000ED2E00084E
:1000B0000348854600F010F900480047ED3100087C
:1000C000000700200448804704480047FEE7FEE799
:1000D000FEE7FEE7FEE7FEE7DB260008B1000008CA
:1000E00030B50B46014600202022012409E00D46D0
:1000F000D5409D4205D31D469540491B2546954058
:1001000040191546521E002DF1DC30BDF0B51FB46C
:100110000646002082B005464024019100901BE075
:10012000019922460F46304600F020F8049A059BBC
:10013000801A994110D310461946224600F05CF807
:10014000361A8F410197224601200021009F00F0BE
:1001500053F838184D4100902046641E0028DFDC1B
:10016000019B00982946324607B0F0BD10B5202A01
:1001700004DB0846203AD040002110BD0B46D34096
:10018000D0402024A21A91400843194610BDD2B293
:1001900001E00270401C491EFBD270470022F6E7C6
:1001A00010B513460A4604461946FFF7F0FF2046ED
:1001B00010BD00000EB505490291002100910A46CC
:1001C0000B46019100F035F803B000BD3304000088
:1001D00010B5002904DB0124E40740428C4121468C
:1001E000002B04DB1C460123DB075242A3418B4258
:1001F00000D1824210BD000010B5202A04DB014668
:10020000203A9140002010BD914020239C1A0346C3
:10021000E3401943904010BD10B5002B08DA0024CC
:10022000401C614192185B411A4301D140084000D3
:1002300010BDF0B51FB482B005460C0003D00846CF
:1002400002F072FE02E002F06FFE203002460090E3
:1002500021462846FFF7D0FF049B059A04460F4627
:1002600018431143084314D0184610431BD000987C
:1002700040210A1A18460599FFF778FF05460E46F1
:10028000009A05990498FFF7B7FF084305D00120AD
:1002900004E02046394607B0F0BD0020C1170543F1
:1002A0000E432C43374300990E986305401A790595
:1002B000E40A00220C43FD0A0A3002D50020014660
:1002C000E9E70105101969410C9C0D9D0019694170
:1002D000FFF7A2FFDFE70000064C0125064E05E010
:1002E000E36807CC2B430C3C98471034B442F7D357
:1002F000FFF7E2FE283300084833000870B58C1879
:100300000578401C6B075B0F01D10378401C2A1154
:1003100006D10278401C03E006780E70401C491C90
:100320005B1EF9D12B0705D40023521E0DD40B7090
:10033000491CFAE70378401CCB1A921C03E01D7895
:100340000D70491C5B1C521EF9D5A142D8D3002068
:1003500070BD72B600BFFEE700B587B0142102A8D9
:10036000FFF71CFF00BF33484069012149040843DF
:10037000304948610846406901214904084001901C
:1003800000BF00BF00BF2B4840694900084329490E
:10039000486108464069012189040840019000BF76
:1003A00000BF00BF23484069090108432149486153
:1003B00008464069012189050840019000BF00BF3F
:1003C0001D480290002003900120049002A90920FA
:1003D000C00600F08BF83B20029000200390012023
:1003E000049002A9154800F081F800220821092094
:1003F000C00600F07CF900228021104800F077F957
:10040000082002900120039000200490059002A98A
:100410000920C00600F06AF88020029001200390B5
:1004200000200490059002A9044800F05FF807B08E
:1004300000BD000000100240F298000000040048D7
:1004400001462120405C022808D00420886300BFB8
:1004500000222020425400BF012070470868006835
:100460000E2290430A681060086800684008400047
:100470000A68106001200A6C9040CA6B506001222B
:100480002120425400BF00222020425400BF0020FF
:10049000E3E770B5044600252120005D022803D063
:1004A0000420A06301251EE0206800680E21884317
:1004B00021680860206800684008400021680860E2
:1004C0000120216C8840E16B486001212120015509
:1004D00000BF00212020015500BF606B002802D022
:1004E0002046616B8847284670BD000078B50346FA
:1004F0000A460021DFE001268E4014683440002CBB
:100500007ED01579AD07AD0F012D04D01579AD075B
:10051000AD0F022D18D198684E000325B540064650
:10052000AE4330464E00D568B540284398605868C1
:1005300001258D400646AE433046102655683540AD
:100540002D098D40284358601579AD07AD0F032D57
:100550000BD0D8684E000325B5400646AE43304662
:100560004E009568B5402843D8601579AD07AD0FAA
:10057000022D15D1CD08AE001D462035A8594D07D6
:10058000EE0E0F25B5400646AE4330464E07F60E3A
:100590001569B5402843CD08AD001E462036705180
:1005A00018684E000325B5400646AE43304615791F
:1005B000AD07AD0F4E00B540284318600326360442
:1005C00055683540002D75D000BF3E4DAD69012600
:1005D00035433C4EB5613546AD69ED07ED0F0095ED
:1005E00000BF00BF384D8E08B600A8598D072E0FEA
:1005F0000F25B5400646AE4330460925ED0600E01E
:1006000058E0AB4201D100250FE0304DAB4201D1A3
:1006100001250AE02E4DAB4201D1022505E02D4D0A
:10062000AB4201D1032500E005258E07360FB5400A
:100630002843254D8E08B600A851274D2868054649
:10064000A54328460126360455683540002D02D0C2
:10065000054625432846204D286068680546A54381
:1006600028460126760455683540002D02D00546FF
:1006700025432846184D6860A8680546A5432846C6
:100680000126360555683540002D02D00546254324
:100690002846114DA860E8680546A543284601266E
:1006A000760555683540002D02D00546254328467D
:1006B000094DE860491C1568CD40002D00D01AE7AF
:1006C00078BD00000010024008000140000400480E
:1006D00000080048000C004800040140024613696D
:1006E0000B40002B01D0012000E000207047002AC1
:1006F00001D0816100E0816270470000014800681C
:100700007047000000000020034800680349097892
:1007100040180149086070470000002008000020D0
:1007200010B50648006810210843044908600320FA
:1007300000F006F800F02EF8002010BD0020024066
:1007400070B50446104801787D20C000FFF7C8FC52
:10075000064631460D480068FFF7C2FC054600F02A
:10076000F5FC002801D0012070BD042C07D2002226
:100770002146501E00F03CF80548046001E00120CD
:10078000F2E70020F0E70000080000200C00002045
:100790000400002008B500BF0D488069012108430E
:1007A0000B49886108468069C007C00F009000BFF0
:1007B00000BF00BF0846C069090408430449C86176
:1007C0000846C06909040840009000BF00BF08BD8A
:1007D000001002400146002905DBCB06DB0E01229A
:1007E0009A40024B1A6000BF7047000000E100E031
:1007F00070B504460D4616462946204602F0C4FB55
:1008000070BD0000F8B5044600260025012109044A
:100810002068084088427AD100274B48C069090304
:10082000084000280DD100BF4748C0690843464929
:10083000C8610846C06909040840009000BF00BFB5
:10084000012742480068FF2101310840002816D1E5
:100850003E48006808433D490860FFF74FFF0646E1
:1008600006E0FFF74BFF801B642801D90320F8BD89
:1008700036480068FF21013108400028F1D0324895
:10088000006A0321090208400546002D2DD060684A
:100890000840A84229D02C48006A884305462A48C7
:1008A000006A012109040843274908620846006AD2
:1008B0000121090488432449086208460562E807C3
:1008C000C00F002811D0FFF719FF064607E0FFF719
:1008D00015FF801B1E49884201D90320C7E71A482B
:1008E000006A022108400028F1D01748006A03215D
:1008F000090288436168084313490862012F05D142
:100900000846C069090488430F49C86100BF2078C0
:10091000C007C00F002807D00B48006B800880007C
:10092000A16808430849086320212068084020285E
:1009300007D10548006B10218843E168084302494C
:100940000863002093E700000010024000700040A0
:100950008813000070B504460D46002C01D101201B
:1009600070BD52480068C007C00FA8420ED24F4861
:1009700000684008400028434C4908600846006869
:10098000C007C00FA84201D00120E9E7022120687A
:100990000840022814D1042120680840042807D107
:1009A000434840680721090288434018404948608D
:1009B0003F484068F0218843A16808433C494860AB
:1009C0002078C007C00F00283BD06068012808D1FC
:1009D00037480068012149040840002815D101204A
:1009E000BEE76068022808D1314800680121490645
:1009F0000840002809D10120B2E72D4800680221F3
:100A00000840002801D10120AAE729484068800851
:100A100080006168084326494860FFF76FFE06467C
:100A200007E0FFF76BFE801B2249884201D90320B3
:100A300096E71F4840680C21084061688900884299
:100A4000EFD11A480068C007C00FA8420ED9174856
:100A500000684008400028431449086008460068C0
:100A6000C007C00FA84201D0012079E70421206807
:100A70000840042808D10E4840680721090288432D
:100A8000E16808430A49486000F032F808494968BB
:100A9000F02211400909084A515CC8400749086022
:100AA0000320FFF74DFE00205AE70000002002401F
:100AB00000100240881300001A3200080C000020C9
:100AC00001480068704700000C00002000B5FFF7E7
:100AD000F7FF05494968072212021140090A034A33
:100AE000515CC84000BD0000001002402A320008DE
:100AF000F0B589B027A001460EC9C06805AC0EC488
:100B0000089028A001460EC9C06801AC0EC404902C
:100B10000024002500270026002000902548446876
:100B20000C20204000282DD0042802D0082828D1ED
:100B300002E02148009028E00F2080042040800C33
:100B400005A90E5C1B48C06A0007000F01A90D5CD7
:100B50000120000420400121090488420AD12A46CC
:100B6000002315481946FFF7D1FA314602F0F3F990
:100B7000074604E01148314602F0EDF907460097B8
:100B800003E000BF0C48009000BF00BF009809B010
:100B9000F0BD000002030405060708090A0B0C0D4E
:100BA0000E0F10100102030405060708090A0B0CBA
:100BB0000D0E0F100010024000127A0000093D00D7
:100BC000FEB50446002C01D10120FEBD2078C007EF
:100BD000C00F002871D0FC4840680C210840042850
:100BE0000BD0F94840680840082812D1F648406800
:100BF00001210904084088420BD1F3480068012113
:100C00004904084000286BD06068002868D10120A2
:100C1000DBE700BF6068012807D1EB4800680121CD
:100C200009040843E849086031E0606800280ED1F3
:100C3000E5480068012109048843E3490860084643
:100C40000068012189048843DF4908601FE060686B
:100C500005280ED1DC480068012189040843DA49DF
:100C6000086008460068012109040843D649086065
:100C70000DE0D5480068012109048843D249086085
:100C800008460068012189048843CF49086000BFF5
:100C90006068002812D0FFF731FD054606E0FFF737
:100CA0002DFD401B642801D903208EE7C64800684B
:100CB0000121490408400028F1D011E0FFF71EFD92
:100CC000054606E0FFF71AFD401B642801D9032002
:100CD0007BE7BD4800680121490408400028F1D1A4
:100CE000022120680840022861D1B74840680C21E1
:100CF000084000280BD0B4484068084008281BD1A1
:100D0000B1484068012109040840002814D1AE48C8
:100D1000006802210840002804D0E068012801D0C2
:100D2000012052E7A8480068F82188432169C900DA
:100D30000843A54908603AE0E068002820D0A248AE
:100D4000006801210843A0490860FFF7D7FC054669
:100D500006E0FFF7D3FC401B022801D9032034E74B
:100D600099480068022108400028F2D0964800689F
:100D7000F82188432169C90008439349086016E0B7
:100D800091480068400840008F490860FFF7B6FCB2
:100D9000054606E0FFF7B2FC401B022801D90320FC
:100DA00013E789480068022108400028F2D1082191
:100DB00020680840082831D1E069002817D082480F
:100DC000406A0121084380494862FFF797FC0546C5
:100DD00006E0FFF793FC401B022801D90320F4E64C
:100DE0007948406A022108400028F2D016E076488F
:100DF000406A4008400074494862FFF77FFC05469E
:100E000006E0FFF77BFC401B022801D90320DCE64B
:100E10006D48406A022108400028F2D10421206870
:100E20000840042873D1002001906748C0698906F2
:100E3000084000280ED100BF6348C06908436249DA
:100E4000C8610846C06909040840009000BF00BF9F
:100E5000012001905D480068FF2101310840002811
:100E600016D15A480068084358490860FFF746FC05
:100E7000054606E0FFF742FC401B642801D9032029
:100E8000A3E652480068FF21013108400028F1D054
:100E900000BFA068012806D14B48006A0121084321
:100EA000494908622BE0A06800280CD14648006A36
:100EB00040084000444908620846006A042188430B
:100EC000414908621BE0A06805280CD13E48006A31
:100ED000042108433C4908620846006A012108438E
:100EE000394908620BE03848006A4008400036493A
:100EF00008620846006A042188433349086200BF3B
:100F0000A068002813D0FFF7F9FB054608E02BE0A6
:100F1000FFF7F4FB401B2E49884201D9032054E619
:100F20002948006A022108400028F1D011E0FFF7AB
:100F3000E5FB054607E0FFF7E1FB401B244988423B
:100F400001D9032041E62048006A02210840002818
:100F5000F1D10198012806D11B48C0690121090778
:100F600088431949C86100BF102120680840102833
:100F700060D1606901282DD11348406B04210843DA
:100F8000114948630846406B012108430E494863F4
:100F9000FFF7B4FB054606E0FFF7B0FB401B022855
:100FA00001D9032011E60848406B022108400028BF
:100FB000F2D00548406BF8218843A169C900084375
:100FC0000149486336E00000001002400070004014
:100FD000881300006069401D00280FD15A48406BFB
:100FE00004218843584948630846406BF8218843E8
:100FF000A169C9000843544948631BE05248406B4B
:1010000004210843504948630846406B40084000AB
:101010004863FFF773FB054606E0FFF76FFB401BD5
:10102000022801D90320D0E54748406B022108403F
:101030000028F2D1206A00284FD0434840680C2194
:101040000840082864D0206A022847D13E4800683A
:101050000121090688433C490860FFF74FFB05461C
:1010600006E0FFF74BFB401B022801D90320ACE54B
:10107000354800680121490608400028F1D100BF29
:101080003148C06A00090001E16A08432E49C8627C
:10109000616AA06A08432C4949683D2212049143C1
:1010A00008432949486000BF084600680121090635
:1010B000084325490860FFF721FB054606E0FFF7D6
:1010C0001DFB401B022801D903207EE51E48006855
:1010D0000121490608400028F1D033E01A48006891
:1010E00001210906884318490860FFF707FB0546F8
:1010F00006E0FFF703FB401B022801D9032064E54B
:10110000114800680121490608400028F1D119E082
:10111000206A012800D158E50B484668C76A0120BB
:1011200000043040616A88420AD13907090FE06A39
:10113000814205D10F2080043040A16A884201D04D
:10114000012042E5002040E50010024070B5044651
:101150002546681E0949884201D901200CE0681E15
:10116000074948610321081F01F00EFF00200449D0
:10117000886107200861002070BD0000FFFFFF00AC
:1011800000E000E070477047F0B585B00446206885
:10119000C5692068066820688768E0482840039091
:1011A000039800280FD12020284000280BD02020B1
:1011B0003040002807D0606E002802D02046616EC3
:1011C000884705B0F0BD039800287DD0F807C00F10
:1011D000002803D1D24830400028F6D0E807C00FDD
:1011E00000280DD0FF2001303040002808D0012019
:1011F000216808628020005901210843802108519C
:101200000220284000280CD0F807C00F002808D082
:1012100002202168086280200059042108438021AF
:1012200008510420284000280CD0F807C00F0028DF
:1012300008D0042021680862802000590221084358
:101240008021085108202840002810D0202030405C
:10125000002803D1F807C00F002808D00820216813
:10126000086280200059082108438021085101208C
:10127000C002284000280ED00120800630400028FF
:1012800009D00120C0022168086280200059202175
:1012900008438021085180200059002854D0202084
:1012A0002840002809D020203040002805D0606E5A
:1012B000002802D02046616E8847802000590290A5
:1012C00020688068402100E03FE00840402804D0CA
:1012D000282102980840002830D0204601F00CFB5D
:1012E0002068806840210840402823D100BF01F0D9
:1012F000C3FE0190012001F0D1FE206880684021EA
:10130000884321688860019801F0C8FE00BF206F03
:1013100000280BD08348216F4863206FFFF7B9F88E
:10132000002811D0206F416B88470DE02046FFF761
:101330002AFF09E02046FFF726FF05E02046FFF7D9
:1013400022FF0021802001513BE7206E01287AD145
:1013500010202840002876D0102030400028FAD0F5
:1013600010202168086220688068402108404028D9
:101370006BD1206F0068406880B20190019800280E
:1013800060D05820015B019881425BDD5A210198B1
:101390000853206F806920284BD000BF01F06CFEFD
:1013A0000090012001F07AFE20680068FF210131E1
:1013B000884321680860009801F070FE00BF00BFFC
:1013C00001F05AFE0090012001F068FE206880685C
:1013D0004008400021688860009801F05FFE00BF6F
:1013E00000BF01F049FE0090012001F057FE206887
:1013F00080684021884321688860009801F04EFE93
:1014000000BF2020E0670020206600BF01F034FE0E
:101410000090012001F042FE2068006810218843FE
:1014200021680860009801F039FE00BF206FFFF7C7
:1014300007F85820025B5A20005B101A81B2204640
:10144000FFF7A0FEBDE64CE0FFE75820015B5A2005
:10145000005B081A80B201905A20005B00283FD040
:10146000019800283CD000BF01F006FE009001204A
:1014700001F014FE20680068FF21213188432168B3
:101480000860009801F00AFE00BF00BF01F0F4FD03
:101490000090012001F002FE2068806840084000B2
:1014A00021688860009801F0F9FD00BF2020E06706
:1014B00000202066606600BF01F0DEFD0090012084
:1014C00001F0ECFD20680068102188432168086065
:1014D000009801F0E3FD00BF20460199FFF752FE9E
:1014E0006FE68020284000280AD080203040002865
:1014F00006D0A06E002802D02046A16E884760E684
:1015000040202840002807D040203040002803D049
:10151000204601F030FA54E600BF52E60F08000002
:1015200020010004E128000810B50446002C01D178
:10153000012010BDA069002800D000E000BFA06F0E
:10154000002805D1002174200155204600F02CF818
:101550002420A067206800684008400021680860D7
:10156000204601F005FB012800D1E2E7606A00286F
:1015700002D0204601F002F9206840680121C9022A
:101580008843216848602068806808218843216872
:1015900088602068006801210843216808602046AF
:1015A00001F064F9C5E7000010B586B004461421C7
:1015B00001A8FEF7F3FD25492068884243D100BF0A
:1015C000234880690121890308432149886108462D
:1015D0008069012189030840009000BF00BF00BF5F
:1015E0001B484069C90008431949486108464069D9
:1015F000012149040840009000BF00BFC8110190BC
:101600000220029000200390032004900120059006
:1016100001A90920C006FEF769FF402001900220C1
:10162000029000200390032004900020059001A95F
:101630000848FEF75BFF002211461B20FFF7D8F891
:101640001B20FFF7C7F806B010BD000000380140AE
:101650000010024000040048F8B504460D46164646
:10166000E06F20283ED1002D01D0002E01D10120B5
:10167000F8BD01210903A068884208D1206900282B
:1016800005D1E807C00F002801D00120F0E700BF16
:101690007420005D012801D10220E9E701217420B6
:1016A000015500BF0020206620684068C905084039
:1016B000002811D000BF01F0DFFC0746012001F037
:1016C000EDFC206800680121890608432168086054
:1016D000384601F0E3FC00BF32462946204601F0BF
:1016E00007FBC5E70220C3E77047FFB583B0044698
:1016F0000D461746A06F202876D1002D01D0002F6F
:1017000002D1012007B0F0BD01210903A068884281
:1017100008D12069002805D1E807C00F002801D0B2
:101720000120EFE700BF7420005D012801D10220F5
:10173000E8E701217420015500BF002180200151FC
:101740002120A067FEF7DAFF0190502007535220B6
:10175000075301210903A068884205D120690028A8
:1017600002D10026029502E02E460020029000BF22
:1017700000217420015500BF21E00698009000224E
:1017800080212046019B01F023FB002801D003208B
:10179000B8E7002E09D102980088C005C00D216865
:1017A00008850298801C029003E030782168088543
:1017B000761C5220005B401E81B252200153522001
:1017C000005B0028D9D106980090002240212046D5
:1017D000019B01F0FDFA002802D0032092E703E00C
:1017E0002020A06700208DE702208BE7704700BF14
:1017F000FEE7000010B500F057F801228021092013
:10180000C006FEF774FF012240210920C006FEF742
:101810006EFF012220210920C006FEF768FF012289
:1018200010210920C006FEF762FF0022102108489F
:10183000FEF75DFF002208210548FEF758FF002251
:1018400020210348FEF753FF00F004F810BD00000C
:101850000004004800B585B014216846FEF79EFCE0
:10186000012208210920C006FEF741FF012001F0F6
:1018700081FC002208210920C006FEF738FFF02075
:101880000090002001900120029069460920C006C6
:10189000FEF72CFE3820009069460248FEF726FE2F
:1018A00005B000BD0004004800B585B014216846AD
:1018B000FEF774FC012000F087F8F0200090012072
:1018C00001900020029069460920C006FEF70EFE36
:1018D0003820009069460248FEF708FE05B000BDBA
:1018E0000004004810B5104810490860E12040028B
:1018F000486000210D488160C16001610C21416197
:1019000000218161C16101620020084948620846E6
:10191000FFF70AFE002801D0FEF71BFD0122044953
:101920000248FFF799FE10BD003801407C020020FC
:10193000E001002000BFFEE77047704700B585B0AA
:1019400014216846FEF72AFC0920000300900020BD
:1019500001900120029069460920C006FEF7C6FDED
:101960003820009069460248FEF7C0FD05B000BD72
:101970000004004800B585B014216846FEF70EFC4F
:10198000022000F021F809200003009001200190BE
:101990000020029069460920C006FEF7A7FD382006
:1019A000009069460748FEF7A1FD012209210903BD
:1019B000C803FEF79CFE012238210248FEF797FE7D
:1019C00005B000BD0004004810B50446012C05D147
:1019D000002280210548FEF78AFE06E0022C04D191
:1019E000012280210148FEF782FE10BD000400485C
:1019F00070B50024B9E014206043FE494018807996
:101A0000002863D1142060434018807A00280AD14E
:101A1000012114206043F74A80188172142060432A
:101A20008018C17268E014206043F2494018807A3F
:101A3000012821D11420604340180089401C81B244
:101A400014206043EB4A8018018114206043114642
:101A500040180089C8284FD1002114206043801805
:101A60000181022114206043801881720121142019
:101A700060438018C1723FE014206043DD49401884
:101A8000807A022838D11420604340180089401C15
:101A900081B214206043D74A801801811421614328
:101AA00089180889FEF786FB05460022D24BFEF70F
:101AB0008FFB21D1002114206043CE4A8018018180
:101AC0000121142060438018C17215E01420604386
:101AD000C8494018807A00280ED0002114206043A5
:101AE000C44A80180181142060438018817201214A
:101AF000142060438018C17214206043BD4940180F
:101B0000C07A01282FD1142060434018807A012820
:101B10000ED1142060434018C068002808D014205B
:101B200060430A468018C168B4A001F0EDF914E0E2
:101B300014206043AF494018807A02280DD1142048
:101B4000604340180069002807D0142060430A460B
:101B500080180169A9A001F0D7F900211420604381
:101B6000A44A8018C172601CC4B2082C00D242E79B
:101B70000024ABE348206043A24940188079002844
:101B800063D1482060434018807D00280AD101219C
:101B9000482060439B4A8018817548206043801824
:101BA000C17668E04820604396494018807D01284E
:101BB00021D14820604340188089401C81B24820D0
:101BC0006043904A80188181482060431146401844
:101BD0008089C8284FD10021482060438018818126
:101BE000022148206043801881750121482060430C
:101BF0008018C1763FE04820604382494018807DCC
:101C0000022838D14820604340188089401C81B2A6
:101C1000482060437B4A80188181482161438918AC
:101C20008889FEF7C7FA05460022734BFEF7D0FA03
:101C300021D1002148206043724A8018818101210E
:101C4000482060438018C17615E0482060436D4904
:101C50004018807D00280ED0002148206043694A4A
:101C600080188181482060438018817501214820B7
:101C700060438018C1764820604362494018C07EA6
:101C800001282FD1482060434018807D01280ED1C3
:101C9000482060434018006A002808D0482060436C
:101CA0000A468018016A55A001F02EF914E0482078
:101CB000604354494018807D02280DD1482060437C
:101CC0004018406A002807D0482060430A46801820
:101CD000416A4AA001F018F9002148206043494AAE
:101CE0008018C1764820604346494018C0790028D2
:101CF00063D1482060434018C07D00280AD10121EB
:101D0000482060433F4A8018C175482060438018CE
:101D1000017768E0482060433A494018C07D0128B7
:101D200021D1482060434018C089401C81B248201E
:101D30006043344A8018C1814820604311464018EE
:101D4000C089C8284FD10021482060438018C18134
:101D50000221482060438018C1750121482060435A
:101D6000801801773FE04820604326494018C07D35
:101D7000022838D1482060434018C089401C81B2F5
:101D8000482060431F4A8018C18148216143891857
:101D9000C889FEF70FFA05460022174BFEF718FA1E
:101DA00021D1002148206043164A8018C1810121B9
:101DB000482060438018017715E0482060431149AE
:101DC0004018C07D00280ED00021482060430D4AF5
:101DD0008018C181482060438018C17501214820C6
:101DE0006043801801774820604306494018007F0F
:101DF000012809E0200000200000244025730D0A7E
:101E000000000000C00000202FD14820604340188F
:101E1000C07D01280ED1482060434018806A002808
:101E200008D0482060430A468018816AFC4801F0C7
:101E30006BF814E048206043FA494018C07D02283E
:101E40000DD1482060434018C06A002807D04820C0
:101E500060430A468018C16AF14801F055F8002134
:101E600048206043EF4A8018017748206043ED49DD
:101E70004018007A002863D1482060434018007E53
:101E800000280AD1012148206043E64A80180176E3
:101E9000482060438018417768E048206043E1496A
:101EA0004018007E012821D1482060434018008A54
:101EB000401C81B248206043DA4A801801824820E1
:101EC000604311464018008AC8284FD1002148209D
:101ED0006043801801820221482060438018017607
:101EE000012148206043801841773FE0482060434B
:101EF000CC494018007E022838D148206043401861
:101F0000008A401C81B248206043C64A8018018282
:101F1000482161438918088AFEF74CF905460022DA
:101F2000C14BFEF755F921D1002148206043BD4A3D
:101F3000801801820121482060438018417715E014
:101F400048206043B7494018007E00280ED0002189
:101F500048206043B34A80180182482060438018BB
:101F60000176012148206043801841774820604372
:101F7000AC494018407F01282FD1482060434018C9
:101F8000007E01280ED1482060434018006B0028D5
:101F900008D0482060430A468018016BA04800F032
:101FA000B3FF14E0482060439E494018007E022899
:101FB0000DD1482060434018406B002807D04820CE
:101FC00060430A468018416B954800F09DFF002150
:101FD00048206043934A80184177482060439149E4
:101FE0004018407A002863D1482060434018407E62
:101FF00000280AD10121482060438A4A801841768E
:10200000482060438018817768E048206043854914
:102010004018407E012821D1482060434018408A62
:10202000401C81B2482060437E4A8018418248208B
:10203000604311464018408AC8284FD100214820EB
:102040006043801841820221482060438018417615
:10205000012148206043801881773FE04820604399
:1020600070494018407E022838D14820604340180B
:10207000408A401C81B2482060436A4A80184182ED
:10208000482161438918488AFEF794F805460022E2
:10209000654BFEF79DF821D1002148206043614A3D
:1020A000801841820121482060438018817715E023
:1020B000482060435B494018407E00280ED0002134
:1020C00048206043574A8018418248206043801866
:1020D0004176012148206043801881774820604381
:1020E00050494018807F01282FD148206043401874
:1020F000407E01280ED1482060434018806B0028A4
:1021000008D0482060430A468018816B444800F09C
:10211000FBFE14E04820604342494018407E0228FC
:102120000DD1482060434018C06B002807D04820DC
:1021300060430A468018C16B394800F0E5FE002173
:1021400048206043374A80188177482060433549EA
:102150004018807A00286AD1482060434018807E69
:1021600000280AD10121482060432E4A8018817638
:10217000482060438018C1776FE0482060432949B8
:102180004018807E012821D1482060434018808A71
:10219000401C81B248206043224A80188182482036
:1021A000604311464018808AC82856D10021482033
:1021B0006043801881820221482060438018817624
:1021C0000121482060438018C17746E048206043E1
:1021D00014494018807E02283FD1482060434018AF
:1021E000808A401C81B2482060430E4A8018818258
:1021F000482161438918888AFDF7DCFF05460022E3
:10220000094BFDF7E5FF28D1002148206043054A2E
:10221000801881820121482060438018C1771CE02A
:10222000FC1D0008C000002000002440FFE74820FB
:10223000604328494018807E00280ED000214820A5
:102240006043244A80188182482060438018817648
:102250000121482060438018C177482060431D4910
:102260004018C07F01282FD1482060434018807E4D
:1022700001280ED1482060434018006C002808D087
:10228000482060430A468018016C134800F03CFE69
:1022900014E0482060430F494018807E02280DD189
:1022A000482060434018406C002807D04820604315
:1022B0000A468018416C084800F026FE002148209C
:1022C0006043044A8018C177601CC4B2042C00D259
:1022D00050E470BDC0000020FC1D000810B50120B6
:1022E000FFF772FB002421E014206043A24940184C
:1022F00080794006010E142060439F4A8018817146
:10230000142262439C4BD21891881422624398583D
:10231000FEF7E4F914216143974A89188979084343
:102320001421614389188871601CC4B2052CDBDB61
:102330000220FFF749FB052421E0142060438E4969
:10234000401880794006010E142060438A4A8018A4
:10235000817114226243884BD218918814226243FF
:102360009858FEF7BBF914216143834A891889798B
:1023700008431421614389188871601CC4B2082C79
:10238000DBDBFFF7F7FA00220121C9030920C006B1
:10239000FEF7ADF9002421E048206043774940185A
:1023A00080794006010E48206043744A801881718C
:1023B00048226243714BD218918848226243985850
:1023C000FEF78CF9482161436C4A891889790843E2
:1023D0004821614389188871601CC4B2042CDBD386
:1023E0000122D1030920C006FEF781F90022012154
:1023F00009030920C006FEF77AF9002421E04820ED
:1024000060435E494018C0794006010E4820604391
:102410005A4A8018C17148226243584BD218918899
:10242000482262439858FEF759F948216143534ABC
:102430008918C9790843482161438918C871601C0B
:10244000C4B2042CDBD3012211030920C006FEF71D
:102450004EF9002220214A48FEF749F9002421E0E4
:102460004820604345494018007A4006010E482044
:102470006043424A80180172482262433F4BD2189F
:102480009188482262439858FEF728F94821614311
:102490003A4A8918097A0843482161438918087221
:1024A000601CC4B2042CDBD3012220213448FEF787
:1024B0001EF9002208213248FEF719F9002421E014
:1024C000482060432D494018407A4006010E4820BC
:1024D00060432A4A8018417248226243274BD2182F
:1024E0009188482262439858FEF7F8F848216143E2
:1024F000224A8918497A0843482161438918487259
:10250000601CC4B2042CDBD3012208211C48FEF756
:10251000EEF8002210211A48FEF7E9F8002421E025
:102520004820604315494018807A4006010E482033
:102530006043124A80188172482262430F4BD218BE
:102540009188482262439858FEF7C8F848216143B1
:102550000A4A8918897A0843482161438918887290
:10256000601CC4B2042CDBD3012210210448FEF706
:10257000BEF8FFF7E3F910BD20000020C0000020E6
:102580000004004810B5FEF7BFF8044800780028A2
:1025900000D110BD00F004F800BFFAE71C000020D5
:1025A00010B527480068002809D025480068401E5B
:1025B00023490860002802D1012022490870002424
:1025C00007E00C216143204A881800F087F8601C5E
:1025D000C4B2042CF5DB1D480068401C1B49086090
:1025E000084600681A49884202D10020174908604D
:1025F00000F00CFE17480078401CC0B21549087066
:10260000052803DB0020087000F001FE1248007866
:10261000401CC0B2104908700A2803DB0020087073
:1026200000F0F3FD0D480078401CC0B20B49087063
:10263000642803DB0020087000F0E6FD10BD0000F8
:102640001000002014000020E801002018000020E5
:10265000FFFFFF7F1D0000201E0000201F00002044
:1026600000B595B0302109A8FDF798FD0020059030
:10267000069007900890019002900390049001202A
:1026800009900A9002201190C1031291C104139184
:102690000021149109A8FEF793FA002801D0FDF754
:1026A00058FE072005900220069000200790089011
:1026B000012105A8FEF74EF9002801D0FDF749FEDB
:1026C000012001900020039001A8FEF79BF800284C
:1026D00001D0FDF73EFE15B000BD704741680029EE
:1026E0000BD04168491E4160002906D1012141708B
:1026F0000178012901D181684160704770B50024DB
:1027000012E000210C206043174A801841600C2021
:102710006043801881600C206043801841700C2059
:1027200060431154601CC4B2042CEADB7D21C90053
:102730000E480068FDF7D4FC0546681E0C49884227
:1027400000D90CE0681E0B4948610321081F00F006
:1027500057FC0020074988610720086100BF01205D
:102760000549087070BD0000E80100200C00002041
:10277000FFFFFF0000E000E01C000020818CC90783
:10278000C90F002908D00168496801225204914309
:10279000826A1143026851600222416A1140022993
:1027A00007D101684968D2039143C26A11430268A4
:1027B00051600422416A1140042907D10168496827
:1027C00012049143026B1143026851600822416A6E
:1027D0001140082907D10168496812039143426BEF
:1027E0001143026851601022416A1140102907D13B
:1027F0000168896812029143826B114302689160FB
:102800002022416A1140202907D1016889681202FB
:102810009143C26B1143026891604022416A1140AA
:10282000402915D10168496892039143026C114314
:102830000268516001221205016C914208D10168C1
:102840004968032252059143426C1143026851606A
:102850008022416A1140802907D10168496812032A
:102860009143826C114302685160704738B5044649
:10287000002180200151FDF741FF054620680068D6
:102880000821084008280BD114482B46002289044F
:102890000090204600F09CFA002801D0032038BDAB
:1028A000206800680421084004280BD10B482B46FF
:1028B000002209050090204600F08AFA002801D085
:1028C0000320ECE72020A067E0670020206600BF1F
:1028D00000217420015500BF0020E0E7FFFFFF0149
:1028E00070B505466C6A00215A20015352200153ED
:1028F0002046FEF748FC70BD70B5044600BF00F0EE
:10290000BBFB0546012000F0C9FB20680068FF21E1
:102910002131884321680860284600F0BFFB00BFD2
:1029200000BF00F0A9FB0546012000F0B7FB2068BE
:1029300080684008400021688860284600F0AEFBAF
:1029400000BF206E012810D100BF00F095FB0546A6
:10295000012000F0A3FB2068006810218843216853
:102960000860284600F09AFB00BF2020E0670020A6
:102970002066606670BD70B5044600BF00F07CFB49
:102980000546012000F08AFB20680068402188434A
:1029900021680860284600F081FB00BF2020A06766
:1029A0000020A0662046FEF721FF70BDF8B5044662
:1029B0005C20075BE06F222862D12068868C656D01
:1029C000304638402880606D801C60655A20005B6E
:1029D000401E81B25A200153005B002856D100BF2F
:1029E00000F04AFB0090012000F058FB20680068CE
:1029F000FF212131884321680860009800F04EFBD8
:102A000000BF00BF00F038FB0090012000F046FB43
:102A1000206880684008400021688860009800F0C5
:102A20003DFB00BF2020E06700206066206E01288B
:102A300022D10020206600BF00F01EFB0090012084
:102A400000F02CFB20680068102188432168086092
:102A5000009800F023FB00BF2068C06910210840E7
:102A60000009002802D01020216808625820015B6C
:102A70002046FEF787FB09E02046FEF735FE05E01D
:102A8000206880690821084321688861F8BDF8B58D
:102A900004465C20065BE06F222862D12068858CAA
:102AA000F0B22840616D0870606D401C60655A206E
:102AB000005B401E81B25A200153005B002856D1B2
:102AC00000BF00F0D9FA0746012000F0E7FA2068BD
:102AD0000068FF212131884321680860384600F0F2
:102AE000DDFA00BF00BF00F0C7FA0746012000F082
:102AF000D5FA206880684008400021688860384620
:102B000000F0CCFA00BF2020E06700206066206E55
:102B1000012822D10020206600BF00F0ADFA074650
:102B2000012000F0BBFA206800681021884321686A
:102B30000860384600F0B2FA00BF2068C069102172
:102B400008400009002802D010202168086258209F
:102B5000015B2046FEF716FB09E02046FEF7C4FDA8
:102B600005E0206880690821084321688861F8BD74
:102B7000FEB50446002000902169A0680843616901
:102B80000843E169084302902068006854490840FE
:102B900002990843216808602068406803210903FE
:102BA0008843E168084321684860A0690290206A70
:102BB000029908430290206880680B21090288432B
:102BC000029908432168886000BF4648006B80076F
:102BD000800F002806D0012808D0022808D003283A
:102BE00008D101E0002707E0022705E0042703E001
:102BF000082701E0102700BF00BF00BF0121C90363
:102C0000E069884239D1002F06D0022F08D0042F66
:102C100008D0082F0DD109E0FDF758FF05460CE05C
:102C2000314D0AE0FDF764FF054606E00125ED039E
:102C300003E000250120009000BF00BF002D49D017
:102C40006A0063685B08D0186168FDF749FA86B2CC
:102C5000102E0FD3254886420CD824480F38304018
:102C600001903007400F01990843019001982168B5
:102C7000C8602FE0012000902CE0002F06D0022F2A
:102C800008D0042F08D0082F0DD109E0FDF71EFF52
:102C900005460CE0144D0AE0FDF72AFF054606E064
:102CA0000125ED0303E000250120009000BF00BFD7
:102CB000002D0FD061684A085019FDF711FA86B24D
:102CC000102E05D30948864202D82068C66001E06C
:102CD0000120009000206066A0660098FEBD000004
:102CE000F369FFFF0010024000127A00FFFF0000AE
:102CF000F8B504460E4615466665582005535A2019
:102D000005530020606600BF01210903A0688842C6
:102D10000AD12069002803D12A495C20015314E01C
:102D2000FF215C20015310E0A06800280AD120692F
:102D3000002803D1FF215C20015306E07F215C20A5
:102D4000015302E000215C20015300BF00218020DC
:102D500001512220E06700BF00F08EF907460120F4
:102D600000F09CF920688068012108432168886090
:102D7000384600F093F900BF01210903A06888429A
:102D800005D12069002802D10F48606601E00F4894
:102D9000606600BF00217420015500BF00BF00F035
:102DA0006BF90746012000F079F920680068FF21DF
:102DB0002131084321680860384600F06FF900BFF0
:102DC0000020F8BDFF010000AD2900088F2A00088F
:102DD000FFB581B004460D4617460A9E78E0701C88
:102DE000002875D0FDF78AFC0499401AB04201D83A
:102DF000002E2DD100BF00F03FF90090012000F01F
:102E00004DF920680068FF21A131884321680860DE
:102E1000009800F043F900BF00BF00F02DF90090CA
:102E2000012000F03BF920688068400840002168DC
:102E30008860009800F032F900BF2020A067E067AA
:102E400000BF00217420015500BF032005B0F0BD74
:102E50002068006804210840002839D02068C06933
:102E600049020840C00A002832D00846216808629A
:102E700000BF00F001F90090012000F00FF9206878
:102E80000068FF21A131884321680860009800F0A4
:102E900005F900BF00BF00F0EFF80090012000F03E
:102EA000FDF820688068400840002168886000982C
:102EB00000F0F4F800BF2020A067E0672021802008
:102EC000015100BF00217420015500BF0320BDE760
:102ED0002068C0692840A84201D1012000E00020FC
:102EE000B84200D17BE70020B0E7000010B50448ED
:102EF000FEF74AF9012203490148FEF7ADFB10BD78
:102F00007C020020E00100200FB410B503A9044B9F
:102F1000044A029800F0C5F810BC08BC04B0184779
:102F2000CD310008E40100202021020C01D0102145
:102F30001046020A01D010460839020901D0104695
:102F4000091F820801D01046891E420801D0881E40
:102F50007047081A7047F8B582B28BB2040C0D0C9A
:102F600010465843002126465E43370C360480192C
:102F7000794116466E43370C36048019794126464E
:102F80006E438919F8BD000010B5002819DB1A4AF4
:102F900003231B02D21883089B00D2588307DC0E40
:102FA000FF23A3409A438B071B0E8407E40EA34024
:102FB0001A43114B032424021B198408A4001A513C
:102FC00018E00E4A03071B0F083B9B089B00D258D2
:102FD0008307DC0EFF23A3409A438B071B0E840755
:102FE000E40EA3401A43054B0407240F083CA40831
:102FF000A4001A5110BD000000E100E01CED00E04B
:1030000010B5002819DB1A4A03231B02D2188308C3
:103010009B00D2588307DC0EFF23A3409A438B0703
:103020001B0E8407E40EA3401A43114B0324240211
:103030001B198408A4001A5118E00E4A03071B0F3D
:10304000083B9B089B00D2588307DC0EFF23A3405C
:103050009A438B071B0E8407E40EA3401A43054BCB
:103060000407240F083CA408A4001A5110BD000056
:1030700000E100E01CED00E0EFF31080704702E09B
:1030800008C8121F08C1002AFAD1704770470020F3
:1030900001E001C1121F002AFBD1704780F31088A4
:1030A0007047FFB581B00546002706E025280AD005
:1030B000049A039990476D1C7F1C28780028F5D14D
:1030C000384605B0F0BD002269786D1C10462E29E7
:1030D00013D1697804226D1C2A2909D102996D1C2B
:1030E00001C9029109E00A235843303808186D1CC1
:1030F00029780B46303B092BF5D92B78002BDFD0F4
:10310000632B07D0732B10D0049A1846039990476D
:103110007F1C2DE002996C460B782370091D0291EB
:10312000002161706E46012104E0029940C90291BC
:103130000021C94352070AD5002400E0641C8442E0
:103140000DDA8C42FADB325D002AF7D107E0002469
:1031500000E0641C8C42FCDB305D0028F9D13F1993
:1031600004E03078049A761C03999047641EF8D2E4
:103170006D1CA2E7FEB50746002611484069009085
:10318000104911480068FCF7ABFF7843019000BF7D
:103190000B48856911E00A488469AC420DD0AC4205
:1031A00002D2281B861903E00098001B40198619DB
:1031B00025460198864200D300E0ECE700BFFEBD43
:1031C00000E000E040420F000C00002038B504464B
:1031D0000D46E0B200906423012269460248FEF7E2
:1031E00084FA204638BD00007C020020FDF798FAE2
:1031F000FFF736FAFDF7B0F8FEF7FCFAFEF772FBC0
:10320000FFF77CFA00BFFEE770477047704710B5C4
:10321000FFF764F8FEF7ECFB10BD000000000000B3
:103220000000010203040607080900000000010273
:1032300003040000627574746F6E202D6320636850
:10324000610000006D656E75202D62206200000037
:103250006D656E75202D6F206200000062757474BC
:103260006F6E202D63206368620000006368612038
:103270002D6D206D6964646C650000006D656E7570
:10328000202D6220660000006D656E75202D6F2078
:1032900066000000627574746F6E202D6320747276
:1032A00069670000627574746F6E202D63206D6114
:1032B00074680000636861202D6D20646F776E0074
:1032C000627574746F6E202D63206175746F0000D9
:1032D000636861202D6D2075700000006275747444
:1032E0006F6E202D63206374720000006275747429
:1032F0006F6E202D632072730000000063686120F0
:103300002D6D206C65667400636861202D6D2072E0
:103310006967687400000000627574746F6E202D18
:1033200063206D656E7500004833000800000020C2
:10333000E8010000FC020008C0330008E80100209A
:10334000180500008E3000084132044201031412B7
:103350007A124862101334327A08146280AA5C141C
:10336000590A6AA41412047348029A9414396C31ED
:103370009ADC3C594F118B1833145977119AC02895
:1033800072200A11EC7801141AD02829045AB404C6
:103390005AFC041A086829041A6C0C2904A9AC09FF
:1033A0003E4869E0093B4819D8021B401A442429C9
:1033B000045A7C045A50485A884C994851000000DD
:04000005080000B13E
:00000001FF
